{
  "contractName": "WeRgame",
  "abi": [
    {
      "inputs": [
        {
          "internalType": "address",
          "name": "usdcToken",
          "type": "address"
        }
      ],
      "stateMutability": "nonpayable",
      "type": "constructor"
    },
    {
      "inputs": [],
      "name": "ECDSAInvalidSignature",
      "type": "error"
    },
    {
      "inputs": [
        {
          "internalType": "uint256",
          "name": "length",
          "type": "uint256"
        }
      ],
      "name": "ECDSAInvalidSignatureLength",
      "type": "error"
    },
    {
      "inputs": [
        {
          "internalType": "bytes32",
          "name": "s",
          "type": "bytes32"
        }
      ],
      "name": "ECDSAInvalidSignatureS",
      "type": "error"
    },
    {
      "inputs": [],
      "name": "ReentrancyGuardReentrantCall",
      "type": "error"
    },
    {
      "inputs": [
        {
          "internalType": "address",
          "name": "token",
          "type": "address"
        }
      ],
      "name": "SafeERC20FailedOperation",
      "type": "error"
    },
    {
      "anonymous": false,
      "inputs": [
        {
          "indexed": true,
          "internalType": "uint256",
          "name": "marketId",
          "type": "uint256"
        },
        {
          "indexed": true,
          "internalType": "address",
          "name": "user",
          "type": "address"
        },
        {
          "indexed": false,
          "internalType": "uint256",
          "name": "amount",
          "type": "uint256"
        }
      ],
      "name": "BoostClaimed",
      "type": "event"
    },
    {
      "anonymous": false,
      "inputs": [
        {
          "indexed": true,
          "internalType": "uint256",
          "name": "marketId",
          "type": "uint256"
        },
        {
          "indexed": true,
          "internalType": "address",
          "name": "user",
          "type": "address"
        },
        {
          "indexed": false,
          "internalType": "uint256",
          "name": "amount",
          "type": "uint256"
        }
      ],
      "name": "BoostStakeAdded",
      "type": "event"
    },
    {
      "anonymous": false,
      "inputs": [
        {
          "indexed": true,
          "internalType": "uint256",
          "name": "marketId",
          "type": "uint256"
        },
        {
          "indexed": true,
          "internalType": "address",
          "name": "user",
          "type": "address"
        },
        {
          "indexed": false,
          "internalType": "uint256",
          "name": "amount",
          "type": "uint256"
        }
      ],
      "name": "BoostStakeWithdrawn",
      "type": "event"
    },
    {
      "anonymous": false,
      "inputs": [
        {
          "indexed": true,
          "internalType": "uint256",
          "name": "marketId",
          "type": "uint256"
        },
        {
          "indexed": true,
          "internalType": "address",
          "name": "user",
          "type": "address"
        },
        {
          "indexed": false,
          "internalType": "string",
          "name": "outcome",
          "type": "string"
        },
        {
          "indexed": false,
          "internalType": "uint256",
          "name": "amount",
          "type": "uint256"
        }
      ],
      "name": "BoostStaked",
      "type": "event"
    },
    {
      "anonymous": false,
      "inputs": [
        {
          "indexed": false,
          "internalType": "uint256",
          "name": "amount",
          "type": "uint256"
        }
      ],
      "name": "ClaimPredictionWinsPoolFunded",
      "type": "event"
    },
    {
      "anonymous": false,
      "inputs": [
        {
          "indexed": true,
          "internalType": "address",
          "name": "to",
          "type": "address"
        },
        {
          "indexed": false,
          "internalType": "uint256",
          "name": "amount",
          "type": "uint256"
        }
      ],
      "name": "ClaimPredictionWinsPoolWithdrawn",
      "type": "event"
    },
    {
      "anonymous": false,
      "inputs": [
        {
          "indexed": true,
          "internalType": "address",
          "name": "to",
          "type": "address"
        },
        {
          "indexed": false,
          "internalType": "uint256",
          "name": "amount",
          "type": "uint256"
        }
      ],
      "name": "ContractMigratedForUpgrade",
      "type": "event"
    },
    {
      "anonymous": false,
      "inputs": [
        {
          "indexed": false,
          "internalType": "uint256",
          "name": "platformFee",
          "type": "uint256"
        },
        {
          "indexed": false,
          "internalType": "uint256",
          "name": "boostJackpotFee",
          "type": "uint256"
        },
        {
          "indexed": false,
          "internalType": "uint256",
          "name": "marketPlatformFee",
          "type": "uint256"
        },
        {
          "indexed": false,
          "internalType": "uint256",
          "name": "freeJackpotFee",
          "type": "uint256"
        }
      ],
      "name": "FeesUpdated",
      "type": "event"
    },
    {
      "anonymous": false,
      "inputs": [
        {
          "indexed": true,
          "internalType": "address",
          "name": "to",
          "type": "address"
        },
        {
          "indexed": false,
          "internalType": "uint256",
          "name": "amount",
          "type": "uint256"
        }
      ],
      "name": "FundsTransferred",
      "type": "event"
    },
    {
      "anonymous": false,
      "inputs": [
        {
          "indexed": false,
          "internalType": "uint256",
          "name": "amount",
          "type": "uint256"
        }
      ],
      "name": "JackpotFunded",
      "type": "event"
    },
    {
      "anonymous": false,
      "inputs": [
        {
          "indexed": true,
          "internalType": "address",
          "name": "to",
          "type": "address"
        },
        {
          "indexed": false,
          "internalType": "uint256",
          "name": "amount",
          "type": "uint256"
        }
      ],
      "name": "JackpotPoolWithdrawn",
      "type": "event"
    },
    {
      "anonymous": false,
      "inputs": [
        {
          "indexed": true,
          "internalType": "address",
          "name": "user",
          "type": "address"
        },
        {
          "indexed": false,
          "internalType": "uint256",
          "name": "amount",
          "type": "uint256"
        }
      ],
      "name": "JackpotWithdrawn",
      "type": "event"
    },
    {
      "anonymous": false,
      "inputs": [
        {
          "indexed": true,
          "internalType": "uint256",
          "name": "marketId",
          "type": "uint256"
        },
        {
          "indexed": false,
          "internalType": "string",
          "name": "option",
          "type": "string"
        },
        {
          "indexed": false,
          "internalType": "uint256",
          "name": "amount",
          "type": "uint256"
        }
      ],
      "name": "LiquidityAdded",
      "type": "event"
    },
    {
      "anonymous": false,
      "inputs": [
        {
          "indexed": true,
          "internalType": "uint256",
          "name": "marketId",
          "type": "uint256"
        },
        {
          "indexed": true,
          "internalType": "address",
          "name": "user",
          "type": "address"
        },
        {
          "indexed": false,
          "internalType": "string",
          "name": "outcome",
          "type": "string"
        },
        {
          "indexed": false,
          "internalType": "uint256",
          "name": "ethAmount",
          "type": "uint256"
        },
        {
          "indexed": false,
          "internalType": "uint256",
          "name": "shares",
          "type": "uint256"
        }
      ],
      "name": "MarketBought",
      "type": "event"
    },
    {
      "anonymous": false,
      "inputs": [
        {
          "indexed": true,
          "internalType": "uint256",
          "name": "marketId",
          "type": "uint256"
        },
        {
          "indexed": true,
          "internalType": "address",
          "name": "user",
          "type": "address"
        },
        {
          "indexed": false,
          "internalType": "string",
          "name": "outcome",
          "type": "string"
        },
        {
          "indexed": false,
          "internalType": "uint256",
          "name": "amount",
          "type": "uint256"
        }
      ],
      "name": "MarketClaimed",
      "type": "event"
    },
    {
      "anonymous": false,
      "inputs": [
        {
          "indexed": true,
          "internalType": "uint256",
          "name": "marketId",
          "type": "uint256"
        },
        {
          "indexed": false,
          "internalType": "bool",
          "name": "isPoll",
          "type": "bool"
        },
        {
          "indexed": false,
          "internalType": "string[]",
          "name": "options",
          "type": "string[]"
        }
      ],
      "name": "MarketCreated",
      "type": "event"
    },
    {
      "anonymous": false,
      "inputs": [
        {
          "indexed": true,
          "internalType": "uint256",
          "name": "marketId",
          "type": "uint256"
        },
        {
          "indexed": false,
          "internalType": "string",
          "name": "winningOption",
          "type": "string"
        }
      ],
      "name": "MarketResolved",
      "type": "event"
    },
    {
      "anonymous": false,
      "inputs": [
        {
          "indexed": true,
          "internalType": "uint256",
          "name": "marketId",
          "type": "uint256"
        },
        {
          "indexed": true,
          "internalType": "address",
          "name": "user",
          "type": "address"
        },
        {
          "indexed": false,
          "internalType": "string",
          "name": "outcome",
          "type": "string"
        },
        {
          "indexed": false,
          "internalType": "uint256",
          "name": "shares",
          "type": "uint256"
        },
        {
          "indexed": false,
          "internalType": "uint256",
          "name": "ethAmount",
          "type": "uint256"
        }
      ],
      "name": "MarketSold",
      "type": "event"
    },
    {
      "anonymous": false,
      "inputs": [
        {
          "indexed": true,
          "internalType": "uint256",
          "name": "marketId",
          "type": "uint256"
        },
        {
          "indexed": false,
          "internalType": "enum WeRgame.MarketStatus",
          "name": "status",
          "type": "uint8"
        }
      ],
      "name": "MarketStatusUpdated",
      "type": "event"
    },
    {
      "anonymous": false,
      "inputs": [
        {
          "indexed": true,
          "internalType": "uint256",
          "name": "marketId",
          "type": "uint256"
        },
        {
          "indexed": false,
          "internalType": "uint256",
          "name": "totalAmount",
          "type": "uint256"
        }
      ],
      "name": "OrderbookLiquidityBatchAdded",
      "type": "event"
    },
    {
      "anonymous": false,
      "inputs": [
        {
          "indexed": true,
          "internalType": "uint256",
          "name": "marketId",
          "type": "uint256"
        },
        {
          "indexed": true,
          "internalType": "address",
          "name": "user",
          "type": "address"
        },
        {
          "indexed": false,
          "internalType": "string",
          "name": "positionKey",
          "type": "string"
        },
        {
          "indexed": false,
          "internalType": "uint256",
          "name": "amount",
          "type": "uint256"
        }
      ],
      "name": "OrderbookPositionClaimed",
      "type": "event"
    },
    {
      "anonymous": false,
      "inputs": [
        {
          "indexed": true,
          "internalType": "uint256",
          "name": "marketId",
          "type": "uint256"
        },
        {
          "indexed": false,
          "internalType": "uint256",
          "name": "legs",
          "type": "uint256"
        },
        {
          "indexed": false,
          "internalType": "uint256",
          "name": "feeToClaimPool",
          "type": "uint256"
        },
        {
          "indexed": false,
          "internalType": "uint256",
          "name": "feeToJackpotPool",
          "type": "uint256"
        }
      ],
      "name": "OrderbookSettlementsApplied",
      "type": "event"
    },
    {
      "anonymous": false,
      "inputs": [
        {
          "indexed": true,
          "internalType": "uint256",
          "name": "marketId",
          "type": "uint256"
        },
        {
          "indexed": true,
          "internalType": "address",
          "name": "user",
          "type": "address"
        },
        {
          "indexed": false,
          "internalType": "uint256",
          "name": "amount",
          "type": "uint256"
        }
      ],
      "name": "PredictionWinsClaimed",
      "type": "event"
    },
    {
      "anonymous": false,
      "inputs": [
        {
          "indexed": true,
          "internalType": "address",
          "name": "user",
          "type": "address"
        },
        {
          "indexed": false,
          "internalType": "uint256",
          "name": "amount",
          "type": "uint256"
        }
      ],
      "name": "TradingVaultDeposited",
      "type": "event"
    },
    {
      "anonymous": false,
      "inputs": [
        {
          "indexed": true,
          "internalType": "address",
          "name": "user",
          "type": "address"
        },
        {
          "indexed": false,
          "internalType": "uint256",
          "name": "amount",
          "type": "uint256"
        }
      ],
      "name": "TradingVaultWithdrawn",
      "type": "event"
    },
    {
      "inputs": [
        {
          "internalType": "address",
          "name": "",
          "type": "address"
        }
      ],
      "name": "admins",
      "outputs": [
        {
          "internalType": "bool",
          "name": "",
          "type": "bool"
        }
      ],
      "stateMutability": "view",
      "type": "function"
    },
    {
      "inputs": [],
      "name": "boostJackpotFee",
      "outputs": [
        {
          "internalType": "uint256",
          "name": "",
          "type": "uint256"
        }
      ],
      "stateMutability": "view",
      "type": "function"
    },
    {
      "inputs": [
        {
          "internalType": "uint256",
          "name": "",
          "type": "uint256"
        },
        {
          "internalType": "address",
          "name": "",
          "type": "address"
        },
        {
          "internalType": "string",
          "name": "",
          "type": "string"
        }
      ],
      "name": "boostPredictions",
      "outputs": [
        {
          "internalType": "address",
          "name": "user",
          "type": "address"
        },
        {
          "internalType": "uint256",
          "name": "marketId",
          "type": "uint256"
        },
        {
          "internalType": "string",
          "name": "outcome",
          "type": "string"
        },
        {
          "internalType": "uint256",
          "name": "stakeAmount",
          "type": "uint256"
        },
        {
          "internalType": "uint256",
          "name": "totalStake",
          "type": "uint256"
        },
        {
          "internalType": "bool",
          "name": "claimed",
          "type": "bool"
        }
      ],
      "stateMutability": "view",
      "type": "function"
    },
    {
      "inputs": [],
      "name": "claimAuthSigner",
      "outputs": [
        {
          "internalType": "address",
          "name": "",
          "type": "address"
        }
      ],
      "stateMutability": "view",
      "type": "function"
    },
    {
      "inputs": [],
      "name": "claimPredictionWinsPool",
      "outputs": [
        {
          "internalType": "uint256",
          "name": "",
          "type": "uint256"
        }
      ],
      "stateMutability": "view",
      "type": "function"
    },
    {
      "inputs": [
        {
          "internalType": "uint256",
          "name": "",
          "type": "uint256"
        },
        {
          "internalType": "address",
          "name": "",
          "type": "address"
        }
      ],
      "name": "claimableBalances",
      "outputs": [
        {
          "internalType": "uint256",
          "name": "",
          "type": "uint256"
        }
      ],
      "stateMutability": "view",
      "type": "function"
    },
    {
      "inputs": [
        {
          "internalType": "uint256",
          "name": "",
          "type": "uint256"
        },
        {
          "internalType": "address",
          "name": "",
          "type": "address"
        }
      ],
      "name": "claimableBoost",
      "outputs": [
        {
          "internalType": "uint256",
          "name": "",
          "type": "uint256"
        }
      ],
      "stateMutability": "view",
      "type": "function"
    },
    {
      "inputs": [
        {
          "internalType": "uint256",
          "name": "",
          "type": "uint256"
        },
        {
          "internalType": "address",
          "name": "",
          "type": "address"
        }
      ],
      "name": "claimableMarket",
      "outputs": [
        {
          "internalType": "uint256",
          "name": "",
          "type": "uint256"
        }
      ],
      "stateMutability": "view",
      "type": "function"
    },
    {
      "inputs": [],
      "name": "deployer",
      "outputs": [
        {
          "internalType": "address",
          "name": "",
          "type": "address"
        }
      ],
      "stateMutability": "view",
      "type": "function"
    },
    {
      "inputs": [],
      "name": "freeJackpotFee",
      "outputs": [
        {
          "internalType": "uint256",
          "name": "",
          "type": "uint256"
        }
      ],
      "stateMutability": "view",
      "type": "function"
    },
    {
      "inputs": [
        {
          "internalType": "address",
          "name": "",
          "type": "address"
        }
      ],
      "name": "jackpotBalances",
      "outputs": [
        {
          "internalType": "uint256",
          "name": "",
          "type": "uint256"
        }
      ],
      "stateMutability": "view",
      "type": "function"
    },
    {
      "inputs": [],
      "name": "jackpotPool",
      "outputs": [
        {
          "internalType": "uint256",
          "name": "",
          "type": "uint256"
        }
      ],
      "stateMutability": "view",
      "type": "function"
    },
    {
      "inputs": [],
      "name": "marketPlatformFee",
      "outputs": [
        {
          "internalType": "uint256",
          "name": "",
          "type": "uint256"
        }
      ],
      "stateMutability": "view",
      "type": "function"
    },
    {
      "inputs": [
        {
          "internalType": "uint256",
          "name": "",
          "type": "uint256"
        },
        {
          "internalType": "address",
          "name": "",
          "type": "address"
        },
        {
          "internalType": "string",
          "name": "",
          "type": "string"
        }
      ],
      "name": "marketPositions",
      "outputs": [
        {
          "internalType": "address",
          "name": "user",
          "type": "address"
        },
        {
          "internalType": "string",
          "name": "outcome",
          "type": "string"
        },
        {
          "internalType": "uint256",
          "name": "shares",
          "type": "uint256"
        },
        {
          "internalType": "uint256",
          "name": "totalInvested",
          "type": "uint256"
        }
      ],
      "stateMutability": "view",
      "type": "function"
    },
    {
      "inputs": [
        {
          "internalType": "uint256",
          "name": "",
          "type": "uint256"
        }
      ],
      "name": "markets",
      "outputs": [
        {
          "internalType": "uint256",
          "name": "marketId",
          "type": "uint256"
        },
        {
          "internalType": "bool",
          "name": "isPoll",
          "type": "bool"
        },
        {
          "internalType": "enum WeRgame.MarketStatus",
          "name": "status",
          "type": "uint8"
        },
        {
          "internalType": "uint256",
          "name": "totalLiquidity",
          "type": "uint256"
        },
        {
          "internalType": "bool",
          "name": "resolved",
          "type": "bool"
        },
        {
          "internalType": "string",
          "name": "winningOption",
          "type": "string"
        },
        {
          "internalType": "uint256",
          "name": "createdAt",
          "type": "uint256"
        },
        {
          "internalType": "uint256",
          "name": "resolvedAt",
          "type": "uint256"
        }
      ],
      "stateMutability": "view",
      "type": "function"
    },
    {
      "inputs": [],
      "name": "nextMarketId",
      "outputs": [
        {
          "internalType": "uint256",
          "name": "",
          "type": "uint256"
        }
      ],
      "stateMutability": "view",
      "type": "function"
    },
    {
      "inputs": [
        {
          "internalType": "uint256",
          "name": "",
          "type": "uint256"
        },
        {
          "internalType": "string",
          "name": "",
          "type": "string"
        }
      ],
      "name": "orderbookLiquidityNo",
      "outputs": [
        {
          "internalType": "uint256",
          "name": "",
          "type": "uint256"
        }
      ],
      "stateMutability": "view",
      "type": "function"
    },
    {
      "inputs": [
        {
          "internalType": "uint256",
          "name": "",
          "type": "uint256"
        },
        {
          "internalType": "string",
          "name": "",
          "type": "string"
        }
      ],
      "name": "orderbookLiquidityYes",
      "outputs": [
        {
          "internalType": "uint256",
          "name": "",
          "type": "uint256"
        }
      ],
      "stateMutability": "view",
      "type": "function"
    },
    {
      "inputs": [
        {
          "internalType": "uint256",
          "name": "",
          "type": "uint256"
        },
        {
          "internalType": "string",
          "name": "",
          "type": "string"
        }
      ],
      "name": "orderbookSharesNo",
      "outputs": [
        {
          "internalType": "uint256",
          "name": "",
          "type": "uint256"
        }
      ],
      "stateMutability": "view",
      "type": "function"
    },
    {
      "inputs": [
        {
          "internalType": "uint256",
          "name": "",
          "type": "uint256"
        },
        {
          "internalType": "string",
          "name": "",
          "type": "string"
        }
      ],
      "name": "orderbookSharesYes",
      "outputs": [
        {
          "internalType": "uint256",
          "name": "",
          "type": "uint256"
        }
      ],
      "stateMutability": "view",
      "type": "function"
    },
    {
      "inputs": [],
      "name": "platformFee",
      "outputs": [
        {
          "internalType": "uint256",
          "name": "",
          "type": "uint256"
        }
      ],
      "stateMutability": "view",
      "type": "function"
    },
    {
      "inputs": [],
      "name": "superAdmin",
      "outputs": [
        {
          "internalType": "address",
          "name": "",
          "type": "address"
        }
      ],
      "stateMutability": "view",
      "type": "function"
    },
    {
      "inputs": [],
      "name": "totalTradingVaultLiabilities",
      "outputs": [
        {
          "internalType": "uint256",
          "name": "",
          "type": "uint256"
        }
      ],
      "stateMutability": "view",
      "type": "function"
    },
    {
      "inputs": [
        {
          "internalType": "address",
          "name": "",
          "type": "address"
        }
      ],
      "name": "tradingVaultBalances",
      "outputs": [
        {
          "internalType": "uint256",
          "name": "",
          "type": "uint256"
        }
      ],
      "stateMutability": "view",
      "type": "function"
    },
    {
      "inputs": [],
      "name": "usdc",
      "outputs": [
        {
          "internalType": "contract IERC20",
          "name": "",
          "type": "address"
        }
      ],
      "stateMutability": "view",
      "type": "function"
    },
    {
      "inputs": [
        {
          "internalType": "bytes32",
          "name": "",
          "type": "bytes32"
        }
      ],
      "name": "usedAuthPredictionClaims",
      "outputs": [
        {
          "internalType": "bool",
          "name": "",
          "type": "bool"
        }
      ],
      "stateMutability": "view",
      "type": "function"
    },
    {
      "inputs": [
        {
          "internalType": "bytes32",
          "name": "",
          "type": "bytes32"
        }
      ],
      "name": "usedJackpotWithdrawNonces",
      "outputs": [
        {
          "internalType": "bool",
          "name": "",
          "type": "bool"
        }
      ],
      "stateMutability": "view",
      "type": "function"
    },
    {
      "inputs": [
        {
          "internalType": "bytes32",
          "name": "",
          "type": "bytes32"
        }
      ],
      "name": "usedOrderbookClaimKeys",
      "outputs": [
        {
          "internalType": "bool",
          "name": "",
          "type": "bool"
        }
      ],
      "stateMutability": "view",
      "type": "function"
    },
    {
      "inputs": [
        {
          "internalType": "bytes32",
          "name": "",
          "type": "bytes32"
        }
      ],
      "name": "usedTradingVaultWithdrawNonces",
      "outputs": [
        {
          "internalType": "bool",
          "name": "",
          "type": "bool"
        }
      ],
      "stateMutability": "view",
      "type": "function"
    },
    {
      "inputs": [
        {
          "internalType": "bool",
          "name": "isPoll",
          "type": "bool"
        },
        {
          "internalType": "string[]",
          "name": "options",
          "type": "string[]"
        }
      ],
      "name": "createMarket",
      "outputs": [
        {
          "internalType": "uint256",
          "name": "",
          "type": "uint256"
        }
      ],
      "stateMutability": "nonpayable",
      "type": "function"
    },
    {
      "inputs": [
        {
          "internalType": "uint256",
          "name": "marketId",
          "type": "uint256"
        },
        {
          "internalType": "enum WeRgame.MarketStatus",
          "name": "status",
          "type": "uint8"
        }
      ],
      "name": "updateMarketStatus",
      "outputs": [],
      "stateMutability": "nonpayable",
      "type": "function"
    },
    {
      "inputs": [
        {
          "internalType": "uint256",
          "name": "marketId",
          "type": "uint256"
        },
        {
          "internalType": "string",
          "name": "option",
          "type": "string"
        },
        {
          "internalType": "uint256",
          "name": "amount",
          "type": "uint256"
        }
      ],
      "name": "addLiquidity",
      "outputs": [],
      "stateMutability": "nonpayable",
      "type": "function"
    },
    {
      "inputs": [
        {
          "internalType": "uint256",
          "name": "marketId",
          "type": "uint256"
        },
        {
          "internalType": "string",
          "name": "winningOption",
          "type": "string"
        }
      ],
      "name": "resolveMarket",
      "outputs": [],
      "stateMutability": "nonpayable",
      "type": "function"
    },
    {
      "inputs": [
        {
          "internalType": "address",
          "name": "signer",
          "type": "address"
        }
      ],
      "name": "setClaimAuthSigner",
      "outputs": [],
      "stateMutability": "nonpayable",
      "type": "function"
    },
    {
      "inputs": [
        {
          "internalType": "uint256",
          "name": "_platformFee",
          "type": "uint256"
        },
        {
          "internalType": "uint256",
          "name": "_boostJackpotFee",
          "type": "uint256"
        },
        {
          "internalType": "uint256",
          "name": "_marketPlatformFee",
          "type": "uint256"
        },
        {
          "internalType": "uint256",
          "name": "_freeJackpotFee",
          "type": "uint256"
        }
      ],
      "name": "setFees",
      "outputs": [],
      "stateMutability": "nonpayable",
      "type": "function"
    },
    {
      "inputs": [],
      "name": "getFees",
      "outputs": [
        {
          "internalType": "uint256",
          "name": "_platformFee",
          "type": "uint256"
        },
        {
          "internalType": "uint256",
          "name": "_boostJackpotFee",
          "type": "uint256"
        },
        {
          "internalType": "uint256",
          "name": "_marketPlatformFee",
          "type": "uint256"
        },
        {
          "internalType": "uint256",
          "name": "_freeJackpotFee",
          "type": "uint256"
        }
      ],
      "stateMutability": "view",
      "type": "function"
    },
    {
      "inputs": [
        {
          "internalType": "uint256",
          "name": "marketId",
          "type": "uint256"
        }
      ],
      "name": "getMarketOptions",
      "outputs": [
        {
          "internalType": "string[]",
          "name": "",
          "type": "string[]"
        }
      ],
      "stateMutability": "view",
      "type": "function"
    },
    {
      "inputs": [
        {
          "internalType": "uint256",
          "name": "marketId",
          "type": "uint256"
        },
        {
          "internalType": "string",
          "name": "outcome",
          "type": "string"
        },
        {
          "internalType": "uint256",
          "name": "amount",
          "type": "uint256"
        }
      ],
      "name": "stakeBoost",
      "outputs": [],
      "stateMutability": "nonpayable",
      "type": "function"
    },
    {
      "inputs": [
        {
          "internalType": "uint256",
          "name": "marketId",
          "type": "uint256"
        },
        {
          "internalType": "string",
          "name": "outcome",
          "type": "string"
        },
        {
          "internalType": "uint256",
          "name": "amount",
          "type": "uint256"
        }
      ],
      "name": "addBoostStake",
      "outputs": [],
      "stateMutability": "nonpayable",
      "type": "function"
    },
    {
      "inputs": [
        {
          "internalType": "uint256",
          "name": "marketId",
          "type": "uint256"
        },
        {
          "internalType": "string",
          "name": "outcome",
          "type": "string"
        },
        {
          "internalType": "uint256",
          "name": "amount",
          "type": "uint256"
        }
      ],
      "name": "withdrawBoostStake",
      "outputs": [],
      "stateMutability": "nonpayable",
      "type": "function"
    },
    {
      "inputs": [
        {
          "internalType": "uint256",
          "name": "marketId",
          "type": "uint256"
        },
        {
          "internalType": "string",
          "name": "outcome",
          "type": "string"
        }
      ],
      "name": "claimBoost",
      "outputs": [],
      "stateMutability": "nonpayable",
      "type": "function"
    },
    {
      "inputs": [
        {
          "internalType": "uint256",
          "name": "marketId",
          "type": "uint256"
        },
        {
          "internalType": "address",
          "name": "user",
          "type": "address"
        },
        {
          "internalType": "uint256",
          "name": "amount",
          "type": "uint256"
        }
      ],
      "name": "setClaimableBalance",
      "outputs": [],
      "stateMutability": "nonpayable",
      "type": "function"
    },
    {
      "inputs": [
        {
          "internalType": "uint256",
          "name": "marketId",
          "type": "uint256"
        },
        {
          "internalType": "address",
          "name": "user",
          "type": "address"
        },
        {
          "internalType": "uint256",
          "name": "amount",
          "type": "uint256"
        }
      ],
      "name": "setClaimableBoost",
      "outputs": [],
      "stateMutability": "nonpayable",
      "type": "function"
    },
    {
      "inputs": [
        {
          "internalType": "uint256",
          "name": "marketId",
          "type": "uint256"
        },
        {
          "internalType": "address",
          "name": "user",
          "type": "address"
        },
        {
          "internalType": "uint256",
          "name": "amount",
          "type": "uint256"
        }
      ],
      "name": "setClaimableMarket",
      "outputs": [],
      "stateMutability": "nonpayable",
      "type": "function"
    },
    {
      "inputs": [
        {
          "internalType": "uint256",
          "name": "marketId",
          "type": "uint256"
        },
        {
          "internalType": "bool",
          "name": "isBoost",
          "type": "bool"
        }
      ],
      "name": "claimPredictionWins",
      "outputs": [],
      "stateMutability": "nonpayable",
      "type": "function"
    },
    {
      "inputs": [
        {
          "internalType": "uint256",
          "name": "marketId",
          "type": "uint256"
        },
        {
          "internalType": "bool",
          "name": "isBoost",
          "type": "bool"
        },
        {
          "internalType": "uint256",
          "name": "amount",
          "type": "uint256"
        },
        {
          "internalType": "bytes32",
          "name": "predictionId",
          "type": "bytes32"
        },
        {
          "internalType": "uint256",
          "name": "deadline",
          "type": "uint256"
        },
        {
          "internalType": "bytes",
          "name": "signature",
          "type": "bytes"
        }
      ],
      "name": "claimPredictionWinsWithAuth",
      "outputs": [],
      "stateMutability": "nonpayable",
      "type": "function"
    },
    {
      "inputs": [
        {
          "internalType": "uint256",
          "name": "amount",
          "type": "uint256"
        },
        {
          "internalType": "bytes32",
          "name": "nonce",
          "type": "bytes32"
        },
        {
          "internalType": "uint256",
          "name": "deadline",
          "type": "uint256"
        },
        {
          "internalType": "bytes",
          "name": "signature",
          "type": "bytes"
        }
      ],
      "name": "withdrawJackpotWithAuth",
      "outputs": [],
      "stateMutability": "nonpayable",
      "type": "function"
    },
    {
      "inputs": [
        {
          "internalType": "uint256",
          "name": "amount",
          "type": "uint256"
        }
      ],
      "name": "fundClaimPredictionWinsPool",
      "outputs": [],
      "stateMutability": "nonpayable",
      "type": "function"
    },
    {
      "inputs": [
        {
          "internalType": "address payable",
          "name": "to",
          "type": "address"
        },
        {
          "internalType": "uint256",
          "name": "amount",
          "type": "uint256"
        }
      ],
      "name": "withdrawFromClaimPredictionWinsPool",
      "outputs": [],
      "stateMutability": "nonpayable",
      "type": "function"
    },
    {
      "inputs": [
        {
          "internalType": "uint256",
          "name": "marketId",
          "type": "uint256"
        },
        {
          "internalType": "string",
          "name": "outcome",
          "type": "string"
        },
        {
          "internalType": "uint256",
          "name": "amount",
          "type": "uint256"
        }
      ],
      "name": "buyMarketShares",
      "outputs": [],
      "stateMutability": "nonpayable",
      "type": "function"
    },
    {
      "inputs": [
        {
          "internalType": "uint256",
          "name": "marketId",
          "type": "uint256"
        },
        {
          "internalType": "string",
          "name": "outcome",
          "type": "string"
        },
        {
          "internalType": "uint256",
          "name": "shares",
          "type": "uint256"
        }
      ],
      "name": "sellMarketShares",
      "outputs": [],
      "stateMutability": "nonpayable",
      "type": "function"
    },
    {
      "inputs": [
        {
          "internalType": "uint256",
          "name": "marketId",
          "type": "uint256"
        },
        {
          "internalType": "string",
          "name": "outcome",
          "type": "string"
        }
      ],
      "name": "claimMarket",
      "outputs": [],
      "stateMutability": "nonpayable",
      "type": "function"
    },
    {
      "inputs": [
        {
          "internalType": "uint256",
          "name": "marketId",
          "type": "uint256"
        },
        {
          "internalType": "string",
          "name": "outcome",
          "type": "string"
        }
      ],
      "name": "getPrice",
      "outputs": [
        {
          "internalType": "uint256",
          "name": "",
          "type": "uint256"
        }
      ],
      "stateMutability": "view",
      "type": "function"
    },
    {
      "inputs": [
        {
          "internalType": "uint256",
          "name": "marketId",
          "type": "uint256"
        },
        {
          "internalType": "address",
          "name": "user",
          "type": "address"
        },
        {
          "internalType": "string",
          "name": "outcome",
          "type": "string"
        }
      ],
      "name": "getUserPosition",
      "outputs": [
        {
          "internalType": "uint256",
          "name": "shares",
          "type": "uint256"
        },
        {
          "internalType": "uint256",
          "name": "totalInvested",
          "type": "uint256"
        }
      ],
      "stateMutability": "view",
      "type": "function"
    },
    {
      "inputs": [
        {
          "internalType": "uint256",
          "name": "marketId",
          "type": "uint256"
        },
        {
          "internalType": "address",
          "name": "user",
          "type": "address"
        },
        {
          "internalType": "string",
          "name": "outcome",
          "type": "string"
        }
      ],
      "name": "getBoostPrediction",
      "outputs": [
        {
          "internalType": "address",
          "name": "_user",
          "type": "address"
        },
        {
          "internalType": "uint256",
          "name": "_totalStake",
          "type": "uint256"
        },
        {
          "internalType": "bool",
          "name": "_claimed",
          "type": "bool"
        }
      ],
      "stateMutability": "view",
      "type": "function"
    },
    {
      "inputs": [
        {
          "internalType": "uint256",
          "name": "amount",
          "type": "uint256"
        }
      ],
      "name": "fundJackpotPool",
      "outputs": [],
      "stateMutability": "nonpayable",
      "type": "function"
    },
    {
      "inputs": [
        {
          "internalType": "uint256",
          "name": "amount",
          "type": "uint256"
        }
      ],
      "name": "withdrawJackpot",
      "outputs": [],
      "stateMutability": "nonpayable",
      "type": "function"
    },
    {
      "inputs": [
        {
          "internalType": "address",
          "name": "user",
          "type": "address"
        },
        {
          "internalType": "uint256",
          "name": "amount",
          "type": "uint256"
        }
      ],
      "name": "setJackpotBalance",
      "outputs": [],
      "stateMutability": "nonpayable",
      "type": "function"
    },
    {
      "inputs": [
        {
          "internalType": "address payable",
          "name": "to",
          "type": "address"
        },
        {
          "internalType": "uint256",
          "name": "amount",
          "type": "uint256"
        }
      ],
      "name": "withdrawFromJackpotPool",
      "outputs": [],
      "stateMutability": "nonpayable",
      "type": "function"
    },
    {
      "inputs": [],
      "name": "getContractBalance",
      "outputs": [
        {
          "internalType": "uint256",
          "name": "",
          "type": "uint256"
        }
      ],
      "stateMutability": "view",
      "type": "function"
    },
    {
      "inputs": [
        {
          "internalType": "address payable",
          "name": "to",
          "type": "address"
        },
        {
          "internalType": "uint256",
          "name": "amount",
          "type": "uint256"
        }
      ],
      "name": "transferFunds",
      "outputs": [],
      "stateMutability": "nonpayable",
      "type": "function"
    },
    {
      "inputs": [
        {
          "internalType": "address payable",
          "name": "to",
          "type": "address"
        }
      ],
      "name": "migrateAllFundsForUpgrade",
      "outputs": [],
      "stateMutability": "nonpayable",
      "type": "function"
    },
    {
      "inputs": [
        {
          "internalType": "address",
          "name": "_superAdmin",
          "type": "address"
        }
      ],
      "name": "setSuperAdmin",
      "outputs": [],
      "stateMutability": "nonpayable",
      "type": "function"
    },
    {
      "inputs": [
        {
          "internalType": "address",
          "name": "admin",
          "type": "address"
        },
        {
          "internalType": "bool",
          "name": "enabled",
          "type": "bool"
        }
      ],
      "name": "setAdmin",
      "outputs": [],
      "stateMutability": "nonpayable",
      "type": "function"
    },
    {
      "inputs": [
        {
          "internalType": "address",
          "name": "user",
          "type": "address"
        }
      ],
      "name": "getJackpotBalance",
      "outputs": [
        {
          "internalType": "uint256",
          "name": "",
          "type": "uint256"
        }
      ],
      "stateMutability": "view",
      "type": "function"
    },
    {
      "inputs": [
        {
          "internalType": "uint256",
          "name": "marketId",
          "type": "uint256"
        },
        {
          "internalType": "address",
          "name": "user",
          "type": "address"
        }
      ],
      "name": "getClaimableBalance",
      "outputs": [
        {
          "internalType": "uint256",
          "name": "",
          "type": "uint256"
        }
      ],
      "stateMutability": "view",
      "type": "function"
    },
    {
      "inputs": [
        {
          "internalType": "uint256",
          "name": "amount",
          "type": "uint256"
        }
      ],
      "name": "depositTradingVault",
      "outputs": [],
      "stateMutability": "nonpayable",
      "type": "function"
    },
    {
      "inputs": [
        {
          "internalType": "uint256",
          "name": "amount",
          "type": "uint256"
        },
        {
          "internalType": "bytes32",
          "name": "nonce",
          "type": "bytes32"
        },
        {
          "internalType": "uint256",
          "name": "deadline",
          "type": "uint256"
        },
        {
          "internalType": "bytes",
          "name": "signature",
          "type": "bytes"
        }
      ],
      "name": "withdrawTradingVaultWithAuth",
      "outputs": [],
      "stateMutability": "nonpayable",
      "type": "function"
    },
    {
      "inputs": [
        {
          "internalType": "uint256",
          "name": "marketId",
          "type": "uint256"
        },
        {
          "components": [
            {
              "internalType": "string",
              "name": "option",
              "type": "string"
            },
            {
              "internalType": "uint256",
              "name": "yesAmount",
              "type": "uint256"
            },
            {
              "internalType": "uint256",
              "name": "noAmount",
              "type": "uint256"
            }
          ],
          "internalType": "struct WeRgame.OrderbookLiquidityRow[]",
          "name": "rows",
          "type": "tuple[]"
        }
      ],
      "name": "batchAddOrderbookLiquidity",
      "outputs": [],
      "stateMutability": "nonpayable",
      "type": "function"
    },
    {
      "inputs": [
        {
          "internalType": "uint256",
          "name": "marketId",
          "type": "uint256"
        },
        {
          "components": [
            {
              "internalType": "address",
              "name": "user",
              "type": "address"
            },
            {
              "internalType": "string",
              "name": "positionKey",
              "type": "string"
            },
            {
              "internalType": "int256",
              "name": "vaultDelta",
              "type": "int256"
            },
            {
              "internalType": "int256",
              "name": "sharesDelta",
              "type": "int256"
            },
            {
              "internalType": "int256",
              "name": "investedDelta",
              "type": "int256"
            }
          ],
          "internalType": "struct WeRgame.OrderbookSettlementLeg[]",
          "name": "legs",
          "type": "tuple[]"
        },
        {
          "internalType": "uint256",
          "name": "feeToClaimPool",
          "type": "uint256"
        },
        {
          "internalType": "uint256",
          "name": "feeToJackpotPool",
          "type": "uint256"
        }
      ],
      "name": "applyOrderbookSettlements",
      "outputs": [],
      "stateMutability": "nonpayable",
      "type": "function"
    },
    {
      "inputs": [
        {
          "internalType": "uint256",
          "name": "marketId",
          "type": "uint256"
        },
        {
          "components": [
            {
              "internalType": "address",
              "name": "user",
              "type": "address"
            },
            {
              "internalType": "string",
              "name": "positionKey",
              "type": "string"
            },
            {
              "internalType": "int256",
              "name": "vaultDelta",
              "type": "int256"
            },
            {
              "internalType": "int256",
              "name": "sharesDelta",
              "type": "int256"
            },
            {
              "internalType": "int256",
              "name": "investedDelta",
              "type": "int256"
            }
          ],
          "internalType": "struct WeRgame.OrderbookSettlementLeg[]",
          "name": "legs",
          "type": "tuple[]"
        },
        {
          "internalType": "uint256",
          "name": "collateralToClaimPool",
          "type": "uint256"
        }
      ],
      "name": "finalizeResolvedMarketSettlements",
      "outputs": [],
      "stateMutability": "nonpayable",
      "type": "function"
    },
    {
      "inputs": [],
      "name": "getTreasurySnapshot",
      "outputs": [
        {
          "internalType": "uint256",
          "name": "usdcBalance",
          "type": "uint256"
        },
        {
          "internalType": "uint256",
          "name": "claimPoolBalance",
          "type": "uint256"
        },
        {
          "internalType": "uint256",
          "name": "jackpotPoolBalance",
          "type": "uint256"
        },
        {
          "internalType": "uint256",
          "name": "tradingVaultLiabilities",
          "type": "uint256"
        },
        {
          "internalType": "uint256",
          "name": "maxRoutineTransfer",
          "type": "uint256"
        }
      ],
      "stateMutability": "view",
      "type": "function"
    },
    {
      "inputs": [
        {
          "internalType": "uint256",
          "name": "marketId",
          "type": "uint256"
        },
        {
          "internalType": "uint256",
          "name": "amount",
          "type": "uint256"
        },
        {
          "internalType": "string",
          "name": "positionKey",
          "type": "string"
        },
        {
          "internalType": "bytes32",
          "name": "predictionId",
          "type": "bytes32"
        },
        {
          "internalType": "uint256",
          "name": "deadline",
          "type": "uint256"
        },
        {
          "internalType": "bytes",
          "name": "signature",
          "type": "bytes"
        }
      ],
      "name": "claimOrderbookPositionWithAuth",
      "outputs": [],
      "stateMutability": "nonpayable",
      "type": "function"
    }
  ],
  "bytecode": "0x60a034620001b857601f6200559938819003918201601f19168301916001600160401b03831184841017620001bc57808492602094604052833981010312620001b857516001600160a01b03811690819003620001b85760017f9b779b17422d0df92223018b32b4d1fa46e071723d6817e2486d003becc55f005580156200017e5760018060a01b03199033825f5416175f5533826001541617600155335f52600260205260405f20600160ff198254161790556080526103e86003556101f480600455806005556006556001600e55339060115416176011556040516153c89081620001d1823960805181818161051f01528181610717015281816109ba01528181610bbf015281816112450152818161131c015281816117c3015281816118f901528181611a9801528181611c3501528181611cf7015281816124ff0152818161286101528181612a2801528181612ba301528181613200015281816132c2015281816133b401528181613631015281816138c70152613ce10152f35b60405162461bcd60e51b815260206004820152601260248201527124b73b30b634b2102aa9a221903a37b5b2b760711b6044820152606490fd5b5f80fd5b634e487b7160e01b5f52604160045260245ffdfe604060808152600480361015610013575f80fd5b5f3560e01c8063012e293814613dc8578063019d669414610a415780630325bbe814613daa578063033a7e0614613c1d57806305d45d5f14613b815780630cd83c6e14613b5457806312497adb14613b365780631570005214613adc57806318bb1f2914613a515780631d38461c146139f157806326232a2e146139d3578063277c02aa1461397157806329575f6a146139495780632b96b6ae1461369c5780632e82ff04146136025780632fd09b6f146135d5578063307e2e61146135b75780633577392e14613557578063392a9094146133095780633a08ff3b146132545780633d165aaa1461322f5780633e413bee146131ec5780633ed72408146130df578063406ef2ef146130c1578063429b62e51461308557806348d0eca214612fc15780634b0bddd214612f595780635776558214612f345780636523acf414612ef4578063663370c114612ed75780636742775014612cb15780636822d823146123a4578063698d2d7614612c7a5780636a4d9a0c14612c1a5780636f9fb98a14612b755780636fcba37714612a625780637a73103d146129c8578063814fb790146129a3578063990dc9db146127f75780639ef69e8c146127ca5780639f1d024614612523578063a2ddbca51461245e578063ad21a669146123db578063b00e0395146123a4578063b05b32ae14612386578063b1283e77146122d7578063b3e60a2614612264578063b3eb525314612224578063b5f3d19c14611f93578063b8f8f2ca14611c65578063bd0237b114611b8c578063c01744e9146119c6578063c08e7c71146118cb578063c1730ee11461182e578063c20499ff146116b1578063c75bb724146114ef578063ce1ea42b1461147f578063d437441e14611461578063d5f394881461143a578063d81168b0146112b9578063db83112714611131578063db8d55f1146110f2578063dcc8dee914611092578063dd7544481461106a578063df1aa90514610d36578063e44da3af14610d09578063e981012314610cdc578063ecf7137d14610ca5578063ef9f8d2614610a81578063f87dd74b14610a41578063f95d530b1461088c578063fb5bdd49146106425763fbf91a141461033e575f80fd5b3461063e5761034c3661405b565b825f94929452602060078152610366865f2054151561436a565b61036e614e25565b835f5260078152855f20906103a060ff600184015460081c1661039081614311565b801590811561062a575b506145ae565b845f5260098152865f20335f5281526103bb875f2087614175565b80549091906103d4906001600160a01b03163314614da3565b60028201926103e68585541015614de3565b60058101805490919080156105fd57610402600383018b614175565b54612710908181029181830414901517156105ea576104276127109261042d92614601565b886145ee565b049660038201918861043f848d614175565b54106105a75781019387610453868d614175565b54106105655750508899936104b861054f96946104fb946104986003957f2136d4ee254f7d800aae52b9b653ccd229ae15988bf2d1371a31db50132a69e99d9e614175565b6104a38c8254614541565b90556104b08b8254614541565b90558c614175565b6104c3888254614541565b90556104d0878554614541565b80945501916104f58354916104ef886104e9858c6145ee565b9261466b565b90614601565b90614541565b905561051584601054610510828210156144f5565b614541565b60105561054384337f0000000000000000000000000000000000000000000000000000000000000000614e54565b51928392339784614c6b565b0390a360015f8051602061537383398151915255005b8b5162461bcd60e51b815291820152601a60248201527f496e73756666696369656e74206d61726b657420736861726573000000000000604482015260649150fd5b8b5162461bcd60e51b8152808301869052601d60248201527f496e73756666696369656e74206d61726b6574206c69717569646974790000006044820152606490fd5b601189634e487b7160e01b5f525260245ffd5b50600281015480156106175761042d612710918204610427565b601288634e487b7160e01b5f525260245ffd5b6001915061063781614311565b145f61039a565b5f80fd5b50903461063e576106523661405b565b92825f939293526020926007845261066e825f2054151561436a565b610676614e25565b610681851515614562565b825f5260078452815f20946001966106b760ff8989015460081c166106a581614311565b898115918215610878575b50506145ae565b875f60025f99018054995b8a8110610828575b50508798506107d96107d16107f595897f9af5caefb8cea3d0910b8a9636232b856d7fadb93249d5b0bfbeab7c38f792169a9b98966107e49661070f61051097614c2d565b61073b8430337f0000000000000000000000000000000000000000000000000000000000000000614ed2565b610767612710948561074f600354836145ee565b0498899661075e8654846145ee565b04998a92614541565b9a8b9361077585151561461f565b5f52600881528c5f2090335f52528d6107908d5f208b614175565b80549092906001600160a01b03166108105782546001600160a01b031916331783558201556107c28960028301614ada565b82600382015501555b8761466b565b60105461466b565b601055600f5461466b565b600f558351938085528401906140b2565b948201528033940390a35f8051602061537383398151915255005b50509091500161082189825461466b565b90556107cb565b61084461084b6108388385614ac5565b508a51928380926141d3565b0382613f7c565b8a815191012087518b890120146108635783016106c2565b509798508897508190506107d96107d16106ca565b90915061088481614311565b14895f6106b0565b50903461063e5761089c36614000565b815f93929352602093600785526108b7835f2054151561436a565b6108bf614e25565b835f526007855261090260076108f0855f206108e160ff6006830154166143ae565b610844875180948193016141d3565b868151910120835187850120146143f0565b835f5260098552825f20335f528552600261091f845f2084614175565b8054610935906001600160a01b03163314614da3565b015415610a095750907fb293892389f4a468a51fa597d7cd2627d3fa920ae52f4843616707f64a80417691835f52600a8552815f20335f5285526109ec825f2054916109828315156144b2565b6109908360105410156144f5565b855f52600a8752835f20335f5287525f848120556109b083601054614541565b6010556109de83337f0000000000000000000000000000000000000000000000000000000000000000614e54565b8351938085528401906140b2565b948201528033940390a360015f8051602061537383398151915255005b825162461bcd60e51b815290810185905260126024820152714e6f2073686172657320746f20636c61696d60701b6044820152606490fd5b50903461063e578060031936011261063e57602091610a5e61402f565b90355f52600a8352815f209060018060a01b03165f528252805f20549051908152f35b50903461063e578060031936011261063e577fa3097d366dbda72a300109ce4eb4df25c8b2709e0b539bcfaf91102fff0e8174826007933592610ac26142eb565b91845f52602092868452610ada835f2054151561436a565b610ae2614e25565b855f52868452610b14835f20610afe60ff6006830154166143ae565b610b0d8551809a8193016141d3565b0388613f7c565b15610c1857600590855f52600b8452825f20335f528452610b56835f205497610b3e8915156144b2565b875f5260088652845f20335f528652845f2090614175565b903360018060a01b03835416149081610c0b575b5080610bfd575b610b7a90614d63565b610b888760105410156144f5565b5f868152600b855283812033825285528381205501805460ff191660011790555b610bb585601054614541565b601055610be385337f0000000000000000000000000000000000000000000000000000000000000000614e54565b519384523393a360015f8051602061537383398151915255005b508082015460ff1615610b71565b905081015415155f610b6a565b50835f52600c8252805f20335f528252610c70610c56825f205496610c3e8815156144b2565b865f5260098552835f20335f528552835f2090614175565b80546001600160a01b031633149081610c97575b50614d63565b610c7e8560105410156144f5565b835f52600c8252805f20335f5282525f81812055610ba9565b60029150015415155f610c6a565b823461063e57602036600319011261063e576020906001600160a01b03610cca614045565b165f5260148252805f20549051908152f35b50903461063e57602036600319011261063e57602091355f526017825260ff815f20541690519015158152f35b50903461063e57602036600319011261063e57602091355f526016825260ff815f20541690519015158152f35b503461063e5760c036600319011261063e57803590610d536142eb565b9260443593606435926084359060a4356001600160401b03811161063e5784938891610d82903690850161428e565b9790895f5260209860078a52875f20541515610d9d9061436a565b610da5614e25565b8a8a600160a01b60019003988995866011541698891515610dc59061472b565b82421115610dd29061476e565b610ddd8115156147a4565b8c51948486013360601b9687825284603482015260348152610dfe81613f61565b5190209d8e5f5260128652805f205460ff1615610e1a90614474565b51948501958652603485015288151560f81b60548501526055840152607583015260958201524660b58201523060601b60d582015260c98152610e5c81613f31565b51902091610e6992614f3c565b16801515600793610e819282611060575b50506147de565b875f52818752610eb3865f20610e9d60ff6006830154166143ae565b610eac885180958193016141d3565b0383613f7c565b15610fac57610ed490875f5260088752855f20335f528752855f2090614175565b9133908354161480610fa0575b80610f91575b15610f4e5750600501805460ff191660011790557fa3097d366dbda72a300109ce4eb4df25c8b2709e0b539bcfaf91102fff0e81749291905b610f2e8660105410156144f5565b5f5260128252805f20600160ff19825416179055610bb585601054614541565b835162461bcd60e51b8152908101859052601760248201527f4e6f74206120626f6f7374207061727469636970616e740000000000000000006044820152606490fd5b5060ff60058301541615610ee7565b50808201541515610ee1565b610fc890875f5260098752855f20335f528752855f2090614175565b9133908354161480611053575b156110105750905f6003838260027fa3097d366dbda72a300109ce4eb4df25c8b2709e0b539bcfaf91102fff0e817498979601550155610f20565b835162461bcd60e51b8152908101859052601860248201527f4e6f742061206d61726b6574207061727469636970616e7400000000000000006044820152606490fd5b5060028201541515610fd5565b1490505f80610e7a565b823461063e575f36600319011261063e5760115490516001600160a01b039091168152602090f35b823461063e576110a136614264565b5f549093926001600160a01b03918216331480156110db575b6110c3906146f2565b5f52600a602052825f2091165f526020525f20555f80f35b50335f90815260026020528490205460ff166110ba565b503461063e575f36600319011261063e5760035490546005546006549351928352602083019190915260408201526060810191909152608090f35b0390f35b50903461063e576111413661432f565b9061114e96939496614e25565b6011546001600160a01b039081169490939061116b86151561472b565b6111778242111561476e565b6111828915156147a4565b865f52601360205261119a60ff895f20541615614c8d565b87519060208201923360601b84528a603484015288605484015260748301524660948301523060601b60b483015260a8825260e08201908282106001600160401b038311176112a65750885251902061120c9493926111fa929091614f3c565b169081151591826110605750506147de565b61121a83600f541015614d17565b5f526013602052805f20600160ff1982541617905561123b82600f54614541565b600f5561126982337f0000000000000000000000000000000000000000000000000000000000000000614e54565b519081527fd40b323ed8b019a73e488040e2e991ed6218cbfa9561673125581fc37780918760203392a260015f8051602061537383398151915255005b604190634e487b7160e01b5f525260245ffd5b503461063e5760208060031936011261063e5760246112d6614045565b6001546001600160a01b0391829182163314801561142e575b6112f8906148c3565b611300614e25565b169361130d8515156149e2565b61131930861415614a22565b837f0000000000000000000000000000000000000000000000000000000000000000928751948580926370a0823160e01b8252308683015286165afa928315611424575f936113f5575b5082156113bd5750936113a582857ff4dce203c8f4eb3095854b1c66cbc121ab60692c57b36989ec635f685dfc53aa96975f6010555f600f555f601555614e54565b51908152a260015f8051602061537383398151915255005b855162461bcd60e51b815290810184905260126024820152714e6f205553444320746f206d69677261746560701b6044820152606490fd5b9092508381813d831161141d575b61140d8183613f7c565b8101031261063e5751915f611363565b503d611403565b86513d5f823e3d90fd5b505f54821633146112ef565b823461063e575f36600319011261063e575f5490516001600160a01b039091168152602090f35b823461063e575f36600319011261063e576020906006549051908152f35b503461063e57602036600319011261063e57359061149b614e25565b6114a6821515614562565b6114b482600f541015614d17565b335f52600d6020526114cb82825f20541015614a6e565b335f52600d602052805f206114e1838254614541565b905561123b82600f54614541565b503461063e576114fe36614000565b91909260018060a01b035f54163314801561169a575b61151d906146f2565b835f5260209160078352611535825f2054151561436a565b845f5260078352815f2090600180830191825491600360ff8460081c1661155b81614311565b14611664575f905f600287018054915b828110611622575b50505050156115e6575061ff00191661030017905560068101805460ff191660011790557f2ec1f84b4079525f1ab2216f53a16f520efec75c91c517667151e55bbea7b9ec9392916115e1916115cc8560078301614ada565b600942910155519282849384528301906140b2565b0390a2005b845162461bcd60e51b8152908101869052601660248201527524b73b30b634b2103bb4b73734b7339037b83a34b7b760511b6044820152606490fd5b61084461163e6116328385614ac5565b508c51928380926141d3565b8051908c01208c518d8d01201461165657830161156b565b50505090505f808080611573565b855162461bcd60e51b8152808301889052601060248201526f105b1c9958591e481c995cdbdb1d995960821b6044820152606490fd5b50335f90815260026020528190205460ff16611514565b823461063e5761177e9061176c6116c73661432f565b6116d79794979591929395614e25565b6011546001600160a01b03908116949093906116f486151561472b565b6117008142111561476e565b61170b8a15156147a4565b875f52601660205261172360ff8a5f20541615614c8d565b885160208101913360601b83528b603483015289605483015260748201524660948201523060601b60b4820152600160c882015260c8815261176481613f31565b519020614f3c565b169081151591826118245750506147de565b335f52601460205261179583835f20541015614cc6565b5f526016602052805f20600160ff198254161790556117bc6117b683614d07565b33614f9f565b6117e782337f0000000000000000000000000000000000000000000000000000000000000000614e54565b519081527fc806a53d83b50a9163d7117c35333b998202cee5dffd5dea16a45f725f26c26e60203392a260015f8051602061537383398151915255005b1490508580610e7a565b50903461063e576118679161184236614133565b9094915f526008602052835f2060018060a01b038096165f52602052835f2090614175565b92835416916001840154936118b582516118888161084481600287016141d3565b60c060ff6005600386015497860154950154169480519889988952602089015287015260c08601906140b2565b9260608501526080840152151560a08301520390f35b50903461063e575f36600319011261063e5780516370a0823160e01b815230928101929092526020826024817f00000000000000000000000000000000000000000000000000000000000000006001600160a01b03165afa9081156119bd575f91611988575b60a0925060105490600f54601554916119538361194e848761466b565b61466b565b80861115611980576119659086614541565b935b8151958652602086015284015260608301526080820152f35b505f93611967565b90506020823d6020116119b5575b816119a360209383613f7c565b8101031261063e5760a0915190611931565b3d9150611996565b513d5f823e3d90fd5b823461063e576119d53661405b565b9260018060a01b035f541633148015611b75575b6119f2906146f2565b825f526020936007602052611a0b825f2054151561436a565b611a16811515614562565b835f526007602052815f206001611a4960ff600184015460081c16611a3a81614311565b8015908115611b6157506145ae565b5f965f90600284018054925b838110611b02575b5050505050600590611a907faa83f946898046e98d04323d1f949f879cd43a774cb0981f1025ce3caa9afc8c9697614886565b611abc8330337f0000000000000000000000000000000000000000000000000000000000000000614ed2565b611ac96003820186614175565b611ad484825461466b565b905501611ae282825461466b565b9055611af782519383859485528401906140b2565b9060208301520390a2005b610844611b126108388385614ac5565b8381519101208951848b012014611b2a578401611a55565b50929850839250611a9091507faa83f946898046e98d04323d1f949f879cd43a774cb0981f1025ce3caa9afc8c905060058a611a5d565b60019150611b6e81614311565b148961039a565b50335f90815260026020528190205460ff166119e9565b823461063e578060031936011261063e577f9b4720e539e7a1f0094cfce31d8cc4e3f6a63afdbe9350a2636b0edd879c83256020611bc8614045565b600154602435916001600160a01b0391821633148015611c59575b611bec906148c3565b611bf4614e25565b1693611c018515156149e2565b611c0d30861415614a22565b611c18821515614562565b611c2b8260105461051082821015614be1565b6010556113a582867f0000000000000000000000000000000000000000000000000000000000000000614e54565b505f5482163314611be3565b503461063e57611c743661405b565b825f9392935260209460078652611c8f815f2054151561436a565b611c97614e25565b611ca2821515614562565b825f5260078652805f2091600196611cc660ff8986015460081c166106a581614311565b5f965f9460028101958a8754915b828110611f5b575b505050611cef611d499596979899614c2d565b611d1b8430337f0000000000000000000000000000000000000000000000000000000000000000614ed2565b6127109687611d2c600554876145ee565b049586956105108a611d40600654846145ee565b04988992614541565b978815611f185760058301805490928115611ef45750611d6c600385018d614175565b5482810290808204841490151715611ee15790611d8891614601565b905b808a02908a820403611ece5794611e067f65b9cf5504284839513abe58c29b419750bf6617216734ca4c0aa61a06c717849a9895611e6c956107d1958f9c99611dda611e829c97611de592614601565b9d6003840190614175565b611df08d825461466b565b9055611dfd8c825461466b565b9055018d614175565b611e118a825461466b565b90558a5f5260098152855f2090335f52526003611e30865f208d614175565b80548d8f6001600160a01b03831615611eab575b50505060028101611e568b825461466b565b905501611e6488825461466b565b90558661466b565b60105580611e96575b5051928392339784614c6b565b0390a35f8051602061537383398151915255005b611ea290600f5461466b565b600f555f611e75565b6001600160a01b031990921633178355611ec6918301614ada565b5f8d8f611e44565b601185634e487b7160e01b5f525260245ffd5b601186634e487b7160e01b5f525260245ffd5b9050548015611f0557810490611d8a565b601285634e487b7160e01b5f525260245ffd5b875162461bcd60e51b8152808501869052601b60248201527f416d6f756e7420746f6f20736d616c6c206166746572206665657300000000006044820152606490fd5b610844611f6b610838838c614ac5565b8681519101208b51878d012014611f8457018b90611cd4565b509950611cef90508a5f611cdc565b503461063e57608090608060031936011261063e578035926024356001600160401b03811161063e57611fc990369084016142bb565b5f549094606435946044359390926001600160a01b03929083163314801561220d575b611ff5906146f2565b885f526020600760205261200d875f2054151561436a565b612015614e25565b895f52600760205260019261203960ff60018a5f20015460081c1661039081614311565b5f945f5b8b8d8b82841061211b578d83918d8d6120608e61205a868561466b565b9061496f565b6120e15750917ff16f569f7fb6cac6c3cb740184f9b94cf82d3b473d2f1156c0c3628bedd4982b9391836060946120cd575b826120b9575b81519384526020840152820152a260015f8051602061537383398151915255005b6120c583600f5461466b565b600f55612098565b6120d98160105461466b565b601055612092565b606490602084519162461bcd60e51b83528201526014602482015273536574746c656d656e7420696d62616c616e636560601b6044820152fd5b9185879261217261215f9c879661213c6121378f9a8888614901565b614923565b9e8f61214b8c82161515614937565b826121578b8a8a614901565b013590614f9f565b61216a888787614901565b01359061496f565b9b8560608c81612183848989614901565b0135158015906121f7575b6121a1575b50505050505050500161203d565b6121d9836121c36121e99a6121ba6121e3978c8c614901565b90810190614854565b9990946121d183838c614901565b013598614901565b0135953691613f9d565b916150ea565b848d8f86905f85818c612193565b5080612204848989614901565b0135151561218e565b50335f90815260026020528690205460ff16611fec565b50903461063e578060031936011261063e5760209161224161402f565b90355f52600b8352815f209060018060a01b03165f528252805f20549051908152f35b503461063e576060916122b860ff600561227d36614133565b909491805f526007602052612296875f2054151561436a565b5f526008602052855f2060018060a01b038096165f52602052855f2090614175565b9283541694830154920154169082519384526020840152151590820152f35b50903461063e57602036600319011261063e5760ff91355f526007602052805f20805491612377600183015493858560081c1690600585015487600687015416908551936123338561232c8160078c016141d3565b0386613f7c565b600960088901549801549680519a8b9a610100968c5216151560208b015261235a82614311565b8901526060880152151560808701528060a08701528501906140b2565b9160c084015260e08301520390f35b823461063e575f36600319011261063e57602090600f549051908152f35b823461063e57602036600319011261063e576020906001600160a01b036123c9614045565b165f52600d8252805f20549051908152f35b503461063e57602036600319011261063e576123f5614045565b5f546001600160a01b03919061240e9083163314614678565b1691821561242a57601180546001600160a01b03191684179055005b906020606492519162461bcd60e51b8352820152600e60248201526d24b73b30b634b21039b4b3b732b960911b6044820152fd5b823461063e578060031936011261063e577f05388187d2d8839bf46fead5ad128385c82076ad81b57a1278382a2f77ca2444602061249a614045565b5f54602435916001600160a01b03916124b69083163314614678565b6124be614e25565b16936124cb8515156149e2565b6124d730861415614a22565b6124e2821515614562565b6124f582600f5461051082821015614be1565b600f556113a582867f0000000000000000000000000000000000000000000000000000000000000000614e54565b50903461063e578060031936011261063e578135908115159182810361063e576024928335916001600160401b039586841161063e573660238501121561063e578381013593612572856142fa565b9461257f87519687613f7c565b808652602098888a88019260051b8401019236841161063e57898101925b8484106127a457505050505060018060a01b035f54163314801561278e575b6125c5906146f2565b600284511061274c57600e54955f19871461273a57918693919492600191829160018701600e55865f5260078b52885f20918783556126146001840191829060ff801983541691151516179055565b61ff001981541690554260088301555f97600283019181600385019401945b612680575b8c898c817f41671df7de79859ef92d2dc3d0936d3890eea9d4dda0c64e7d375277f2e5e7a18c8c612677855192839283528689840152868301906140d7565b0390a251908152f35b9193959787999193959751821015612730575061269d818a614ab1565b5184546801000000000000000081101561271e5780896126c09201875586614ac5565b61270d57915f6126fc896126f0848f6126e18f9e9d9c9b9a99988f99614ada565b856126f68d6126f08585614ab1565b51614175565b55614ab1565b5501989694939291908b9896612633565b835f86634e487b7160e01b8252525ffd5b83604186634e487b7160e01b5f52525ffd5b9795899750612638565b634e487b7160e01b5f90815260118352fd5b845162461bcd60e51b8152908101879052601c818701527f4d7573742068617665206174206c656173742032206f7074696f6e73000000006044820152606490fd5b50335f908152600288528590205460ff166125bc565b833583811161063e578c916127bf83928e3691870101613fe2565b81520193019261259d565b823461063e576020906127ef6127df36614000565b905f5260198452825f2090614175565b549051908152f35b503461063e578160031936011261063e57612810614045565b60243560018060a01b038092816001541633148015612997575b612833906148c3565b61283b614e25565b16926128488415156149e2565b61285430851415614a22565b61285f821515614562565b7f000000000000000000000000000000000000000000000000000000000000000090855180946370a0823160e01b82523083830152816024602097889387165afa90811561298d575f91612960575b506128db846128ce6128c5601054600f549061466b565b6015549061466b565b9261051082821015614a6e565b1061290f5750936113a582857f8c9a4f13b67cb64d7c6aa1ae0c9bf07694af521a28b93e7060020810ab4bc59f9697614e54565b855162461bcd60e51b8152908101849052602560248201527f43616e6e6f742077697468647261772075736572206f7220706f6f6c20726573604482015264657276657360d81b6064820152608490fd5b90508481813d8311612986575b6129778183613f7c565b8101031261063e57515f6128ae565b503d61296d565b87513d5f823e3d90fd5b505f548216331461282a565b823461063e576020906127ef6129b836614000565b905f52601a8452825f2090614175565b503461063e57602036600319011261063e577f2076cd8bd7c147f4b7bb2b5e2dd0db46fb74246bc4c4e3ded824202bfff5ca57916020913590612a1560018060a01b035f54163314614678565b612a20821515614562565b612a4c8230337f0000000000000000000000000000000000000000000000000000000000000000614ed2565b612a5882600f5461466b565b600f5551908152a1005b503461063e57608036600319011261063e5780356024359160443560643591612a9560018060a01b035f54163314614678565b612710808511159081612b6a575b81612b5f575b81612b54575b5015612b1157907f16e6f67290546b8dd0e587f4b7f67d4f61932ae17ffd8c60d3509dbc05c175fe9585612b0c94938660035555816005558260065551948594859094939260609260808301968352602083015260408201520152565b0390a1005b606490602087519162461bcd60e51b8352820152601760248201527f466565732063616e6e6f742065786365656420313030250000000000000000006044820152fd5b90508311155f612aaf565b808411159150612aa9565b808711159150612aa3565b50903461063e575f36600319011261063e5780516370a0823160e01b815230928101929092526020826024817f00000000000000000000000000000000000000000000000000000000000000006001600160a01b03165afa9081156119bd575f91612be5575b6020925051908152f35b90506020823d602011612c12575b81612c0060209383613f7c565b8101031261063e576020915190612bdb565b3d9150612bf3565b823461063e57612c2936614264565b5f549093926001600160a01b0391821633148015612c63575b612c4b906146f2565b5f52600c602052825f2091165f526020525f20555f80f35b50335f90815260026020528490205460ff16612c42565b823461063e57602090612caa612c8f36614000565b90805f5260078552612ca5845f2054151561436a565b61498a565b9051908152f35b503461063e57606091606060031936011261063e578135926024356001600160401b03811161063e57612ce790369085016142bb565b5f5490946044359390926001600160a01b0392831633148015612ec0575b91889391612d1387946146f2565b845f526020926007602052612d2c895f2054151561436a565b612d34614e25565b855f526007602052612d4e60ff60068b5f200154166143ae565b5f935f5b8a8c808310612e07578991898c612d69828c61496f565b612dcf5750915f606092847ff16f569f7fb6cac6c3cb740184f9b94cf82d3b473d2f1156c0c3628bedd4982b95612dbb5781519384526020840152820152a260015f8051602061537383398151915255005b612dc78160105461466b565b601055612098565b606490602084519162461bcd60e51b8352820152601260248201527146696e616c697a6520696d62616c616e636560701b6044820152fd5b90919294600194969850612e548198612e24612137878686614901565b94612e328a87161515614937565b612e4981612e41898888614901565b013587614f9f565b61216a878686614901565b9989612e61868585614901565b013515801590612ea9575b612e83575b5050505001918a959391889593612d52565b612ea0936121e38b60806121d9896121c38d6121ba838c8c614901565b5f8b868e612e71565b506080612eb7868585614901565b01351515612e6c565b50335f90815260026020528690205460ff16612d05565b50903461063e575f36600319011261063e57602091549051908152f35b50903461063e578060031936011261063e57602091612f1161402f565b90355f52600c8352815f209060018060a01b03165f528252805f20549051908152f35b823461063e576020906127ef612f4936614000565b905f52601b8452825f2090614175565b823461063e578060031936011261063e57612fbf90612f76614045565b90612f7f6142eb565b5f5490926001600160a01b0391612f999083163314614678565b16612fa58115156146b4565b5f5260026020525f209060ff801983541691151516179055565b005b503461063e578160031936011261063e578035916024359182101561063e577fd067ebf1565b7b7f7e3c08ccb7f355defc06fd6a3e5e3da1f0a43c8a235350ac9160209160018060a01b035f54163314801561306f575b613021906146f2565b845f5260078352613036815f2054151561436a565b845f52600783526001815f200161304c83614311565b805461ff001916600884901b61ff0016179055519061306a81614311565b8152a2005b50335f908152600284528190205460ff16613018565b823461063e57602036600319011261063e576020906001600160a01b036130aa614045565b165f526002825260ff815f20541690519015158152f35b823461063e575f36600319011261063e57602090600e549051908152f35b503461063e576130ee3661405b565b93909192835f528061314e6020946007865261310e855f2054151561436a565b613116614e25565b865f526007865261313660ff6001875f20015460081c1661039081614311565b865f5260088652845f20335f528652845f2090614175565b8054613164906001600160a01b03163314614432565b01908154908682106131b457509061319f867fbcbb1a32e70b3a4c7e261bf1aa686d9baefa195ed797e1225c008ae953d6f1cf959493614541565b9055610bb585601054610510828210156144f5565b835162461bcd60e51b81529081018590526012602482015271496e73756666696369656e74207374616b6560701b6044820152606490fd5b823461063e575f36600319011261063e57517f00000000000000000000000000000000000000000000000000000000000000006001600160a01b03168152602090f35b823461063e576020906127ef61324436614000565b905f5260188452825f2090614175565b503461063e57602036600319011261063e576001547f4986ef868ee9659d51f041598f943aa46a8bd02efd1912472d5990a090d373219260209235916132af90336001600160a01b03918216149081156132fc575b506148c3565b6132ba821515614562565b6132e68230337f0000000000000000000000000000000000000000000000000000000000000000614ed2565b6132f28260105461466b565b60105551908152a1005b90505f541633145f6132a9565b503461063e578160031936011261063e578035906024356001600160401b03811161063e5761333b90369083016142bb565b91909360018060a01b035f541633148015613540575b61335a906146f2565b835f5260209260078452613372825f2054151561436a565b845f526007845260019061339560ff6001855f20015460081c1661039081614311565b5f935f5b88878483106135075750505084156134d757506133d88430337f0000000000000000000000000000000000000000000000000000000000000000614ed2565b5f5b81811061340d57867f6b10a9fec29d0efd07b4aabbce21a618ccab013b141804be2f6bf1fc67c0a43087878751908152a2005b8061342d6134266134208694868d61481e565b80614854565b3691613f9d565b61343f61343a828b61507f565b614886565b8761344b83868d61481e565b01356134ac575b8184878c8161346285858461481e565b0135613474575b5050505050016133da565b6134a093613498936134859261481e565b0135928b5f5260198b52885f2090614175565b91825461466b565b90555f8184878c613469565b876134b883868d61481e565b0135895f52601889526134d0613498885f2084614175565b9055613452565b835162461bcd60e51b8152908101869052600a60248201526916995c9bc81d1bdd185b60b21b6044820152606490fd5b96613533828861352b8689819d6135238d9a836135399b61481e565b01359461481e565b01359061466b565b9061466b565b9501613399565b50335f90815260026020528190205460ff16613351565b823461063e576135a161356936614133565b91805f526007602052613580855f2054151561436a565b5f526009602052835f209060018060a01b03165f52602052825f2090614175565b6003600282015491015482519182526020820152f35b823461063e575f36600319011261063e576020906015549051908152f35b50903461063e57602036600319011261063e57602091355f526012825260ff815f20541690519015158152f35b503461063e57602036600319011261063e57359061361e614e25565b613629821515614562565b6136558230337f0000000000000000000000000000000000000000000000000000000000000000614ed2565b61365f8233614f9f565b519081527fd537095d36052e8eac258e2230bac449b49fb5f034a431d7114fdc1ab3786f4560203392a260015f8051602061537383398151915255005b50903461063e5760c036600319011261063e578135906001600160401b039060243560443583811161063e576136d5903690870161428e565b959060643560843560a43587811161063e576136f4903690860161428e565b895f526020956007875261370c895f2054151561436a565b613714614e25565b6011546001600160a01b039081169a9094906137318c151561472b565b61373d8242111561476e565b6137488a15156147a4565b8a51898101913360601b9485845289603484015260026054840152605483526080830191838310908311176112a657508f9998979694928f9192889795938f5251902097885f5260178c528d5f205460ff16156137a490614474565b8d519283928d840195865260348401528d60548401528b8b60748501378b830191607483015260948201524660b48201523060601b60d482015260e88101600390520360e881018252610108016137fb9082613f7c565b5190209161380892614f3c565b168015157f01009e1bdaf798125523e8dfa68dfc4c46e9d3eebc55e7b123757baeb46676999961383e92826110605750506147de565b885f526007855261385760ff6006895f200154166143ae565b885f5260098552865f20335f528552865f2085885180928787833787820190815203019020903390825416148061393c575b61392a575b5061389d8560105410156144f5565b5f5260178352845f20600160ff198254161790556138bd84601054614541565b6010556138eb84337f0000000000000000000000000000000000000000000000000000000000000000614e54565b8185519580875286015260608501375f606087850101528201526060813395601f80199101168101030190a360015f8051602061537383398151915255005b6003815f60028194015501555f61388e565b5060028101541515613889565b823461063e575f36600319011261063e5760015490516001600160a01b039091168152602090f35b823461063e578060031936011261063e5761398a614045565b5f546001600160a01b0391908216331480156139bc575b6139aa906146f2565b165f908152600d602052206024359055005b50335f90815260026020528390205460ff166139a1565b823461063e575f36600319011261063e576020906003549051908152f35b823461063e57613a0036614264565b5f549093926001600160a01b0391821633148015613a3a575b613a22906146f2565b5f52600b602052825f2091165f526020525f20555f80f35b50335f90815260026020528490205460ff16613a19565b823461063e57613a8990613a6436614133565b9093915f526009602052825f2060018060a01b038095165f52602052825f2090614175565b9182541690805192613aa984613aa281600185016141d3565b0385613f7c565b6003600282015491015490613acf835195869586526080602087015260808601906140b2565b9284015260608301520390f35b3461063e57602036600319011261063e57613af5614045565b5f546001600160a01b039190613b0e9083163314614678565b16613b1a8115156146b4565b6bffffffffffffffffffffffff60a01b60015416176001555f80f35b823461063e575f36600319011261063e576020906010549051908152f35b50903461063e57602036600319011261063e57602091355f526013825260ff815f20541690519015158152f35b503461063e576020908160031936011261063e5735805f5260078252613bab835f2054151561436a565b5f52600781526002825f2001918254613bc3816142fa565b93613bd083519586613f7c565b8185525f908152838120848087015b848410613bf85785518281528061112d8185018b6140d7565b60019182918751613c0d8161084481896141d3565b8152019201920191908590613bdf565b50903461063e57613c2d3661405b565b825f9492939452613c9760209360078552613c4c845f2054151561436a565b613c54614e25565b613c5f831515614562565b855f5260078552613c7f60ff6001865f20015460081c1661039081614311565b855f5260088552835f20335f528552835f2090614175565b943360018060a01b0387541603613d6e576105106107d96107d184613d5194613d057fafc28a1adb0af8d9ee797f710633dbeb0799ebb3270743a3c4a31111f1ffbc9099989730337f0000000000000000000000000000000000000000000000000000000000000000614ed2565b613d316127109283613d19600354836145ee565b04968794613d288554846145ee565b04978892614541565b9a613d3d8c151561461f565b01613d498b825461466b565b90558961466b565b600f55519384523393a360015f8051602061537383398151915255005b825162461bcd60e51b8152908101849052601660248201527527379032bc34b9ba34b73390383932b234b1ba34b7b760511b6044820152606490fd5b823461063e575f36600319011261063e576020906005549051908152f35b50903461063e57613dd836614000565b9091825f52613e4960209260078452613df5835f2054151561436a565b613dfd614e25565b845f5260078452613e316007613e1f855f206108e160ff6006830154166143ae565b858151910120825186840120146143f0565b845f5260088452825f20335f528452825f2090614175565b8054909490613e62906001600160a01b03163314614432565b600585019080825496613e7860ff891615614474565b015415613efa5750907f20e28d0ec25cd6e7b3ce931db96b9a33e940a54a32e1c0b8379e7660a2828c699291845f52600a8352815f20335f5283526001825f205496613ec58815156144b2565b613ed38860105410156144f5565b60ff1916179055835f52600a8252805f20335f5282525f81812055610bb585601054614541565b825162461bcd60e51b815290810184905260116024820152704e6f207374616b6520746f20636c61696d60781b6044820152606490fd5b61010081019081106001600160401b03821117613f4d57604052565b634e487b7160e01b5f52604160045260245ffd5b606081019081106001600160401b03821117613f4d57604052565b90601f801991011681019081106001600160401b03821117613f4d57604052565b9291926001600160401b038211613f4d5760405191613fc6601f8201601f191660200184613f7c565b82948184528183011161063e578281602093845f960137010152565b9080601f8301121561063e57816020613ffd93359101613f9d565b90565b90604060031983011261063e5760043591602435906001600160401b03821161063e57613ffd91600401613fe2565b602435906001600160a01b038216820361063e57565b600435906001600160a01b038216820361063e57565b90606060031983011261063e5760043591602435906001600160401b03821161063e5761408a91600401613fe2565b9060443590565b5f5b8381106140a25750505f910152565b8181015183820152602001614093565b906020916140cb81518092818552858086019101614091565b601f01601f1916010190565b90808251908181526020809101926020808460051b8301019501935f915b8483106141055750505050505090565b9091929394958480614123600193601f198682030187528a516140b2565b98019301930191949392906140f5565b606060031982011261063e57600435916024356001600160a01b038116810361063e5791604435906001600160401b03821161063e57613ffd91600401613fe2565b60209061418f928260405194838680955193849201614091565b82019081520301902090565b90600182811c921680156141c9575b60208310146141b557565b634e487b7160e01b5f52602260045260245ffd5b91607f16916141aa565b80545f93926141e18261419b565b918282526020936001916001811690815f146142455750600114614207575b5050505050565b90939495505f92919252835f2092845f945b83861061423157505050500101905f80808080614200565b805485870183015294019385908201614219565b60ff19168685015250505090151560051b010191505f80808080614200565b606090600319011261063e57600435906024356001600160a01b038116810361063e579060443590565b9181601f8401121561063e578235916001600160401b03831161063e576020838186019501011161063e57565b9181601f8401121561063e578235916001600160401b03831161063e576020808501948460051b01011161063e57565b60243590811515820361063e57565b6001600160401b038111613f4d5760051b60200190565b6004111561431b57565b634e487b7160e01b5f52602160045260245ffd5b90608060031983011261063e57600435916024359160443591606435906001600160401b03821161063e576143669160040161428e565b9091565b1561437157565b60405162461bcd60e51b815260206004820152601560248201527413585c9ad95d08191bd95cc81b9bdd08195e1a5cdd605a1b6044820152606490fd5b156143b557565b60405162461bcd60e51b815260206004820152601360248201527213585c9ad95d081b9bdd081c995cdbdb1d9959606a1b6044820152606490fd5b156143f757565b60405162461bcd60e51b81526020600482015260136024820152724e6f742077696e6e696e67206f7574636f6d6560681b6044820152606490fd5b1561443957565b60405162461bcd60e51b8152602060048201526013602482015272139bc81c1c99591a58dd1a5bdb88199bdd5b99606a1b6044820152606490fd5b1561447b57565b60405162461bcd60e51b815260206004820152600f60248201526e105b1c9958591e4818db185a5b5959608a1b6044820152606490fd5b156144b957565b60405162461bcd60e51b81526020600482015260146024820152734e6f20636c61696d61626c652062616c616e636560601b6044820152606490fd5b156144fc57565b60405162461bcd60e51b815260206004820152601760248201527f496e73756666696369656e7420636c61696d20706f6f6c0000000000000000006044820152606490fd5b9190820391821161454e57565b634e487b7160e01b5f52601160045260245ffd5b1561456957565b60405162461bcd60e51b815260206004820152601d60248201527f416d6f756e74206d7573742062652067726561746572207468616e20300000006044820152606490fd5b156145b557565b60405162461bcd60e51b81526020600482015260116024820152704d61726b6574206e6f742061637469766560781b6044820152606490fd5b8181029291811591840414171561454e57565b811561460b570490565b634e487b7160e01b5f52601260045260245ffd5b1561462657565b60405162461bcd60e51b815260206004820152601a60248201527f5374616b6520746f6f20736d616c6c20616674657220666565730000000000006044820152606490fd5b9190820180921161454e57565b1561467f57565b60405162461bcd60e51b815260206004820152600d60248201526c27b7363c903232b83637bcb2b960991b6044820152606490fd5b156146bb57565b60405162461bcd60e51b815260206004820152600f60248201526e496e76616c6964206164647265737360881b6044820152606490fd5b156146f957565b60405162461bcd60e51b815260206004820152600a60248201526927b7363c9030b236b4b760b11b6044820152606490fd5b1561473257565b60405162461bcd60e51b815260206004820152601460248201527310db185a5b481cda59db995c881b9bdd081cd95d60621b6044820152606490fd5b1561477557565b60405162461bcd60e51b8152602060048201526007602482015266115e1c1a5c995960ca1b6044820152606490fd5b156147ab57565b60405162461bcd60e51b815260206004820152600b60248201526a16995c9bc8185b5bdd5b9d60aa1b6044820152606490fd5b156147e557565b60405162461bcd60e51b8152602060048201526011602482015270496e76616c6964207369676e617475726560781b6044820152606490fd5b91908110156148405760051b81013590605e198136030182121561063e570190565b634e487b7160e01b5f52603260045260245ffd5b903590601e198136030182121561063e57018035906001600160401b03821161063e5760200191813603831361063e57565b1561488d57565b60405162461bcd60e51b815260206004820152600e60248201526d24b73b30b634b21037b83a34b7b760911b6044820152606490fd5b156148ca57565b60405162461bcd60e51b815260206004820152600f60248201526e27b7363c9039bab832b920b236b4b760891b6044820152606490fd5b91908110156148405760051b81013590609e198136030182121561063e570190565b356001600160a01b038116810361063e5790565b1561493e57565b60405162461bcd60e51b81526020600482015260096024820152682d32b937903ab9b2b960b91b6044820152606490fd5b9190915f838201938412911290801582169115161761454e57565b5f52600760205260405f209060058201549081156149cf5760036149b092930190614175565b54906127109182810292818404149015171561454e57613ffd91614601565b505060020154801561460b576127100490565b156149e957565b60405162461bcd60e51b8152602060048201526011602482015270125b9d985b1a59081c9958da5c1a595b9d607a1b6044820152606490fd5b15614a2957565b60405162461bcd60e51b815260206004820152601760248201527f43616e6e6f742073656e6420746f20636f6e74726163740000000000000000006044820152606490fd5b15614a7557565b60405162461bcd60e51b8152602060048201526014602482015273496e73756666696369656e742062616c616e636560601b6044820152606490fd5b80518210156148405760209160051b010190565b8054821015614840575f5260205f2001905f90565b91909182516001600160401b038111613f4d57614af7825461419b565b601f8111614b9c575b50602080601f8311600114614b3b5750819293945f92614b30575b50508160011b915f199060031b1c1916179055565b015190505f80614b1b565b90601f19831695845f5260205f20925f905b888210614b8457505083600195969710614b6c575b505050811b019055565b01515f1960f88460031b161c191690555f8080614b62565b80600185968294968601518155019501930190614b4d565b825f5260205f20601f830160051c81019160208410614bd7575b601f0160051c01905b818110614bcc5750614b00565b5f8155600101614bbf565b9091508190614bb6565b15614be857565b60405162461bcd60e51b815260206004820152601960248201527f496e73756666696369656e7420706f6f6c2062616c616e6365000000000000006044820152606490fd5b15614c3457565b60405162461bcd60e51b815260206004820152600f60248201526e496e76616c6964206f7574636f6d6560881b6044820152606490fd5b614c83604092959493956060835260608301906140b2565b9460208201520152565b15614c9457565b60405162461bcd60e51b815260206004820152600a602482015269139bdb98d9481d5cd95960b21b6044820152606490fd5b15614ccd57565b60405162461bcd60e51b8152602060048201526012602482015271125b9cdd59999a58da595b9d081d985d5b1d60721b6044820152606490fd5b600160ff1b811461454e575f0390565b15614d1e57565b60405162461bcd60e51b815260206004820152601960248201527f496e73756666696369656e74206a61636b706f7420706f6f6c000000000000006044820152606490fd5b15614d6a57565b60405162461bcd60e51b8152602060048201526011602482015270139bdd0818481c185c9d1a58da5c185b9d607a1b6044820152606490fd5b15614daa57565b60405162461bcd60e51b8152602060048201526011602482015270139bc81c1bdcda5d1a5bdb88199bdd5b99607a1b6044820152606490fd5b15614dea57565b60405162461bcd60e51b8152602060048201526013602482015272496e73756666696369656e742073686172657360681b6044820152606490fd5b5f805160206153738339815191526002815414614e425760029055565b604051633ee5aeb560e01b8152600490fd5b60405163a9059cbb60e01b5f9081526001600160a01b039384166004526024949094529260209060448180855af160015f5114811615614eb3575b8360405215614e9d57505050565b635274afe760e01b835216600482015260249150fd5b6001811516614ec957813b15153d151616614e8f565b833d5f823e3d90fd5b6040516323b872dd60e01b5f9081526001600160a01b03938416600452938316602452604494909452909160209060648180855af160015f5114811615614f26575b836040525f60605215614e9d57505050565b6001811516614ec957813b15153d151616614f14565b91614f90614f9692613ffd9460405160208101917f19457468657265756d205369676e6564204d6573736167653a0a3332000000008352603c820152603c8152614f8581613f61565b519020923691613f9d565b90615220565b9092919261525a565b905f811315614fd957614fd49160018060a01b03165f52601460205260405f20614fca82825461466b565b905560155461466b565b601555565b5f8112614fe4575050565b614fed90614d07565b9060018060a01b0316805f52601460205261500e8260405f20541015614cc6565b5f52601460205260405f20615024828254614541565b90556015549080821061503a57614fd491614541565b60405162461bcd60e51b815260206004820152601960248201527f5661756c74206c696162696c69747920756e646572666c6f77000000000000006044820152606490fd5b5f526020600760205260409160405f209260025f94018054945b8581106150aa575050505050505f90565b6108446150c66150ba8385614ac5565b508551928380926141d3565b858151910120845186860120146150df57600101615099565b505050505050600190565b9291925f52600960205260405f209260018060a01b0380921693845f5260205261511760405f2082614175565b938454928316156151f7575b5050505f8113156151c25761513d6002830191825461466b565b90555b5f82131561515b576003615157910191825461466b565b9055565b905f8112615167575050565b615172600391614d07565b9101908154908082106151885761515791614541565b60405162461bcd60e51b8152602060048201526012602482015271496e76657374656420756e646572666c6f7760701b6044820152606490fd5b5f81126151d0575b50615140565b6151d990614d07565b6151ef6002830191825461051082821015614de3565b90555f6151ca565b615218926bffffffffffffffffffffffff60a01b1617845560018401614ada565b5f8080615123565b8151919060418303615250576152499250602082015190606060408401519301515f1a906152e5565b9192909190565b50505f9160029190565b61526381614311565b8061526c575050565b61527581614311565b6001810361528f5760405163f645eedf60e01b8152600490fd5b61529881614311565b600281036152b95760405163fce698f760e01b815260048101839052602490fd5b806152c5600392614311565b146152cd5750565b602490604051906335e2f38360e21b82526004820152fd5b91907f7fffffffffffffffffffffffffffffff5d576e7357a4501ddfe92f46681b20a08411615367579160209360809260ff5f9560405194855216868401526040830152606082015282805260015afa1561535c575f516001600160a01b0381161561535257905f905f90565b505f906001905f90565b6040513d5f823e3d90fd5b5050505f916003919056fe9b779b17422d0df92223018b32b4d1fa46e071723d6817e2486d003becc55f00a2646970667358221220e58e1595c76ae0ea97cd55204e0cdf1369ab6c63ffc38cbf8f4a56b3fb90ff6964736f6c63430008180033",
  "immutableReferences": {
    "8936": [
      {
        "length": 32,
        "start": 1311
      },
      {
        "length": 32,
        "start": 1815
      },
      {
        "length": 32,
        "start": 2490
      },
      {
        "length": 32,
        "start": 3007
      },
      {
        "length": 32,
        "start": 4677
      },
      {
        "length": 32,
        "start": 4892
      },
      {
        "length": 32,
        "start": 6083
      },
      {
        "length": 32,
        "start": 6393
      },
      {
        "length": 32,
        "start": 6808
      },
      {
        "length": 32,
        "start": 7221
      },
      {
        "length": 32,
        "start": 7415
      },
      {
        "length": 32,
        "start": 9471
      },
      {
        "length": 32,
        "start": 10337
      },
      {
        "length": 32,
        "start": 10792
      },
      {
        "length": 32,
        "start": 11171
      },
      {
        "length": 32,
        "start": 12800
      },
      {
        "length": 32,
        "start": 12994
      },
      {
        "length": 32,
        "start": 13236
      },
      {
        "length": 32,
        "start": 13873
      },
      {
        "length": 32,
        "start": 14535
      },
      {
        "length": 32,
        "start": 15585
      }
    ]
  },
  "source": "// SPDX-License-Identifier: MIT\r\npragma solidity ^0.8.20;\r\n\r\nimport {IERC20} from \"@openzeppelin/contracts/token/ERC20/IERC20.sol\";\r\nimport {SafeERC20} from \"@openzeppelin/contracts/token/ERC20/utils/SafeERC20.sol\";\r\nimport {ReentrancyGuard} from \"@openzeppelin/contracts/utils/ReentrancyGuard.sol\";\r\nimport {ECDSA} from \"@openzeppelin/contracts/utils/cryptography/ECDSA.sol\";\r\n\r\n/**\r\n * @title WeRgame\r\n * @dev Comprehensive smart contract for prediction market platform\r\n * Handles market creation, trading, boost predictions, and jackpot management\r\n */\r\ncontract WeRgame is ReentrancyGuard {\r\n    using SafeERC20 for IERC20;\r\n\r\n    address public deployer;\r\n    address public superAdmin;\r\n    mapping(address => bool) public admins;\r\n\r\n    /// @notice Platform currency token (Base USDC). All pools and payouts are denominated in this token.\r\n    IERC20 public immutable usdc;\r\n    \r\n    // Fee structure (in basis points, 10000 = 100%)\r\n    uint256 public platformFee; // For boost predictions\r\n    uint256 public boostJackpotFee;\r\n    uint256 public marketPlatformFee;\r\n    uint256 public freeJackpotFee;\r\n    \r\n    // Market status enum\r\n    enum MarketStatus {\r\n        Upcoming,\r\n        Active,\r\n        Locked,\r\n        Resolved\r\n    }\r\n    \r\n    // Market structure\r\n    struct Market {\r\n        uint256 marketId;\r\n        bool isPoll; // true for poll, false for match\r\n        MarketStatus status;\r\n        string[] options; // Options/outcomes for this market\r\n        mapping(string => uint256) liquidity; // Liquidity per option\r\n        mapping(string => uint256) shares; // Total shares per option\r\n        uint256 totalLiquidity;\r\n        bool resolved;\r\n        string winningOption; // Set when resolved\r\n        uint256 createdAt;\r\n        uint256 resolvedAt;\r\n    }\r\n    \r\n    // Boost prediction structure\r\n    struct BoostPrediction {\r\n        address user;\r\n        uint256 marketId;\r\n        string outcome;\r\n        uint256 stakeAmount;\r\n        uint256 totalStake;\r\n        bool claimed;\r\n    }\r\n    \r\n    // Market trading position\r\n    struct MarketPosition {\r\n        address user;\r\n        string outcome;\r\n        uint256 shares;\r\n        uint256 totalInvested;\r\n    }\r\n    \r\n    // Mappings\r\n    mapping(uint256 => Market) public markets;\r\n    mapping(uint256 => mapping(address => mapping(string => BoostPrediction))) public boostPredictions; // marketId => user => outcome => prediction\r\n    mapping(uint256 => mapping(address => mapping(string => MarketPosition))) public marketPositions; // marketId => user => outcome => position\r\n    mapping(uint256 => mapping(address => uint256)) public claimableBalances; // marketId => user => claimable amount (legacy/total)\r\n    mapping(uint256 => mapping(address => uint256)) public claimableBoost;    // marketId => user => boost claimable\r\n    mapping(uint256 => mapping(address => uint256)) public claimableMarket;  // marketId => user => market claimable\r\n    mapping(address => uint256) public jackpotBalances; // user => jackpot balance\r\n    \r\n    uint256 public nextMarketId;\r\n    uint256 public jackpotPool;\r\n    /// @dev Pool for paying Boost and Market prediction wins; funded by deployer and by boost stakes\r\n    uint256 public claimPredictionWinsPool;\r\n\r\n    /// @notice Backend / ops wallet that signs authorized claims (set by deployer)\r\n    address public claimAuthSigner;\r\n    /// @notice Replay protection for signature-based prediction claims\r\n    mapping(bytes32 => bool) public usedAuthPredictionClaims;\r\n    /// @notice Replay protection for signature-based jackpot withdrawals\r\n    mapping(bytes32 => bool) public usedJackpotWithdrawNonces;\r\n    /// @notice USDC credited to users for orderbook trading (deposit / settlement)\r\n    mapping(address => uint256) public tradingVaultBalances;\r\n    /// @notice Sum of all tradingVaultBalances — used to prevent superAdmin draining user vault collateral\r\n    uint256 public totalTradingVaultLiabilities;\r\n    mapping(bytes32 => bool) public usedTradingVaultWithdrawNonces;\r\n    /// @notice Replay for orderbook position claims (separate from boost/market auth key space)\r\n    mapping(bytes32 => bool) public usedOrderbookClaimKeys;\r\n    /// @notice On-chain reference liquidity for YES/NO books per outcome option (USDC units)\r\n    mapping(uint256 => mapping(string => uint256)) public orderbookLiquidityYes;\r\n    mapping(uint256 => mapping(string => uint256)) public orderbookLiquidityNo;\r\n    mapping(uint256 => mapping(string => uint256)) public orderbookSharesYes;\r\n    mapping(uint256 => mapping(string => uint256)) public orderbookSharesNo;\r\n    \r\n    // Events\r\n    event MarketCreated(uint256 indexed marketId, bool isPoll, string[] options);\r\n    event MarketStatusUpdated(uint256 indexed marketId, MarketStatus status);\r\n    event MarketResolved(uint256 indexed marketId, string winningOption);\r\n    event LiquidityAdded(uint256 indexed marketId, string option, uint256 amount);\r\n    event FeesUpdated(uint256 platformFee, uint256 boostJackpotFee, uint256 marketPlatformFee, uint256 freeJackpotFee);\r\n    event BoostStaked(uint256 indexed marketId, address indexed user, string outcome, uint256 amount);\r\n    event BoostStakeAdded(uint256 indexed marketId, address indexed user, uint256 amount);\r\n    event BoostStakeWithdrawn(uint256 indexed marketId, address indexed user, uint256 amount);\r\n    event BoostClaimed(uint256 indexed marketId, address indexed user, uint256 amount);\r\n    event MarketBought(uint256 indexed marketId, address indexed user, string outcome, uint256 ethAmount, uint256 shares);\r\n    event MarketSold(uint256 indexed marketId, address indexed user, string outcome, uint256 shares, uint256 ethAmount);\r\n    event MarketClaimed(uint256 indexed marketId, address indexed user, string outcome, uint256 amount);\r\n    event JackpotFunded(uint256 amount);\r\n    event JackpotWithdrawn(address indexed user, uint256 amount);\r\n    event JackpotPoolWithdrawn(address indexed to, uint256 amount);\r\n    event FundsTransferred(address indexed to, uint256 amount);\r\n    event ClaimPredictionWinsPoolFunded(uint256 amount);\r\n    event ClaimPredictionWinsPoolWithdrawn(address indexed to, uint256 amount);\r\n    event PredictionWinsClaimed(uint256 indexed marketId, address indexed user, uint256 amount);\r\n    event TradingVaultDeposited(address indexed user, uint256 amount);\r\n    event TradingVaultWithdrawn(address indexed user, uint256 amount);\r\n    event OrderbookLiquidityBatchAdded(uint256 indexed marketId, uint256 totalAmount);\r\n    event OrderbookSettlementsApplied(\r\n        uint256 indexed marketId,\r\n        uint256 legs,\r\n        uint256 feeToClaimPool,\r\n        uint256 feeToJackpotPool\r\n    );\r\n    event OrderbookPositionClaimed(uint256 indexed marketId, address indexed user, string positionKey, uint256 amount);\r\n    event ContractMigratedForUpgrade(address indexed to, uint256 amount);\r\n    \r\n    modifier onlyDeployer() {\r\n        require(msg.sender == deployer, \"Only deployer\");\r\n        _;\r\n    }\r\n    \r\n    modifier onlySuperAdmin() {\r\n        require(msg.sender == superAdmin || msg.sender == deployer, \"Only superAdmin\");\r\n        _;\r\n    }\r\n\r\n    modifier onlyAdmin() {\r\n        require(msg.sender == deployer || admins[msg.sender], \"Only admin\");\r\n        _;\r\n    }\r\n    \r\n    modifier validMarket(uint256 marketId) {\r\n        require(markets[marketId].marketId != 0, \"Market does not exist\");\r\n        _;\r\n    }\r\n\r\n    function _marketHasOption(uint256 marketId, string memory option) internal view returns (bool) {\r\n        Market storage market = markets[marketId];\r\n        for (uint256 i = 0; i < market.options.length; i++) {\r\n            if (keccak256(bytes(market.options[i])) == keccak256(bytes(option))) {\r\n                return true;\r\n            }\r\n        }\r\n        return false;\r\n    }\r\n\r\n    function _applyVaultDelta(address user, int256 delta) internal {\r\n        if (delta > 0) {\r\n            tradingVaultBalances[user] += uint256(delta);\r\n            totalTradingVaultLiabilities += uint256(delta);\r\n        } else if (delta < 0) {\r\n            uint256 dec = uint256(-delta);\r\n            require(tradingVaultBalances[user] >= dec, \"Insufficient vault\");\r\n            tradingVaultBalances[user] -= dec;\r\n            require(totalTradingVaultLiabilities >= dec, \"Vault liability underflow\");\r\n            totalTradingVaultLiabilities -= dec;\r\n        }\r\n    }\r\n\r\n    function _applyShareDelta(uint256 marketId, address user, string memory positionKey, int256 sharesDelta, int256 investedDelta) internal {\r\n        MarketPosition storage position = marketPositions[marketId][user][positionKey];\r\n        if (position.user == address(0)) {\r\n            position.user = user;\r\n            position.outcome = positionKey;\r\n        }\r\n        if (sharesDelta > 0) {\r\n            position.shares += uint256(sharesDelta);\r\n        } else if (sharesDelta < 0) {\r\n            uint256 dec = uint256(-sharesDelta);\r\n            require(position.shares >= dec, \"Insufficient shares\");\r\n            position.shares -= dec;\r\n        }\r\n        if (investedDelta > 0) {\r\n            position.totalInvested += uint256(investedDelta);\r\n        } else if (investedDelta < 0) {\r\n            uint256 dec2 = uint256(-investedDelta);\r\n            require(position.totalInvested >= dec2, \"Invested underflow\");\r\n            position.totalInvested -= dec2;\r\n        }\r\n    }\r\n    \r\n    /// @dev EIP-191 personal_sign over keccak256(abi.encodePacked(...fields...))\r\n    function _recoverAuthSigner(bytes32 messageHash, bytes calldata signature) internal pure returns (address) {\r\n        bytes32 ethSigned = keccak256(abi.encodePacked(\"\\x19Ethereum Signed Message:\\n32\", messageHash));\r\n        return ECDSA.recover(ethSigned, signature);\r\n    }\r\n    \r\n    constructor(address usdcToken) {\r\n        require(usdcToken != address(0), \"Invalid USDC token\");\r\n        deployer = msg.sender;\r\n        superAdmin = msg.sender;\r\n        admins[msg.sender] = true;\r\n        usdc = IERC20(usdcToken);\r\n        \r\n        // Default fees (in basis points: 1000 = 10%, 500 = 5%)\r\n        platformFee = 1000; // 10%\r\n        boostJackpotFee = 500; // 5%\r\n        marketPlatformFee = 500; // 5%\r\n        freeJackpotFee = 500; // 5%\r\n        \r\n        nextMarketId = 1;\r\n        // Default to deployer; change with setClaimAuthSigner if backend uses a dedicated ops key.\r\n        claimAuthSigner = msg.sender;\r\n    }\r\n    \r\n    /**\r\n     * @dev Create a new market (match or poll)\r\n     * @param isPoll true if poll, false if match\r\n     * @param options array of outcome options\r\n     */\r\n    function createMarket(bool isPoll, string[] memory options) external onlyAdmin returns (uint256) {\r\n        require(options.length >= 2, \"Must have at least 2 options\");\r\n        \r\n        uint256 marketId = nextMarketId++;\r\n        Market storage market = markets[marketId];\r\n        market.marketId = marketId;\r\n        market.isPoll = isPoll;\r\n        market.status = MarketStatus.Upcoming;\r\n        market.createdAt = block.timestamp;\r\n        \r\n        // Initialize options\r\n        for (uint256 i = 0; i < options.length; i++) {\r\n            market.options.push(options[i]);\r\n            market.liquidity[options[i]] = 0;\r\n            market.shares[options[i]] = 0;\r\n        }\r\n        \r\n        emit MarketCreated(marketId, isPoll, options);\r\n        return marketId;\r\n    }\r\n    \r\n    /**\r\n     * @dev Update market status\r\n     */\r\n    function updateMarketStatus(uint256 marketId, MarketStatus status) external onlyAdmin validMarket(marketId) {\r\n        markets[marketId].status = status;\r\n        emit MarketStatusUpdated(marketId, status);\r\n    }\r\n    \r\n    /**\r\n     * @dev Add initial liquidity to a market option\r\n     */\r\n    function addLiquidity(uint256 marketId, string memory option, uint256 amount) external onlyAdmin validMarket(marketId) {\r\n        require(amount > 0, \"Amount must be greater than 0\");\r\n        \r\n        Market storage market = markets[marketId];\r\n        require(market.status == MarketStatus.Upcoming || market.status == MarketStatus.Active, \"Market not active\");\r\n        \r\n        // Verify option exists\r\n        bool optionExists = false;\r\n        for (uint256 i = 0; i < market.options.length; i++) {\r\n            if (keccak256(bytes(market.options[i])) == keccak256(bytes(option))) {\r\n                optionExists = true;\r\n                break;\r\n            }\r\n        }\r\n        require(optionExists, \"Invalid option\");\r\n        \r\n        usdc.safeTransferFrom(msg.sender, address(this), amount);\r\n\r\n        market.liquidity[option] += amount;\r\n        market.totalLiquidity += amount;\r\n        \r\n        emit LiquidityAdded(marketId, option, amount);\r\n    }\r\n    \r\n    /**\r\n     * @dev Resolve a market\r\n     */\r\n    function resolveMarket(uint256 marketId, string memory winningOption) external onlyAdmin validMarket(marketId) {\r\n        Market storage market = markets[marketId];\r\n        require(market.status != MarketStatus.Resolved, \"Already resolved\");\r\n        \r\n        // Verify option exists\r\n        bool optionExists = false;\r\n        for (uint256 i = 0; i < market.options.length; i++) {\r\n            if (keccak256(bytes(market.options[i])) == keccak256(bytes(winningOption))) {\r\n                optionExists = true;\r\n                break;\r\n            }\r\n        }\r\n        require(optionExists, \"Invalid winning option\");\r\n        \r\n        market.status = MarketStatus.Resolved;\r\n        market.resolved = true;\r\n        market.winningOption = winningOption;\r\n        market.resolvedAt = block.timestamp;\r\n        \r\n        emit MarketResolved(marketId, winningOption);\r\n    }\r\n    \r\n    /**\r\n     * @dev Set fees (in basis points)\r\n     */\r\n    /**\r\n     * @dev Set wallet whose signatures authorize user claims (off-chain payout amount). Use the same key as CLAIM_AUTH_PRIVATE_KEY on the API.\r\n     */\r\n    function setClaimAuthSigner(address signer) external onlyDeployer {\r\n        require(signer != address(0), \"Invalid signer\");\r\n        claimAuthSigner = signer;\r\n    }\r\n    \r\n    function setFees(\r\n        uint256 _platformFee,\r\n        uint256 _boostJackpotFee,\r\n        uint256 _marketPlatformFee,\r\n        uint256 _freeJackpotFee\r\n    ) external onlyDeployer {\r\n        require(_platformFee <= 10000 && _boostJackpotFee <= 10000 && \r\n                _marketPlatformFee <= 10000 && _freeJackpotFee <= 10000, \"Fees cannot exceed 100%\");\r\n        \r\n        platformFee = _platformFee;\r\n        boostJackpotFee = _boostJackpotFee;\r\n        marketPlatformFee = _marketPlatformFee;\r\n        freeJackpotFee = _freeJackpotFee;\r\n        \r\n        emit FeesUpdated(_platformFee, _boostJackpotFee, _marketPlatformFee, _freeJackpotFee);\r\n    }\r\n    \r\n    /**\r\n     * @dev Get current fees\r\n     */\r\n    function getFees() external view returns (\r\n        uint256 _platformFee,\r\n        uint256 _boostJackpotFee,\r\n        uint256 _marketPlatformFee,\r\n        uint256 _freeJackpotFee\r\n    ) {\r\n        return (platformFee, boostJackpotFee, marketPlatformFee, freeJackpotFee);\r\n    }\r\n    \r\n    /**\r\n     * @dev Get options for a market (so frontend can validate outcome before staking)\r\n     */\r\n    function getMarketOptions(uint256 marketId) external view validMarket(marketId) returns (string[] memory) {\r\n        return markets[marketId].options;\r\n    }\r\n    \r\n    /**\r\n     * @dev Stake USDC for boost prediction. Net stake + platform fee fund `claimPredictionWinsPool`\r\n     *      (same pool `claimPredictionWinsWithAuth` pays from); jackpot fee funds `jackpotPool`.\r\n     */\r\n    function stakeBoost(uint256 marketId, string memory outcome, uint256 amount) external validMarket(marketId) nonReentrant {\r\n        require(amount > 0, \"Amount must be greater than 0\");\r\n        Market storage market = markets[marketId];\r\n        require(market.status == MarketStatus.Upcoming || market.status == MarketStatus.Active, \"Market not active\");\r\n        \r\n        // Verify option exists\r\n        bool optionExists = false;\r\n        for (uint256 i = 0; i < market.options.length; i++) {\r\n            if (keccak256(bytes(market.options[i])) == keccak256(bytes(outcome))) {\r\n                optionExists = true;\r\n                break;\r\n            }\r\n        }\r\n        require(optionExists, \"Invalid outcome\");\r\n        \r\n        usdc.safeTransferFrom(msg.sender, address(this), amount);\r\n\r\n        uint256 platformFeeAmount = (amount * platformFee) / 10000;\r\n        uint256 jackpotFeeAmount = (amount * boostJackpotFee) / 10000;\r\n        uint256 netStake = amount - platformFeeAmount - jackpotFeeAmount;\r\n        require(netStake > 0, \"Stake too small after fees\");\r\n        \r\n        // Update or create boost prediction\r\n        BoostPrediction storage prediction = boostPredictions[marketId][msg.sender][outcome];\r\n        if (prediction.user == address(0)) {\r\n            // New prediction\r\n            prediction.user = msg.sender;\r\n            prediction.marketId = marketId;\r\n            prediction.outcome = outcome;\r\n            prediction.stakeAmount = netStake;\r\n            prediction.totalStake = netStake;\r\n        } else {\r\n            // Update existing prediction\r\n            prediction.totalStake += netStake;\r\n        }\r\n        \r\n        claimPredictionWinsPool += netStake + platformFeeAmount;\r\n        jackpotPool += jackpotFeeAmount;\r\n        \r\n        emit BoostStaked(marketId, msg.sender, outcome, netStake);\r\n    }\r\n    \r\n    /**\r\n     * @dev Add more stake to existing boost prediction\r\n     */\r\n    function addBoostStake(uint256 marketId, string memory outcome, uint256 amount) external validMarket(marketId) nonReentrant {\r\n        require(amount > 0, \"Amount must be greater than 0\");\r\n        Market storage market = markets[marketId];\r\n        require(market.status == MarketStatus.Upcoming || market.status == MarketStatus.Active, \"Market not active\");\r\n        \r\n        BoostPrediction storage prediction = boostPredictions[marketId][msg.sender][outcome];\r\n        require(prediction.user == msg.sender, \"No existing prediction\");\r\n        \r\n        usdc.safeTransferFrom(msg.sender, address(this), amount);\r\n\r\n        uint256 platformFeeAmount = (amount * platformFee) / 10000;\r\n        uint256 jackpotFeeAmount = (amount * boostJackpotFee) / 10000;\r\n        uint256 netStake = amount - platformFeeAmount - jackpotFeeAmount;\r\n        require(netStake > 0, \"Stake too small after fees\");\r\n        \r\n        prediction.totalStake += netStake;\r\n        \r\n        claimPredictionWinsPool += netStake + platformFeeAmount;\r\n        jackpotPool += jackpotFeeAmount;\r\n        \r\n        emit BoostStakeAdded(marketId, msg.sender, netStake);\r\n    }\r\n    \r\n    /**\r\n     * @dev Withdraw stake from boost prediction (only before resolution)\r\n     */\r\n    function withdrawBoostStake(uint256 marketId, string memory outcome, uint256 amount) external validMarket(marketId) nonReentrant {\r\n        Market storage market = markets[marketId];\r\n        require(market.status == MarketStatus.Upcoming || market.status == MarketStatus.Active, \"Market not active\");\r\n        \r\n        BoostPrediction storage prediction = boostPredictions[marketId][msg.sender][outcome];\r\n        require(prediction.user == msg.sender, \"No prediction found\");\r\n        require(prediction.totalStake >= amount, \"Insufficient stake\");\r\n        \r\n        prediction.totalStake -= amount;\r\n        require(claimPredictionWinsPool >= amount, \"Insufficient claim pool\");\r\n        claimPredictionWinsPool -= amount;\r\n        \r\n        usdc.safeTransfer(msg.sender, amount);\r\n        \r\n        emit BoostStakeWithdrawn(marketId, msg.sender, amount);\r\n    }\r\n    \r\n    /**\r\n     * @dev Claim boost prediction winnings\r\n     */\r\n    function claimBoost(uint256 marketId, string memory outcome) external validMarket(marketId) nonReentrant {\r\n        Market storage market = markets[marketId];\r\n        require(market.resolved, \"Market not resolved\");\r\n        require(keccak256(bytes(market.winningOption)) == keccak256(bytes(outcome)), \"Not winning outcome\");\r\n        \r\n        BoostPrediction storage prediction = boostPredictions[marketId][msg.sender][outcome];\r\n        require(prediction.user == msg.sender, \"No prediction found\");\r\n        require(!prediction.claimed, \"Already claimed\");\r\n        require(prediction.totalStake > 0, \"No stake to claim\");\r\n        \r\n        // Calculate claimable amount (backend will set this via setClaimableBalance)\r\n        uint256 claimable = claimableBalances[marketId][msg.sender];\r\n        require(claimable > 0, \"No claimable balance\");\r\n        require(claimPredictionWinsPool >= claimable, \"Insufficient claim pool\");\r\n        \r\n        prediction.claimed = true;\r\n        claimableBalances[marketId][msg.sender] = 0;\r\n        claimPredictionWinsPool -= claimable;\r\n        \r\n        usdc.safeTransfer(msg.sender, claimable);\r\n        \r\n        emit BoostClaimed(marketId, msg.sender, claimable);\r\n    }\r\n    \r\n    /**\r\n     * @dev Set claimable balance for a user (legacy; prefer setClaimableBoost/setClaimableMarket)\r\n     */\r\n    function setClaimableBalance(uint256 marketId, address user, uint256 amount) external onlyAdmin {\r\n        claimableBalances[marketId][user] = amount;\r\n    }\r\n    \r\n    /**\r\n     * @dev Set claimable boost amount for a user (called after resolution).\r\n     */\r\n    function setClaimableBoost(uint256 marketId, address user, uint256 amount) external onlyAdmin {\r\n        claimableBoost[marketId][user] = amount;\r\n    }\r\n    \r\n    /**\r\n     * @dev Set claimable market amount for a user (called after resolution).\r\n     */\r\n    function setClaimableMarket(uint256 marketId, address user, uint256 amount) external onlyAdmin {\r\n        claimableMarket[marketId][user] = amount;\r\n    }\r\n    \r\n    /**\r\n     * @dev Claim prediction winnings (Boost or Market) for a resolved market.\r\n     * @param marketId Market id\r\n     * @param isBoost true to claim boost winnings, false to claim market winnings. Pays from claimPredictionWinsPool.\r\n     */\r\n    function claimPredictionWins(uint256 marketId, bool isBoost) external validMarket(marketId) nonReentrant {\r\n        Market storage market = markets[marketId];\r\n        require(market.resolved, \"Market not resolved\");\r\n        \r\n        string memory winningOption = market.winningOption;\r\n        uint256 amount;\r\n        \r\n        if (isBoost) {\r\n            amount = claimableBoost[marketId][msg.sender];\r\n            require(amount > 0, \"No claimable balance\");\r\n            BoostPrediction storage boostPred = boostPredictions[marketId][msg.sender][winningOption];\r\n            require(boostPred.user == msg.sender && boostPred.totalStake > 0 && !boostPred.claimed, \"Not a participant\");\r\n            require(claimPredictionWinsPool >= amount, \"Insufficient claim pool\");\r\n            claimableBoost[marketId][msg.sender] = 0;\r\n            boostPred.claimed = true;\r\n        } else {\r\n            amount = claimableMarket[marketId][msg.sender];\r\n            require(amount > 0, \"No claimable balance\");\r\n            MarketPosition storage pos = marketPositions[marketId][msg.sender][winningOption];\r\n            require(pos.user == msg.sender && pos.shares > 0, \"Not a participant\");\r\n            require(claimPredictionWinsPool >= amount, \"Insufficient claim pool\");\r\n            claimableMarket[marketId][msg.sender] = 0;\r\n        }\r\n        \r\n        claimPredictionWinsPool -= amount;\r\n        usdc.safeTransfer(msg.sender, amount);\r\n        emit PredictionWinsClaimed(marketId, msg.sender, amount);\r\n    }\r\n\r\n    /**\r\n     * @dev Claim boost or market winnings using a signature from `claimAuthSigner`. Amount must match what the backend encoded (off-chain payout).\r\n     * Replaces relying on claimableBoost / claimableMarket mappings for normal user flow.\r\n     */\r\n    function claimPredictionWinsWithAuth(\r\n        uint256 marketId,\r\n        bool isBoost,\r\n        uint256 amount,\r\n        bytes32 predictionId,\r\n        uint256 deadline,\r\n        bytes calldata signature\r\n    ) external validMarket(marketId) nonReentrant {\r\n        require(claimAuthSigner != address(0), \"Claim signer not set\");\r\n        require(block.timestamp <= deadline, \"Expired\");\r\n        require(amount > 0, \"Zero amount\");\r\n\r\n        bytes32 authKey = keccak256(abi.encodePacked(msg.sender, predictionId));\r\n        require(!usedAuthPredictionClaims[authKey], \"Already claimed\");\r\n\r\n        bytes32 messageHash = keccak256(\r\n            abi.encodePacked(\r\n                msg.sender,\r\n                marketId,\r\n                isBoost,\r\n                amount,\r\n                predictionId,\r\n                deadline,\r\n                block.chainid,\r\n                address(this)\r\n            )\r\n        );\r\n        address recovered = _recoverAuthSigner(messageHash, signature);\r\n        require(recovered != address(0) && recovered == claimAuthSigner, \"Invalid signature\");\r\n\r\n        Market storage market = markets[marketId];\r\n        require(market.resolved, \"Market not resolved\");\r\n        string memory winningOption = market.winningOption;\r\n\r\n        if (isBoost) {\r\n            BoostPrediction storage boostPred = boostPredictions[marketId][msg.sender][winningOption];\r\n            require(boostPred.user == msg.sender && boostPred.totalStake > 0 && !boostPred.claimed, \"Not a boost participant\");\r\n            boostPred.claimed = true;\r\n        } else {\r\n            MarketPosition storage pos = marketPositions[marketId][msg.sender][winningOption];\r\n            require(pos.user == msg.sender && pos.shares > 0, \"Not a market participant\");\r\n            pos.shares = 0;\r\n            pos.totalInvested = 0;\r\n        }\r\n\r\n        require(claimPredictionWinsPool >= amount, \"Insufficient claim pool\");\r\n        usedAuthPredictionClaims[authKey] = true;\r\n        claimPredictionWinsPool -= amount;\r\n        usdc.safeTransfer(msg.sender, amount);\r\n        emit PredictionWinsClaimed(marketId, msg.sender, amount);\r\n    }\r\n    \r\n    /**\r\n     * @dev Withdraw from jackpot pool using a signature from `claimAuthSigner`. Does not use per-user on-chain jackpot balances.\r\n     */\r\n    function withdrawJackpotWithAuth(\r\n        uint256 amount,\r\n        bytes32 nonce,\r\n        uint256 deadline,\r\n        bytes calldata signature\r\n    ) external nonReentrant {\r\n        require(claimAuthSigner != address(0), \"Claim signer not set\");\r\n        require(block.timestamp <= deadline, \"Expired\");\r\n        require(amount > 0, \"Zero amount\");\r\n        require(!usedJackpotWithdrawNonces[nonce], \"Nonce used\");\r\n\r\n        bytes32 messageHash = keccak256(\r\n            abi.encodePacked(msg.sender, amount, nonce, deadline, block.chainid, address(this))\r\n        );\r\n        address recovered = _recoverAuthSigner(messageHash, signature);\r\n        require(recovered != address(0) && recovered == claimAuthSigner, \"Invalid signature\");\r\n\r\n        require(jackpotPool >= amount, \"Insufficient jackpot pool\");\r\n        usedJackpotWithdrawNonces[nonce] = true;\r\n        jackpotPool -= amount;\r\n\r\n        usdc.safeTransfer(msg.sender, amount);\r\n        emit JackpotWithdrawn(msg.sender, amount);\r\n    }\r\n\r\n    /**\r\n     * @dev Fund the claim prediction wins pool (super admin or deployer).\r\n     */\r\n    function fundClaimPredictionWinsPool(uint256 amount) external onlySuperAdmin {\r\n        require(amount > 0, \"Amount must be greater than 0\");\r\n        usdc.safeTransferFrom(msg.sender, address(this), amount);\r\n        claimPredictionWinsPool += amount;\r\n        emit ClaimPredictionWinsPoolFunded(amount);\r\n    }\r\n    \r\n    /**\r\n     * @dev Withdraw from claim prediction wins pool (deployer only).\r\n     */\r\n    function withdrawFromClaimPredictionWinsPool(address payable to, uint256 amount) external onlySuperAdmin nonReentrant {\r\n        require(to != address(0), \"Invalid recipient\");\r\n        require(to != address(this), \"Cannot send to contract\");\r\n        require(amount > 0, \"Amount must be greater than 0\");\r\n        require(claimPredictionWinsPool >= amount, \"Insufficient pool balance\");\r\n        claimPredictionWinsPool -= amount;\r\n        usdc.safeTransfer(to, amount);\r\n        emit ClaimPredictionWinsPoolWithdrawn(to, amount);\r\n    }\r\n    \r\n    /**\r\n     * @dev Buy shares in market (fixed-sum AMM)\r\n     */\r\n    function buyMarketShares(uint256 marketId, string memory outcome, uint256 amount) external validMarket(marketId) nonReentrant {\r\n        require(amount > 0, \"Amount must be greater than 0\");\r\n        Market storage market = markets[marketId];\r\n        require(market.status == MarketStatus.Upcoming || market.status == MarketStatus.Active, \"Market not active\");\r\n        \r\n        // Verify option exists\r\n        bool optionExists = false;\r\n        for (uint256 i = 0; i < market.options.length; i++) {\r\n            if (keccak256(bytes(market.options[i])) == keccak256(bytes(outcome))) {\r\n                optionExists = true;\r\n                break;\r\n            }\r\n        }\r\n        require(optionExists, \"Invalid outcome\");\r\n        \r\n        // Calculate fees\r\n        usdc.safeTransferFrom(msg.sender, address(this), amount);\r\n\r\n        uint256 platformFeeAmount = (amount * marketPlatformFee) / 10000;\r\n        uint256 freeJackpotFeeAmount = (amount * freeJackpotFee) / 10000;\r\n        uint256 netAmount = amount - platformFeeAmount - freeJackpotFeeAmount;\r\n        require(netAmount > 0, \"Amount too small after fees\");\r\n        \r\n        // Calculate current price (liquidity / total liquidity)\r\n        uint256 currentPrice = market.totalLiquidity > 0 \r\n            ? (market.liquidity[outcome] * 10000) / market.totalLiquidity \r\n            : (10000 / market.options.length); // Equal distribution if no liquidity\r\n        \r\n        // Calculate shares received\r\n        uint256 shares = (netAmount * 10000) / currentPrice;\r\n        \r\n        // Update liquidity (fixed-sum AMM: buying increases selected option's liquidity)\r\n        market.liquidity[outcome] += netAmount;\r\n        market.totalLiquidity += netAmount;\r\n        market.shares[outcome] += shares;\r\n        \r\n        // Update user position\r\n        MarketPosition storage position = marketPositions[marketId][msg.sender][outcome];\r\n        if (position.user == address(0)) {\r\n            position.user = msg.sender;\r\n            position.outcome = outcome;\r\n        }\r\n        position.shares += shares;\r\n        position.totalInvested += netAmount;\r\n        \r\n        // Market buys fund the claim prediction wins pool; jackpot fee share goes to jackpotPool\r\n        claimPredictionWinsPool += netAmount + platformFeeAmount;\r\n        if (freeJackpotFeeAmount > 0) {\r\n            jackpotPool += freeJackpotFeeAmount;\r\n        }\r\n        \r\n        emit MarketBought(marketId, msg.sender, outcome, netAmount, shares);\r\n    }\r\n    \r\n    /**\r\n     * @dev Sell shares in market\r\n     */\r\n    function sellMarketShares(uint256 marketId, string memory outcome, uint256 shares) external validMarket(marketId) nonReentrant {\r\n        Market storage market = markets[marketId];\r\n        require(market.status == MarketStatus.Upcoming || market.status == MarketStatus.Active, \"Market not active\");\r\n        \r\n        MarketPosition storage position = marketPositions[marketId][msg.sender][outcome];\r\n        require(position.user == msg.sender, \"No position found\");\r\n        require(position.shares >= shares, \"Insufficient shares\");\r\n        \r\n        // Calculate current price\r\n        uint256 currentPrice = market.totalLiquidity > 0 \r\n            ? (market.liquidity[outcome] * 10000) / market.totalLiquidity \r\n            : (10000 / market.options.length);\r\n        \r\n        // Calculate payout\r\n        uint256 payout = (shares * currentPrice) / 10000;\r\n        require(market.liquidity[outcome] >= payout, \"Insufficient market liquidity\");\r\n        require(market.shares[outcome] >= shares, \"Insufficient market shares\");\r\n        \r\n        // Update liquidity (selling decreases selected option's liquidity)\r\n        market.liquidity[outcome] -= payout;\r\n        market.totalLiquidity -= payout;\r\n        market.shares[outcome] -= shares;\r\n        \r\n        // Update user position\r\n        position.shares -= shares;\r\n        position.totalInvested -= (payout * position.totalInvested) / (position.shares + shares);\r\n        \r\n        // Deduct from claim prediction wins pool when user sells (pool was credited on buy)\r\n        require(claimPredictionWinsPool >= payout, \"Insufficient claim pool\");\r\n        claimPredictionWinsPool -= payout;\r\n        \r\n        usdc.safeTransfer(msg.sender, payout);\r\n        \r\n        emit MarketSold(marketId, msg.sender, outcome, shares, payout);\r\n    }\r\n    \r\n    /**\r\n     * @dev Claim market winnings after resolution\r\n     */\r\n    function claimMarket(uint256 marketId, string memory outcome) external validMarket(marketId) nonReentrant {\r\n        Market storage market = markets[marketId];\r\n        require(market.resolved, \"Market not resolved\");\r\n        require(keccak256(bytes(market.winningOption)) == keccak256(bytes(outcome)), \"Not winning outcome\");\r\n        \r\n        MarketPosition storage position = marketPositions[marketId][msg.sender][outcome];\r\n        require(position.user == msg.sender, \"No position found\");\r\n        require(position.shares > 0, \"No shares to claim\");\r\n        \r\n        // Calculate claimable amount (backend will set this)\r\n        uint256 claimable = claimableBalances[marketId][msg.sender];\r\n        require(claimable > 0, \"No claimable balance\");\r\n        require(claimPredictionWinsPool >= claimable, \"Insufficient claim pool\");\r\n        \r\n        claimableBalances[marketId][msg.sender] = 0;\r\n        claimPredictionWinsPool -= claimable;\r\n        \r\n        usdc.safeTransfer(msg.sender, claimable);\r\n        \r\n        emit MarketClaimed(marketId, msg.sender, outcome, claimable);\r\n    }\r\n    \r\n    /**\r\n     * @dev Get current price for an option (in basis points)\r\n     */\r\n    function getPrice(uint256 marketId, string memory outcome) external view validMarket(marketId) returns (uint256) {\r\n        Market storage market = markets[marketId];\r\n        if (market.totalLiquidity == 0) {\r\n            return (10000 / market.options.length);\r\n        }\r\n        return (market.liquidity[outcome] * 10000) / market.totalLiquidity;\r\n    }\r\n    \r\n    /**\r\n     * @dev Get user's market position\r\n     */\r\n    function getUserPosition(uint256 marketId, address user, string memory outcome) external view validMarket(marketId) returns (uint256 shares, uint256 totalInvested) {\r\n        MarketPosition storage position = marketPositions[marketId][user][outcome];\r\n        return (position.shares, position.totalInvested);\r\n    }\r\n    \r\n    /**\r\n     * @dev Get user's boost prediction\r\n     */\r\n    function getBoostPrediction(uint256 marketId, address user, string memory outcome) external view validMarket(marketId) returns (\r\n        address _user,\r\n        uint256 _totalStake,\r\n        bool _claimed\r\n    ) {\r\n        BoostPrediction storage prediction = boostPredictions[marketId][user][outcome];\r\n        return (prediction.user, prediction.totalStake, prediction.claimed);\r\n    }\r\n    \r\n    /**\r\n     * @dev Fund jackpot pool (deployer only)\r\n     */\r\n    function fundJackpotPool(uint256 amount) external onlyDeployer {\r\n        require(amount > 0, \"Amount must be greater than 0\");\r\n        usdc.safeTransferFrom(msg.sender, address(this), amount);\r\n        jackpotPool += amount;\r\n        emit JackpotFunded(amount);\r\n    }\r\n    \r\n    /**\r\n     * @dev User withdraw from jackpot pool\r\n     */\r\n    function withdrawJackpot(uint256 amount) external nonReentrant {\r\n        require(amount > 0, \"Amount must be greater than 0\");\r\n        require(jackpotPool >= amount, \"Insufficient jackpot pool\");\r\n        require(jackpotBalances[msg.sender] >= amount, \"Insufficient balance\");\r\n        \r\n        jackpotBalances[msg.sender] -= amount;\r\n        jackpotPool -= amount;\r\n        \r\n        usdc.safeTransfer(msg.sender, amount);\r\n        \r\n        emit JackpotWithdrawn(msg.sender, amount);\r\n    }\r\n    \r\n    /**\r\n     * @dev Set user's jackpot balance (called by backend)\r\n     */\r\n    function setJackpotBalance(address user, uint256 amount) external onlyAdmin {\r\n        jackpotBalances[user] = amount;\r\n    }\r\n    \r\n    /**\r\n     * @dev Withdraw from jackpot pool (deployer only)\r\n     */\r\n    function withdrawFromJackpotPool(address payable to, uint256 amount) external onlyDeployer nonReentrant {\r\n        require(to != address(0), \"Invalid recipient\");\r\n        require(to != address(this), \"Cannot send to contract\");\r\n        require(amount > 0, \"Amount must be greater than 0\");\r\n        require(jackpotPool >= amount, \"Insufficient pool balance\");\r\n        jackpotPool -= amount;\r\n        usdc.safeTransfer(to, amount);\r\n\r\n        emit JackpotPoolWithdrawn(to, amount);\r\n    }\r\n    \r\n    /**\r\n     * @dev Get contract balance\r\n     */\r\n    function getContractBalance() external view returns (uint256) {\r\n        return usdc.balanceOf(address(this));\r\n    }\r\n    \r\n    /**\r\n     * @dev Transfer surplus USDC (above claim pool + jackpot + user vault liabilities).\r\n     *      Callable by deployer or superAdmin. For full contract drain before upgrade, use\r\n     *      `migrateAllFundsForUpgrade`.\r\n     */\r\n    function transferFunds(address payable to, uint256 amount) external onlySuperAdmin nonReentrant {\r\n        require(to != address(0), \"Invalid recipient\");\r\n        require(to != address(this), \"Cannot send to contract\");\r\n        require(amount > 0, \"Amount must be greater than 0\");\r\n        uint256 balance = usdc.balanceOf(address(this));\r\n        uint256 minReserve = claimPredictionWinsPool + jackpotPool + totalTradingVaultLiabilities;\r\n        require(balance >= amount, \"Insufficient balance\");\r\n        require(balance - amount >= minReserve, \"Cannot withdraw user or pool reserves\");\r\n        usdc.safeTransfer(to, amount);\r\n\r\n        emit FundsTransferred(to, amount);\r\n    }\r\n\r\n    /**\r\n     * @dev Withdraw **all** USDC for contract upgrade / migration. Resets on-chain pool and vault\r\n     *      liability counters (per-user `tradingVaultBalances` mappings are not iterated).\r\n     *      Only use when deprecating this contract — users must claim on the new deployment.\r\n     *      Callable by deployer or superAdmin.\r\n     */\r\n    function migrateAllFundsForUpgrade(address payable to) external onlySuperAdmin nonReentrant {\r\n        require(to != address(0), \"Invalid recipient\");\r\n        require(to != address(this), \"Cannot send to contract\");\r\n        uint256 balance = usdc.balanceOf(address(this));\r\n        require(balance > 0, \"No USDC to migrate\");\r\n\r\n        claimPredictionWinsPool = 0;\r\n        jackpotPool = 0;\r\n        totalTradingVaultLiabilities = 0;\r\n\r\n        usdc.safeTransfer(to, balance);\r\n        emit ContractMigratedForUpgrade(to, balance);\r\n    }\r\n    \r\n    /**\r\n     * @dev Set superAdmin address\r\n     */\r\n    function setSuperAdmin(address _superAdmin) external onlyDeployer {\r\n        require(_superAdmin != address(0), \"Invalid address\");\r\n        superAdmin = _superAdmin;\r\n    }\r\n\r\n    /**\r\n     * @dev Manage on-chain admins (deployer only).\r\n     * Admins can operate Admin-page contract functions (resolve/update markets, set claimables, set jackpot balances).\r\n     */\r\n    function setAdmin(address admin, bool enabled) external onlyDeployer {\r\n        require(admin != address(0), \"Invalid address\");\r\n        admins[admin] = enabled;\r\n    }\r\n    \r\n    /**\r\n     * @dev Get jackpot balance for user\r\n     */\r\n    function getJackpotBalance(address user) external view returns (uint256) {\r\n        return jackpotBalances[user];\r\n    }\r\n    \r\n    /**\r\n     * @dev Get claimable balance for user\r\n     */\r\n    function getClaimableBalance(uint256 marketId, address user) external view returns (uint256) {\r\n        return claimableBalances[marketId][user];\r\n    }\r\n\r\n    // --- Orderbook / trading vault (backend matching + admin settlement) ---\r\n\r\n    /**\r\n     * @dev User deposits USDC into the trading vault (custody) for orderbook flow.\r\n     */\r\n    function depositTradingVault(uint256 amount) external nonReentrant {\r\n        require(amount > 0, \"Amount must be greater than 0\");\r\n        usdc.safeTransferFrom(msg.sender, address(this), amount);\r\n        _applyVaultDelta(msg.sender, int256(amount));\r\n        emit TradingVaultDeposited(msg.sender, amount);\r\n    }\r\n\r\n    /**\r\n     * @dev Withdraw from trading vault using the same EIP-191 signer pattern as jackpot withdraw.\r\n     * Backend authorizes amount (must not exceed off-chain computed withdrawable).\r\n     */\r\n    function withdrawTradingVaultWithAuth(\r\n        uint256 amount,\r\n        bytes32 nonce,\r\n        uint256 deadline,\r\n        bytes calldata signature\r\n    ) external nonReentrant {\r\n        require(claimAuthSigner != address(0), \"Claim signer not set\");\r\n        require(block.timestamp <= deadline, \"Expired\");\r\n        require(amount > 0, \"Zero amount\");\r\n        require(!usedTradingVaultWithdrawNonces[nonce], \"Nonce used\");\r\n\r\n        bytes32 messageHash = keccak256(\r\n            abi.encodePacked(msg.sender, amount, nonce, deadline, block.chainid, address(this), uint256(1))\r\n        );\r\n        address recovered = _recoverAuthSigner(messageHash, signature);\r\n        require(recovered != address(0) && recovered == claimAuthSigner, \"Invalid signature\");\r\n\r\n        require(tradingVaultBalances[msg.sender] >= amount, \"Insufficient vault\");\r\n        usedTradingVaultWithdrawNonces[nonce] = true;\r\n        _applyVaultDelta(msg.sender, -int256(amount));\r\n        usdc.safeTransfer(msg.sender, amount);\r\n        emit TradingVaultWithdrawn(msg.sender, amount);\r\n    }\r\n\r\n    struct OrderbookLiquidityRow {\r\n        string option;\r\n        uint256 yesAmount;\r\n        uint256 noAmount;\r\n    }\r\n\r\n    /**\r\n     * @dev Single USDC pull; credits YES/NO pools per outcome (on-chain reference + settlement accounting).\r\n     */\r\n    function batchAddOrderbookLiquidity(uint256 marketId, OrderbookLiquidityRow[] calldata rows)\r\n        external\r\n        onlyAdmin\r\n        validMarket(marketId)\r\n    {\r\n        Market storage market = markets[marketId];\r\n        require(market.status == MarketStatus.Upcoming || market.status == MarketStatus.Active, \"Market not active\");\r\n\r\n        uint256 total = 0;\r\n        for (uint256 i = 0; i < rows.length; i++) {\r\n            total += rows[i].yesAmount + rows[i].noAmount;\r\n        }\r\n        require(total > 0, \"Zero total\");\r\n\r\n        usdc.safeTransferFrom(msg.sender, address(this), total);\r\n\r\n        for (uint256 i = 0; i < rows.length; i++) {\r\n            string memory opt = rows[i].option;\r\n            require(_marketHasOption(marketId, opt), \"Invalid option\");\r\n            if (rows[i].yesAmount > 0) {\r\n                orderbookLiquidityYes[marketId][opt] += rows[i].yesAmount;\r\n            }\r\n            if (rows[i].noAmount > 0) {\r\n                orderbookLiquidityNo[marketId][opt] += rows[i].noAmount;\r\n            }\r\n        }\r\n\r\n        emit OrderbookLiquidityBatchAdded(marketId, total);\r\n    }\r\n\r\n    struct OrderbookSettlementLeg {\r\n        address user;\r\n        string positionKey;\r\n        int256 vaultDelta;\r\n        int256 sharesDelta;\r\n        int256 investedDelta;\r\n    }\r\n\r\n    /**\r\n     * @dev Apply batched vault + position updates after off-chain matching.\r\n     *      Platform fee share credits `claimPredictionWinsPool`; free-jackpot fee share credits `jackpotPool` (same split as superadmin Settings).\r\n     * Conservation: sum(vaultDelta) + feeToClaimPool + feeToJackpotPool == 0 (USDC units).\r\n     */\r\n    function applyOrderbookSettlements(\r\n        uint256 marketId,\r\n        OrderbookSettlementLeg[] calldata legs,\r\n        uint256 feeToClaimPool,\r\n        uint256 feeToJackpotPool\r\n    ) external onlyAdmin validMarket(marketId) nonReentrant {\r\n        Market storage market = markets[marketId];\r\n        require(market.status == MarketStatus.Upcoming || market.status == MarketStatus.Active, \"Market not active\");\r\n\r\n        int256 netFromVaults = 0;\r\n        for (uint256 i = 0; i < legs.length; i++) {\r\n            address u = legs[i].user;\r\n            require(u != address(0), \"Zero user\");\r\n            _applyVaultDelta(u, legs[i].vaultDelta);\r\n            netFromVaults += legs[i].vaultDelta;\r\n            if (legs[i].sharesDelta != 0 || legs[i].investedDelta != 0) {\r\n                _applyShareDelta(marketId, u, legs[i].positionKey, legs[i].sharesDelta, legs[i].investedDelta);\r\n            }\r\n        }\r\n\r\n        uint256 totalFees = feeToClaimPool + feeToJackpotPool;\r\n        require(netFromVaults + int256(totalFees) == 0, \"Settlement imbalance\");\r\n        if (feeToClaimPool > 0) {\r\n            claimPredictionWinsPool += feeToClaimPool;\r\n        }\r\n        if (feeToJackpotPool > 0) {\r\n            jackpotPool += feeToJackpotPool;\r\n        }\r\n\r\n        emit OrderbookSettlementsApplied(marketId, legs.length, feeToClaimPool, feeToJackpotPool);\r\n    }\r\n\r\n    /**\r\n     * @dev After market resolution: sweep remaining trading-vault collateral for this market into\r\n     *      `claimPredictionWinsPool` and clear on-chain positions so users cannot withdraw vault\r\n     *      funds that belong in the claim pool (prevents double payout with claimOrderbookPositionWithAuth).\r\n     *      Conservation: sum(vaultDelta) + collateralToClaimPool == 0.\r\n     */\r\n    function finalizeResolvedMarketSettlements(\r\n        uint256 marketId,\r\n        OrderbookSettlementLeg[] calldata legs,\r\n        uint256 collateralToClaimPool\r\n    ) external onlyAdmin validMarket(marketId) nonReentrant {\r\n        Market storage market = markets[marketId];\r\n        require(market.resolved, \"Market not resolved\");\r\n\r\n        int256 netFromVaults = 0;\r\n        for (uint256 i = 0; i < legs.length; i++) {\r\n            address u = legs[i].user;\r\n            require(u != address(0), \"Zero user\");\r\n            _applyVaultDelta(u, legs[i].vaultDelta);\r\n            netFromVaults += legs[i].vaultDelta;\r\n            if (legs[i].sharesDelta != 0 || legs[i].investedDelta != 0) {\r\n                _applyShareDelta(marketId, u, legs[i].positionKey, legs[i].sharesDelta, legs[i].investedDelta);\r\n            }\r\n        }\r\n\r\n        require(netFromVaults + int256(collateralToClaimPool) == 0, \"Finalize imbalance\");\r\n        if (collateralToClaimPool > 0) {\r\n            claimPredictionWinsPool += collateralToClaimPool;\r\n        }\r\n\r\n        emit OrderbookSettlementsApplied(marketId, legs.length, collateralToClaimPool, 0);\r\n    }\r\n\r\n    /**\r\n     * @dev USDC held by this contract and internal pool balances (for super-admin treasury view).\r\n     */\r\n    function getTreasurySnapshot()\r\n        external\r\n        view\r\n        returns (\r\n            uint256 usdcBalance,\r\n            uint256 claimPoolBalance,\r\n            uint256 jackpotPoolBalance,\r\n            uint256 tradingVaultLiabilities,\r\n            uint256 maxRoutineTransfer\r\n        )\r\n    {\r\n        usdcBalance = usdc.balanceOf(address(this));\r\n        claimPoolBalance = claimPredictionWinsPool;\r\n        jackpotPoolBalance = jackpotPool;\r\n        tradingVaultLiabilities = totalTradingVaultLiabilities;\r\n        uint256 minReserve = claimPredictionWinsPool + jackpotPool + totalTradingVaultLiabilities;\r\n        maxRoutineTransfer = usdcBalance > minReserve ? usdcBalance - minReserve : 0;\r\n    }\r\n\r\n    /**\r\n     * @dev Claim resolved orderbook position: eligibility and payout amount are enforced off-chain via signature.\r\n     */\r\n    function claimOrderbookPositionWithAuth(\r\n        uint256 marketId,\r\n        uint256 amount,\r\n        string calldata positionKey,\r\n        bytes32 predictionId,\r\n        uint256 deadline,\r\n        bytes calldata signature\r\n    ) external validMarket(marketId) nonReentrant {\r\n        require(claimAuthSigner != address(0), \"Claim signer not set\");\r\n        require(block.timestamp <= deadline, \"Expired\");\r\n        require(amount > 0, \"Zero amount\");\r\n\r\n        bytes32 authKey = keccak256(abi.encodePacked(msg.sender, predictionId, uint256(2)));\r\n        require(!usedOrderbookClaimKeys[authKey], \"Already claimed\");\r\n\r\n        bytes32 messageHash = keccak256(\r\n            abi.encodePacked(\r\n                msg.sender,\r\n                marketId,\r\n                amount,\r\n                positionKey,\r\n                predictionId,\r\n                deadline,\r\n                block.chainid,\r\n                address(this),\r\n                uint256(3)\r\n            )\r\n        );\r\n        address recovered = _recoverAuthSigner(messageHash, signature);\r\n        require(recovered != address(0) && recovered == claimAuthSigner, \"Invalid signature\");\r\n\r\n        require(markets[marketId].resolved, \"Market not resolved\");\r\n\r\n        MarketPosition storage pos = marketPositions[marketId][msg.sender][positionKey];\r\n        // Payout is authorized only by `claimAuthSigner` (replay-safe via `usedOrderbookClaimKeys`).\r\n        // Clear on-chain ledger when it exists; allow claims when settlement never wrote shares on-chain\r\n        // (off-chain book + backend payout) so winners still receive from `claimPredictionWinsPool`.\r\n        if (pos.user == msg.sender && pos.shares > 0) {\r\n            pos.shares = 0;\r\n            pos.totalInvested = 0;\r\n        }\r\n\r\n        require(claimPredictionWinsPool >= amount, \"Insufficient claim pool\");\r\n        usedOrderbookClaimKeys[authKey] = true;\r\n        claimPredictionWinsPool -= amount;\r\n        usdc.safeTransfer(msg.sender, amount);\r\n\r\n        emit OrderbookPositionClaimed(marketId, msg.sender, positionKey, amount);\r\n    }\r\n    \r\n    // No receive/fallback: this contract is ERC20-based (USDC), not native ETH.\r\n}\r\n",
  "sourcePath": "C:\\Users\\HELLO\\Desktop\\startups\\SaveWRG\\smart-contracts\\contracts\\WeRgame.sol",
  "compiler": {
    "name": "solc",
    "version": "0.8.24+commit.e11b9ed9.Emscripten.clang"
  },
  "schemaVersion": "3.4.16",
  "updatedAt": "2026-06-07T00:48:12.360Z",
  "devdoc": {
    "details": "Comprehensive smart contract for prediction market platform Handles market creation, trading, boost predictions, and jackpot management",
    "errors": {
      "ECDSAInvalidSignature()": [
        {
          "details": "The signature is invalid."
        }
      ],
      "ECDSAInvalidSignatureLength(uint256)": [
        {
          "details": "The signature has an invalid length."
        }
      ],
      "ECDSAInvalidSignatureS(bytes32)": [
        {
          "details": "The signature has an S value that is in the upper half order."
        }
      ],
      "ReentrancyGuardReentrantCall()": [
        {
          "details": "Unauthorized reentrant call."
        }
      ],
      "SafeERC20FailedOperation(address)": [
        {
          "details": "An operation with an ERC-20 token failed."
        }
      ]
    },
    "kind": "dev",
    "methods": {
      "addBoostStake(uint256,string,uint256)": {
        "details": "Add more stake to existing boost prediction"
      },
      "addLiquidity(uint256,string,uint256)": {
        "details": "Add initial liquidity to a market option"
      },
      "applyOrderbookSettlements(uint256,(address,string,int256,int256,int256)[],uint256,uint256)": {
        "details": "Apply batched vault + position updates after off-chain matching.      Platform fee share credits `claimPredictionWinsPool`; free-jackpot fee share credits `jackpotPool` (same split as superadmin Settings). Conservation: sum(vaultDelta) + feeToClaimPool + feeToJackpotPool == 0 (USDC units)."
      },
      "batchAddOrderbookLiquidity(uint256,(string,uint256,uint256)[])": {
        "details": "Single USDC pull; credits YES/NO pools per outcome (on-chain reference + settlement accounting)."
      },
      "buyMarketShares(uint256,string,uint256)": {
        "details": "Buy shares in market (fixed-sum AMM)"
      },
      "claimBoost(uint256,string)": {
        "details": "Claim boost prediction winnings"
      },
      "claimMarket(uint256,string)": {
        "details": "Claim market winnings after resolution"
      },
      "claimOrderbookPositionWithAuth(uint256,uint256,string,bytes32,uint256,bytes)": {
        "details": "Claim resolved orderbook position: eligibility and payout amount are enforced off-chain via signature."
      },
      "claimPredictionWins(uint256,bool)": {
        "details": "Claim prediction winnings (Boost or Market) for a resolved market.",
        "params": {
          "isBoost": "true to claim boost winnings, false to claim market winnings. Pays from claimPredictionWinsPool.",
          "marketId": "Market id"
        }
      },
      "claimPredictionWinsWithAuth(uint256,bool,uint256,bytes32,uint256,bytes)": {
        "details": "Claim boost or market winnings using a signature from `claimAuthSigner`. Amount must match what the backend encoded (off-chain payout). Replaces relying on claimableBoost / claimableMarket mappings for normal user flow."
      },
      "createMarket(bool,string[])": {
        "details": "Create a new market (match or poll)",
        "params": {
          "isPoll": "true if poll, false if match",
          "options": "array of outcome options"
        }
      },
      "depositTradingVault(uint256)": {
        "details": "User deposits USDC into the trading vault (custody) for orderbook flow."
      },
      "finalizeResolvedMarketSettlements(uint256,(address,string,int256,int256,int256)[],uint256)": {
        "details": "After market resolution: sweep remaining trading-vault collateral for this market into      `claimPredictionWinsPool` and clear on-chain positions so users cannot withdraw vault      funds that belong in the claim pool (prevents double payout with claimOrderbookPositionWithAuth).      Conservation: sum(vaultDelta) + collateralToClaimPool == 0."
      },
      "fundClaimPredictionWinsPool(uint256)": {
        "details": "Fund the claim prediction wins pool (super admin or deployer)."
      },
      "fundJackpotPool(uint256)": {
        "details": "Fund jackpot pool (deployer only)"
      },
      "getBoostPrediction(uint256,address,string)": {
        "details": "Get user's boost prediction"
      },
      "getClaimableBalance(uint256,address)": {
        "details": "Get claimable balance for user"
      },
      "getContractBalance()": {
        "details": "Get contract balance"
      },
      "getFees()": {
        "details": "Get current fees"
      },
      "getJackpotBalance(address)": {
        "details": "Get jackpot balance for user"
      },
      "getMarketOptions(uint256)": {
        "details": "Get options for a market (so frontend can validate outcome before staking)"
      },
      "getPrice(uint256,string)": {
        "details": "Get current price for an option (in basis points)"
      },
      "getTreasurySnapshot()": {
        "details": "USDC held by this contract and internal pool balances (for super-admin treasury view)."
      },
      "getUserPosition(uint256,address,string)": {
        "details": "Get user's market position"
      },
      "migrateAllFundsForUpgrade(address)": {
        "details": "Withdraw **all** USDC for contract upgrade / migration. Resets on-chain pool and vault      liability counters (per-user `tradingVaultBalances` mappings are not iterated).      Only use when deprecating this contract — users must claim on the new deployment.      Callable by deployer or superAdmin."
      },
      "resolveMarket(uint256,string)": {
        "details": "Resolve a market"
      },
      "sellMarketShares(uint256,string,uint256)": {
        "details": "Sell shares in market"
      },
      "setAdmin(address,bool)": {
        "details": "Manage on-chain admins (deployer only). Admins can operate Admin-page contract functions (resolve/update markets, set claimables, set jackpot balances)."
      },
      "setClaimAuthSigner(address)": {
        "details": "Set wallet whose signatures authorize user claims (off-chain payout amount). Use the same key as CLAIM_AUTH_PRIVATE_KEY on the API."
      },
      "setClaimableBalance(uint256,address,uint256)": {
        "details": "Set claimable balance for a user (legacy; prefer setClaimableBoost/setClaimableMarket)"
      },
      "setClaimableBoost(uint256,address,uint256)": {
        "details": "Set claimable boost amount for a user (called after resolution)."
      },
      "setClaimableMarket(uint256,address,uint256)": {
        "details": "Set claimable market amount for a user (called after resolution)."
      },
      "setJackpotBalance(address,uint256)": {
        "details": "Set user's jackpot balance (called by backend)"
      },
      "setSuperAdmin(address)": {
        "details": "Set superAdmin address"
      },
      "stakeBoost(uint256,string,uint256)": {
        "details": "Stake USDC for boost prediction. Net stake + platform fee fund `claimPredictionWinsPool`      (same pool `claimPredictionWinsWithAuth` pays from); jackpot fee funds `jackpotPool`."
      },
      "transferFunds(address,uint256)": {
        "details": "Transfer surplus USDC (above claim pool + jackpot + user vault liabilities).      Callable by deployer or superAdmin. For full contract drain before upgrade, use      `migrateAllFundsForUpgrade`."
      },
      "updateMarketStatus(uint256,uint8)": {
        "details": "Update market status"
      },
      "withdrawBoostStake(uint256,string,uint256)": {
        "details": "Withdraw stake from boost prediction (only before resolution)"
      },
      "withdrawFromClaimPredictionWinsPool(address,uint256)": {
        "details": "Withdraw from claim prediction wins pool (deployer only)."
      },
      "withdrawFromJackpotPool(address,uint256)": {
        "details": "Withdraw from jackpot pool (deployer only)"
      },
      "withdrawJackpot(uint256)": {
        "details": "User withdraw from jackpot pool"
      },
      "withdrawJackpotWithAuth(uint256,bytes32,uint256,bytes)": {
        "details": "Withdraw from jackpot pool using a signature from `claimAuthSigner`. Does not use per-user on-chain jackpot balances."
      },
      "withdrawTradingVaultWithAuth(uint256,bytes32,uint256,bytes)": {
        "details": "Withdraw from trading vault using the same EIP-191 signer pattern as jackpot withdraw. Backend authorizes amount (must not exceed off-chain computed withdrawable)."
      }
    },
    "stateVariables": {
      "claimPredictionWinsPool": {
        "details": "Pool for paying Boost and Market prediction wins; funded by deployer and by boost stakes"
      }
    },
    "title": "WeRgame",
    "version": 1
  },
  "userdoc": {
    "kind": "user",
    "methods": {
      "claimAuthSigner()": {
        "notice": "Backend / ops wallet that signs authorized claims (set by deployer)"
      },
      "orderbookLiquidityYes(uint256,string)": {
        "notice": "On-chain reference liquidity for YES/NO books per outcome option (USDC units)"
      },
      "totalTradingVaultLiabilities()": {
        "notice": "Sum of all tradingVaultBalances — used to prevent superAdmin draining user vault collateral"
      },
      "tradingVaultBalances(address)": {
        "notice": "USDC credited to users for orderbook trading (deposit / settlement)"
      },
      "usdc()": {
        "notice": "Platform currency token (Base USDC). All pools and payouts are denominated in this token."
      },
      "usedAuthPredictionClaims(bytes32)": {
        "notice": "Replay protection for signature-based prediction claims"
      },
      "usedJackpotWithdrawNonces(bytes32)": {
        "notice": "Replay protection for signature-based jackpot withdrawals"
      },
      "usedOrderbookClaimKeys(bytes32)": {
        "notice": "Replay for orderbook position claims (separate from boost/market auth key space)"
      }
    },
    "version": 1
  }
}