{
  "contractName": "WeRgame",
  "abi": [
    {
      "inputs": [
        {
          "internalType": "address",
          "name": "usdcToken",
          "type": "address"
        }
      ],
      "stateMutability": "nonpayable",
      "type": "constructor"
    },
    {
      "inputs": [
        {
          "internalType": "address",
          "name": "token",
          "type": "address"
        }
      ],
      "name": "SafeERC20FailedOperation",
      "type": "error"
    },
    {
      "anonymous": false,
      "inputs": [
        {
          "indexed": true,
          "internalType": "uint256",
          "name": "marketId",
          "type": "uint256"
        },
        {
          "indexed": true,
          "internalType": "address",
          "name": "user",
          "type": "address"
        },
        {
          "indexed": false,
          "internalType": "uint256",
          "name": "amount",
          "type": "uint256"
        }
      ],
      "name": "BoostClaimed",
      "type": "event"
    },
    {
      "anonymous": false,
      "inputs": [
        {
          "indexed": true,
          "internalType": "uint256",
          "name": "marketId",
          "type": "uint256"
        },
        {
          "indexed": true,
          "internalType": "address",
          "name": "user",
          "type": "address"
        },
        {
          "indexed": false,
          "internalType": "uint256",
          "name": "amount",
          "type": "uint256"
        }
      ],
      "name": "BoostStakeAdded",
      "type": "event"
    },
    {
      "anonymous": false,
      "inputs": [
        {
          "indexed": true,
          "internalType": "uint256",
          "name": "marketId",
          "type": "uint256"
        },
        {
          "indexed": true,
          "internalType": "address",
          "name": "user",
          "type": "address"
        },
        {
          "indexed": false,
          "internalType": "uint256",
          "name": "amount",
          "type": "uint256"
        }
      ],
      "name": "BoostStakeWithdrawn",
      "type": "event"
    },
    {
      "anonymous": false,
      "inputs": [
        {
          "indexed": true,
          "internalType": "uint256",
          "name": "marketId",
          "type": "uint256"
        },
        {
          "indexed": true,
          "internalType": "address",
          "name": "user",
          "type": "address"
        },
        {
          "indexed": false,
          "internalType": "string",
          "name": "outcome",
          "type": "string"
        },
        {
          "indexed": false,
          "internalType": "uint256",
          "name": "amount",
          "type": "uint256"
        }
      ],
      "name": "BoostStaked",
      "type": "event"
    },
    {
      "anonymous": false,
      "inputs": [
        {
          "indexed": false,
          "internalType": "uint256",
          "name": "amount",
          "type": "uint256"
        }
      ],
      "name": "ClaimPredictionWinsPoolFunded",
      "type": "event"
    },
    {
      "anonymous": false,
      "inputs": [
        {
          "indexed": true,
          "internalType": "address",
          "name": "to",
          "type": "address"
        },
        {
          "indexed": false,
          "internalType": "uint256",
          "name": "amount",
          "type": "uint256"
        }
      ],
      "name": "ClaimPredictionWinsPoolWithdrawn",
      "type": "event"
    },
    {
      "anonymous": false,
      "inputs": [
        {
          "indexed": false,
          "internalType": "uint256",
          "name": "platformFee",
          "type": "uint256"
        },
        {
          "indexed": false,
          "internalType": "uint256",
          "name": "boostJackpotFee",
          "type": "uint256"
        },
        {
          "indexed": false,
          "internalType": "uint256",
          "name": "marketPlatformFee",
          "type": "uint256"
        },
        {
          "indexed": false,
          "internalType": "uint256",
          "name": "freeJackpotFee",
          "type": "uint256"
        }
      ],
      "name": "FeesUpdated",
      "type": "event"
    },
    {
      "anonymous": false,
      "inputs": [
        {
          "indexed": true,
          "internalType": "address",
          "name": "to",
          "type": "address"
        },
        {
          "indexed": false,
          "internalType": "uint256",
          "name": "amount",
          "type": "uint256"
        }
      ],
      "name": "FundsTransferred",
      "type": "event"
    },
    {
      "anonymous": false,
      "inputs": [
        {
          "indexed": false,
          "internalType": "uint256",
          "name": "amount",
          "type": "uint256"
        }
      ],
      "name": "JackpotFunded",
      "type": "event"
    },
    {
      "anonymous": false,
      "inputs": [
        {
          "indexed": true,
          "internalType": "address",
          "name": "to",
          "type": "address"
        },
        {
          "indexed": false,
          "internalType": "uint256",
          "name": "amount",
          "type": "uint256"
        }
      ],
      "name": "JackpotPoolWithdrawn",
      "type": "event"
    },
    {
      "anonymous": false,
      "inputs": [
        {
          "indexed": true,
          "internalType": "address",
          "name": "user",
          "type": "address"
        },
        {
          "indexed": false,
          "internalType": "uint256",
          "name": "amount",
          "type": "uint256"
        }
      ],
      "name": "JackpotWithdrawn",
      "type": "event"
    },
    {
      "anonymous": false,
      "inputs": [
        {
          "indexed": true,
          "internalType": "uint256",
          "name": "marketId",
          "type": "uint256"
        },
        {
          "indexed": false,
          "internalType": "string",
          "name": "option",
          "type": "string"
        },
        {
          "indexed": false,
          "internalType": "uint256",
          "name": "amount",
          "type": "uint256"
        }
      ],
      "name": "LiquidityAdded",
      "type": "event"
    },
    {
      "anonymous": false,
      "inputs": [
        {
          "indexed": true,
          "internalType": "uint256",
          "name": "marketId",
          "type": "uint256"
        },
        {
          "indexed": true,
          "internalType": "address",
          "name": "user",
          "type": "address"
        },
        {
          "indexed": false,
          "internalType": "string",
          "name": "outcome",
          "type": "string"
        },
        {
          "indexed": false,
          "internalType": "uint256",
          "name": "ethAmount",
          "type": "uint256"
        },
        {
          "indexed": false,
          "internalType": "uint256",
          "name": "shares",
          "type": "uint256"
        }
      ],
      "name": "MarketBought",
      "type": "event"
    },
    {
      "anonymous": false,
      "inputs": [
        {
          "indexed": true,
          "internalType": "uint256",
          "name": "marketId",
          "type": "uint256"
        },
        {
          "indexed": true,
          "internalType": "address",
          "name": "user",
          "type": "address"
        },
        {
          "indexed": false,
          "internalType": "string",
          "name": "outcome",
          "type": "string"
        },
        {
          "indexed": false,
          "internalType": "uint256",
          "name": "amount",
          "type": "uint256"
        }
      ],
      "name": "MarketClaimed",
      "type": "event"
    },
    {
      "anonymous": false,
      "inputs": [
        {
          "indexed": true,
          "internalType": "uint256",
          "name": "marketId",
          "type": "uint256"
        },
        {
          "indexed": false,
          "internalType": "bool",
          "name": "isPoll",
          "type": "bool"
        },
        {
          "indexed": false,
          "internalType": "string[]",
          "name": "options",
          "type": "string[]"
        }
      ],
      "name": "MarketCreated",
      "type": "event"
    },
    {
      "anonymous": false,
      "inputs": [
        {
          "indexed": true,
          "internalType": "uint256",
          "name": "marketId",
          "type": "uint256"
        },
        {
          "indexed": false,
          "internalType": "string",
          "name": "winningOption",
          "type": "string"
        }
      ],
      "name": "MarketResolved",
      "type": "event"
    },
    {
      "anonymous": false,
      "inputs": [
        {
          "indexed": true,
          "internalType": "uint256",
          "name": "marketId",
          "type": "uint256"
        },
        {
          "indexed": true,
          "internalType": "address",
          "name": "user",
          "type": "address"
        },
        {
          "indexed": false,
          "internalType": "string",
          "name": "outcome",
          "type": "string"
        },
        {
          "indexed": false,
          "internalType": "uint256",
          "name": "shares",
          "type": "uint256"
        },
        {
          "indexed": false,
          "internalType": "uint256",
          "name": "ethAmount",
          "type": "uint256"
        }
      ],
      "name": "MarketSold",
      "type": "event"
    },
    {
      "anonymous": false,
      "inputs": [
        {
          "indexed": true,
          "internalType": "uint256",
          "name": "marketId",
          "type": "uint256"
        },
        {
          "indexed": false,
          "internalType": "enum WeRgame.MarketStatus",
          "name": "status",
          "type": "uint8"
        }
      ],
      "name": "MarketStatusUpdated",
      "type": "event"
    },
    {
      "anonymous": false,
      "inputs": [
        {
          "indexed": true,
          "internalType": "uint256",
          "name": "marketId",
          "type": "uint256"
        },
        {
          "indexed": false,
          "internalType": "uint256",
          "name": "totalAmount",
          "type": "uint256"
        }
      ],
      "name": "OrderbookLiquidityBatchAdded",
      "type": "event"
    },
    {
      "anonymous": false,
      "inputs": [
        {
          "indexed": true,
          "internalType": "uint256",
          "name": "marketId",
          "type": "uint256"
        },
        {
          "indexed": true,
          "internalType": "address",
          "name": "user",
          "type": "address"
        },
        {
          "indexed": false,
          "internalType": "string",
          "name": "positionKey",
          "type": "string"
        },
        {
          "indexed": false,
          "internalType": "uint256",
          "name": "amount",
          "type": "uint256"
        }
      ],
      "name": "OrderbookPositionClaimed",
      "type": "event"
    },
    {
      "anonymous": false,
      "inputs": [
        {
          "indexed": true,
          "internalType": "uint256",
          "name": "marketId",
          "type": "uint256"
        },
        {
          "indexed": false,
          "internalType": "uint256",
          "name": "legs",
          "type": "uint256"
        },
        {
          "indexed": false,
          "internalType": "uint256",
          "name": "feeToClaimPool",
          "type": "uint256"
        },
        {
          "indexed": false,
          "internalType": "uint256",
          "name": "feeToJackpotPool",
          "type": "uint256"
        }
      ],
      "name": "OrderbookSettlementsApplied",
      "type": "event"
    },
    {
      "anonymous": false,
      "inputs": [
        {
          "indexed": true,
          "internalType": "uint256",
          "name": "marketId",
          "type": "uint256"
        },
        {
          "indexed": true,
          "internalType": "address",
          "name": "user",
          "type": "address"
        },
        {
          "indexed": false,
          "internalType": "uint256",
          "name": "amount",
          "type": "uint256"
        }
      ],
      "name": "PredictionWinsClaimed",
      "type": "event"
    },
    {
      "anonymous": false,
      "inputs": [
        {
          "indexed": true,
          "internalType": "address",
          "name": "user",
          "type": "address"
        },
        {
          "indexed": false,
          "internalType": "uint256",
          "name": "amount",
          "type": "uint256"
        }
      ],
      "name": "TradingVaultDeposited",
      "type": "event"
    },
    {
      "anonymous": false,
      "inputs": [
        {
          "indexed": true,
          "internalType": "address",
          "name": "user",
          "type": "address"
        },
        {
          "indexed": false,
          "internalType": "uint256",
          "name": "amount",
          "type": "uint256"
        }
      ],
      "name": "TradingVaultWithdrawn",
      "type": "event"
    },
    {
      "inputs": [
        {
          "internalType": "address",
          "name": "",
          "type": "address"
        }
      ],
      "name": "admins",
      "outputs": [
        {
          "internalType": "bool",
          "name": "",
          "type": "bool"
        }
      ],
      "stateMutability": "view",
      "type": "function"
    },
    {
      "inputs": [],
      "name": "boostJackpotFee",
      "outputs": [
        {
          "internalType": "uint256",
          "name": "",
          "type": "uint256"
        }
      ],
      "stateMutability": "view",
      "type": "function"
    },
    {
      "inputs": [
        {
          "internalType": "uint256",
          "name": "",
          "type": "uint256"
        },
        {
          "internalType": "address",
          "name": "",
          "type": "address"
        },
        {
          "internalType": "string",
          "name": "",
          "type": "string"
        }
      ],
      "name": "boostPredictions",
      "outputs": [
        {
          "internalType": "address",
          "name": "user",
          "type": "address"
        },
        {
          "internalType": "uint256",
          "name": "marketId",
          "type": "uint256"
        },
        {
          "internalType": "string",
          "name": "outcome",
          "type": "string"
        },
        {
          "internalType": "uint256",
          "name": "stakeAmount",
          "type": "uint256"
        },
        {
          "internalType": "uint256",
          "name": "totalStake",
          "type": "uint256"
        },
        {
          "internalType": "bool",
          "name": "claimed",
          "type": "bool"
        }
      ],
      "stateMutability": "view",
      "type": "function"
    },
    {
      "inputs": [],
      "name": "claimAuthSigner",
      "outputs": [
        {
          "internalType": "address",
          "name": "",
          "type": "address"
        }
      ],
      "stateMutability": "view",
      "type": "function"
    },
    {
      "inputs": [],
      "name": "claimPredictionWinsPool",
      "outputs": [
        {
          "internalType": "uint256",
          "name": "",
          "type": "uint256"
        }
      ],
      "stateMutability": "view",
      "type": "function"
    },
    {
      "inputs": [
        {
          "internalType": "uint256",
          "name": "",
          "type": "uint256"
        },
        {
          "internalType": "address",
          "name": "",
          "type": "address"
        }
      ],
      "name": "claimableBalances",
      "outputs": [
        {
          "internalType": "uint256",
          "name": "",
          "type": "uint256"
        }
      ],
      "stateMutability": "view",
      "type": "function"
    },
    {
      "inputs": [
        {
          "internalType": "uint256",
          "name": "",
          "type": "uint256"
        },
        {
          "internalType": "address",
          "name": "",
          "type": "address"
        }
      ],
      "name": "claimableBoost",
      "outputs": [
        {
          "internalType": "uint256",
          "name": "",
          "type": "uint256"
        }
      ],
      "stateMutability": "view",
      "type": "function"
    },
    {
      "inputs": [
        {
          "internalType": "uint256",
          "name": "",
          "type": "uint256"
        },
        {
          "internalType": "address",
          "name": "",
          "type": "address"
        }
      ],
      "name": "claimableMarket",
      "outputs": [
        {
          "internalType": "uint256",
          "name": "",
          "type": "uint256"
        }
      ],
      "stateMutability": "view",
      "type": "function"
    },
    {
      "inputs": [],
      "name": "deployer",
      "outputs": [
        {
          "internalType": "address",
          "name": "",
          "type": "address"
        }
      ],
      "stateMutability": "view",
      "type": "function"
    },
    {
      "inputs": [],
      "name": "freeJackpotFee",
      "outputs": [
        {
          "internalType": "uint256",
          "name": "",
          "type": "uint256"
        }
      ],
      "stateMutability": "view",
      "type": "function"
    },
    {
      "inputs": [
        {
          "internalType": "address",
          "name": "",
          "type": "address"
        }
      ],
      "name": "jackpotBalances",
      "outputs": [
        {
          "internalType": "uint256",
          "name": "",
          "type": "uint256"
        }
      ],
      "stateMutability": "view",
      "type": "function"
    },
    {
      "inputs": [],
      "name": "jackpotPool",
      "outputs": [
        {
          "internalType": "uint256",
          "name": "",
          "type": "uint256"
        }
      ],
      "stateMutability": "view",
      "type": "function"
    },
    {
      "inputs": [],
      "name": "marketPlatformFee",
      "outputs": [
        {
          "internalType": "uint256",
          "name": "",
          "type": "uint256"
        }
      ],
      "stateMutability": "view",
      "type": "function"
    },
    {
      "inputs": [
        {
          "internalType": "uint256",
          "name": "",
          "type": "uint256"
        },
        {
          "internalType": "address",
          "name": "",
          "type": "address"
        },
        {
          "internalType": "string",
          "name": "",
          "type": "string"
        }
      ],
      "name": "marketPositions",
      "outputs": [
        {
          "internalType": "address",
          "name": "user",
          "type": "address"
        },
        {
          "internalType": "string",
          "name": "outcome",
          "type": "string"
        },
        {
          "internalType": "uint256",
          "name": "shares",
          "type": "uint256"
        },
        {
          "internalType": "uint256",
          "name": "totalInvested",
          "type": "uint256"
        }
      ],
      "stateMutability": "view",
      "type": "function"
    },
    {
      "inputs": [
        {
          "internalType": "uint256",
          "name": "",
          "type": "uint256"
        }
      ],
      "name": "markets",
      "outputs": [
        {
          "internalType": "uint256",
          "name": "marketId",
          "type": "uint256"
        },
        {
          "internalType": "bool",
          "name": "isPoll",
          "type": "bool"
        },
        {
          "internalType": "enum WeRgame.MarketStatus",
          "name": "status",
          "type": "uint8"
        },
        {
          "internalType": "uint256",
          "name": "totalLiquidity",
          "type": "uint256"
        },
        {
          "internalType": "bool",
          "name": "resolved",
          "type": "bool"
        },
        {
          "internalType": "string",
          "name": "winningOption",
          "type": "string"
        },
        {
          "internalType": "uint256",
          "name": "createdAt",
          "type": "uint256"
        },
        {
          "internalType": "uint256",
          "name": "resolvedAt",
          "type": "uint256"
        }
      ],
      "stateMutability": "view",
      "type": "function"
    },
    {
      "inputs": [],
      "name": "nextMarketId",
      "outputs": [
        {
          "internalType": "uint256",
          "name": "",
          "type": "uint256"
        }
      ],
      "stateMutability": "view",
      "type": "function"
    },
    {
      "inputs": [
        {
          "internalType": "uint256",
          "name": "",
          "type": "uint256"
        },
        {
          "internalType": "string",
          "name": "",
          "type": "string"
        }
      ],
      "name": "orderbookLiquidityNo",
      "outputs": [
        {
          "internalType": "uint256",
          "name": "",
          "type": "uint256"
        }
      ],
      "stateMutability": "view",
      "type": "function"
    },
    {
      "inputs": [
        {
          "internalType": "uint256",
          "name": "",
          "type": "uint256"
        },
        {
          "internalType": "string",
          "name": "",
          "type": "string"
        }
      ],
      "name": "orderbookLiquidityYes",
      "outputs": [
        {
          "internalType": "uint256",
          "name": "",
          "type": "uint256"
        }
      ],
      "stateMutability": "view",
      "type": "function"
    },
    {
      "inputs": [
        {
          "internalType": "uint256",
          "name": "",
          "type": "uint256"
        },
        {
          "internalType": "string",
          "name": "",
          "type": "string"
        }
      ],
      "name": "orderbookSharesNo",
      "outputs": [
        {
          "internalType": "uint256",
          "name": "",
          "type": "uint256"
        }
      ],
      "stateMutability": "view",
      "type": "function"
    },
    {
      "inputs": [
        {
          "internalType": "uint256",
          "name": "",
          "type": "uint256"
        },
        {
          "internalType": "string",
          "name": "",
          "type": "string"
        }
      ],
      "name": "orderbookSharesYes",
      "outputs": [
        {
          "internalType": "uint256",
          "name": "",
          "type": "uint256"
        }
      ],
      "stateMutability": "view",
      "type": "function"
    },
    {
      "inputs": [],
      "name": "platformFee",
      "outputs": [
        {
          "internalType": "uint256",
          "name": "",
          "type": "uint256"
        }
      ],
      "stateMutability": "view",
      "type": "function"
    },
    {
      "inputs": [],
      "name": "superAdmin",
      "outputs": [
        {
          "internalType": "address",
          "name": "",
          "type": "address"
        }
      ],
      "stateMutability": "view",
      "type": "function"
    },
    {
      "inputs": [
        {
          "internalType": "address",
          "name": "",
          "type": "address"
        }
      ],
      "name": "tradingVaultBalances",
      "outputs": [
        {
          "internalType": "uint256",
          "name": "",
          "type": "uint256"
        }
      ],
      "stateMutability": "view",
      "type": "function"
    },
    {
      "inputs": [],
      "name": "usdc",
      "outputs": [
        {
          "internalType": "contract IERC20",
          "name": "",
          "type": "address"
        }
      ],
      "stateMutability": "view",
      "type": "function"
    },
    {
      "inputs": [
        {
          "internalType": "bytes32",
          "name": "",
          "type": "bytes32"
        }
      ],
      "name": "usedAuthPredictionClaims",
      "outputs": [
        {
          "internalType": "bool",
          "name": "",
          "type": "bool"
        }
      ],
      "stateMutability": "view",
      "type": "function"
    },
    {
      "inputs": [
        {
          "internalType": "bytes32",
          "name": "",
          "type": "bytes32"
        }
      ],
      "name": "usedJackpotWithdrawNonces",
      "outputs": [
        {
          "internalType": "bool",
          "name": "",
          "type": "bool"
        }
      ],
      "stateMutability": "view",
      "type": "function"
    },
    {
      "inputs": [
        {
          "internalType": "bytes32",
          "name": "",
          "type": "bytes32"
        }
      ],
      "name": "usedOrderbookClaimKeys",
      "outputs": [
        {
          "internalType": "bool",
          "name": "",
          "type": "bool"
        }
      ],
      "stateMutability": "view",
      "type": "function"
    },
    {
      "inputs": [
        {
          "internalType": "bytes32",
          "name": "",
          "type": "bytes32"
        }
      ],
      "name": "usedTradingVaultWithdrawNonces",
      "outputs": [
        {
          "internalType": "bool",
          "name": "",
          "type": "bool"
        }
      ],
      "stateMutability": "view",
      "type": "function"
    },
    {
      "inputs": [
        {
          "internalType": "bool",
          "name": "isPoll",
          "type": "bool"
        },
        {
          "internalType": "string[]",
          "name": "options",
          "type": "string[]"
        }
      ],
      "name": "createMarket",
      "outputs": [
        {
          "internalType": "uint256",
          "name": "",
          "type": "uint256"
        }
      ],
      "stateMutability": "nonpayable",
      "type": "function"
    },
    {
      "inputs": [
        {
          "internalType": "uint256",
          "name": "marketId",
          "type": "uint256"
        },
        {
          "internalType": "enum WeRgame.MarketStatus",
          "name": "status",
          "type": "uint8"
        }
      ],
      "name": "updateMarketStatus",
      "outputs": [],
      "stateMutability": "nonpayable",
      "type": "function"
    },
    {
      "inputs": [
        {
          "internalType": "uint256",
          "name": "marketId",
          "type": "uint256"
        },
        {
          "internalType": "string",
          "name": "option",
          "type": "string"
        },
        {
          "internalType": "uint256",
          "name": "amount",
          "type": "uint256"
        }
      ],
      "name": "addLiquidity",
      "outputs": [],
      "stateMutability": "payable",
      "type": "function"
    },
    {
      "inputs": [
        {
          "internalType": "uint256",
          "name": "marketId",
          "type": "uint256"
        },
        {
          "internalType": "string",
          "name": "winningOption",
          "type": "string"
        }
      ],
      "name": "resolveMarket",
      "outputs": [],
      "stateMutability": "nonpayable",
      "type": "function"
    },
    {
      "inputs": [
        {
          "internalType": "address",
          "name": "signer",
          "type": "address"
        }
      ],
      "name": "setClaimAuthSigner",
      "outputs": [],
      "stateMutability": "nonpayable",
      "type": "function"
    },
    {
      "inputs": [
        {
          "internalType": "uint256",
          "name": "_platformFee",
          "type": "uint256"
        },
        {
          "internalType": "uint256",
          "name": "_boostJackpotFee",
          "type": "uint256"
        },
        {
          "internalType": "uint256",
          "name": "_marketPlatformFee",
          "type": "uint256"
        },
        {
          "internalType": "uint256",
          "name": "_freeJackpotFee",
          "type": "uint256"
        }
      ],
      "name": "setFees",
      "outputs": [],
      "stateMutability": "nonpayable",
      "type": "function"
    },
    {
      "inputs": [],
      "name": "getFees",
      "outputs": [
        {
          "internalType": "uint256",
          "name": "_platformFee",
          "type": "uint256"
        },
        {
          "internalType": "uint256",
          "name": "_boostJackpotFee",
          "type": "uint256"
        },
        {
          "internalType": "uint256",
          "name": "_marketPlatformFee",
          "type": "uint256"
        },
        {
          "internalType": "uint256",
          "name": "_freeJackpotFee",
          "type": "uint256"
        }
      ],
      "stateMutability": "view",
      "type": "function"
    },
    {
      "inputs": [
        {
          "internalType": "uint256",
          "name": "marketId",
          "type": "uint256"
        }
      ],
      "name": "getMarketOptions",
      "outputs": [
        {
          "internalType": "string[]",
          "name": "",
          "type": "string[]"
        }
      ],
      "stateMutability": "view",
      "type": "function"
    },
    {
      "inputs": [
        {
          "internalType": "uint256",
          "name": "marketId",
          "type": "uint256"
        },
        {
          "internalType": "string",
          "name": "outcome",
          "type": "string"
        },
        {
          "internalType": "uint256",
          "name": "amount",
          "type": "uint256"
        }
      ],
      "name": "stakeBoost",
      "outputs": [],
      "stateMutability": "nonpayable",
      "type": "function"
    },
    {
      "inputs": [
        {
          "internalType": "uint256",
          "name": "marketId",
          "type": "uint256"
        },
        {
          "internalType": "string",
          "name": "outcome",
          "type": "string"
        },
        {
          "internalType": "uint256",
          "name": "amount",
          "type": "uint256"
        }
      ],
      "name": "addBoostStake",
      "outputs": [],
      "stateMutability": "nonpayable",
      "type": "function"
    },
    {
      "inputs": [
        {
          "internalType": "uint256",
          "name": "marketId",
          "type": "uint256"
        },
        {
          "internalType": "string",
          "name": "outcome",
          "type": "string"
        },
        {
          "internalType": "uint256",
          "name": "amount",
          "type": "uint256"
        }
      ],
      "name": "withdrawBoostStake",
      "outputs": [],
      "stateMutability": "nonpayable",
      "type": "function"
    },
    {
      "inputs": [
        {
          "internalType": "uint256",
          "name": "marketId",
          "type": "uint256"
        },
        {
          "internalType": "string",
          "name": "outcome",
          "type": "string"
        }
      ],
      "name": "claimBoost",
      "outputs": [],
      "stateMutability": "nonpayable",
      "type": "function"
    },
    {
      "inputs": [
        {
          "internalType": "uint256",
          "name": "marketId",
          "type": "uint256"
        },
        {
          "internalType": "address",
          "name": "user",
          "type": "address"
        },
        {
          "internalType": "uint256",
          "name": "amount",
          "type": "uint256"
        }
      ],
      "name": "setClaimableBalance",
      "outputs": [],
      "stateMutability": "nonpayable",
      "type": "function"
    },
    {
      "inputs": [
        {
          "internalType": "uint256",
          "name": "marketId",
          "type": "uint256"
        },
        {
          "internalType": "address",
          "name": "user",
          "type": "address"
        },
        {
          "internalType": "uint256",
          "name": "amount",
          "type": "uint256"
        }
      ],
      "name": "setClaimableBoost",
      "outputs": [],
      "stateMutability": "nonpayable",
      "type": "function"
    },
    {
      "inputs": [
        {
          "internalType": "uint256",
          "name": "marketId",
          "type": "uint256"
        },
        {
          "internalType": "address",
          "name": "user",
          "type": "address"
        },
        {
          "internalType": "uint256",
          "name": "amount",
          "type": "uint256"
        }
      ],
      "name": "setClaimableMarket",
      "outputs": [],
      "stateMutability": "nonpayable",
      "type": "function"
    },
    {
      "inputs": [
        {
          "internalType": "uint256",
          "name": "marketId",
          "type": "uint256"
        },
        {
          "internalType": "bool",
          "name": "isBoost",
          "type": "bool"
        }
      ],
      "name": "claimPredictionWins",
      "outputs": [],
      "stateMutability": "nonpayable",
      "type": "function"
    },
    {
      "inputs": [
        {
          "internalType": "uint256",
          "name": "marketId",
          "type": "uint256"
        },
        {
          "internalType": "bool",
          "name": "isBoost",
          "type": "bool"
        },
        {
          "internalType": "uint256",
          "name": "amount",
          "type": "uint256"
        },
        {
          "internalType": "bytes32",
          "name": "predictionId",
          "type": "bytes32"
        },
        {
          "internalType": "uint256",
          "name": "deadline",
          "type": "uint256"
        },
        {
          "internalType": "bytes",
          "name": "signature",
          "type": "bytes"
        }
      ],
      "name": "claimPredictionWinsWithAuth",
      "outputs": [],
      "stateMutability": "nonpayable",
      "type": "function"
    },
    {
      "inputs": [
        {
          "internalType": "uint256",
          "name": "amount",
          "type": "uint256"
        },
        {
          "internalType": "bytes32",
          "name": "nonce",
          "type": "bytes32"
        },
        {
          "internalType": "uint256",
          "name": "deadline",
          "type": "uint256"
        },
        {
          "internalType": "bytes",
          "name": "signature",
          "type": "bytes"
        }
      ],
      "name": "withdrawJackpotWithAuth",
      "outputs": [],
      "stateMutability": "nonpayable",
      "type": "function"
    },
    {
      "inputs": [
        {
          "internalType": "uint256",
          "name": "amount",
          "type": "uint256"
        }
      ],
      "name": "fundClaimPredictionWinsPool",
      "outputs": [],
      "stateMutability": "nonpayable",
      "type": "function"
    },
    {
      "inputs": [
        {
          "internalType": "address payable",
          "name": "to",
          "type": "address"
        },
        {
          "internalType": "uint256",
          "name": "amount",
          "type": "uint256"
        }
      ],
      "name": "withdrawFromClaimPredictionWinsPool",
      "outputs": [],
      "stateMutability": "nonpayable",
      "type": "function"
    },
    {
      "inputs": [
        {
          "internalType": "uint256",
          "name": "marketId",
          "type": "uint256"
        },
        {
          "internalType": "string",
          "name": "outcome",
          "type": "string"
        },
        {
          "internalType": "uint256",
          "name": "amount",
          "type": "uint256"
        }
      ],
      "name": "buyMarketShares",
      "outputs": [],
      "stateMutability": "nonpayable",
      "type": "function"
    },
    {
      "inputs": [
        {
          "internalType": "uint256",
          "name": "marketId",
          "type": "uint256"
        },
        {
          "internalType": "string",
          "name": "outcome",
          "type": "string"
        },
        {
          "internalType": "uint256",
          "name": "shares",
          "type": "uint256"
        }
      ],
      "name": "sellMarketShares",
      "outputs": [],
      "stateMutability": "nonpayable",
      "type": "function"
    },
    {
      "inputs": [
        {
          "internalType": "uint256",
          "name": "marketId",
          "type": "uint256"
        },
        {
          "internalType": "string",
          "name": "outcome",
          "type": "string"
        }
      ],
      "name": "claimMarket",
      "outputs": [],
      "stateMutability": "nonpayable",
      "type": "function"
    },
    {
      "inputs": [
        {
          "internalType": "uint256",
          "name": "marketId",
          "type": "uint256"
        },
        {
          "internalType": "string",
          "name": "outcome",
          "type": "string"
        }
      ],
      "name": "getPrice",
      "outputs": [
        {
          "internalType": "uint256",
          "name": "",
          "type": "uint256"
        }
      ],
      "stateMutability": "view",
      "type": "function"
    },
    {
      "inputs": [
        {
          "internalType": "uint256",
          "name": "marketId",
          "type": "uint256"
        },
        {
          "internalType": "address",
          "name": "user",
          "type": "address"
        },
        {
          "internalType": "string",
          "name": "outcome",
          "type": "string"
        }
      ],
      "name": "getUserPosition",
      "outputs": [
        {
          "internalType": "uint256",
          "name": "shares",
          "type": "uint256"
        },
        {
          "internalType": "uint256",
          "name": "totalInvested",
          "type": "uint256"
        }
      ],
      "stateMutability": "view",
      "type": "function"
    },
    {
      "inputs": [
        {
          "internalType": "uint256",
          "name": "marketId",
          "type": "uint256"
        },
        {
          "internalType": "address",
          "name": "user",
          "type": "address"
        },
        {
          "internalType": "string",
          "name": "outcome",
          "type": "string"
        }
      ],
      "name": "getBoostPrediction",
      "outputs": [
        {
          "internalType": "address",
          "name": "_user",
          "type": "address"
        },
        {
          "internalType": "uint256",
          "name": "_totalStake",
          "type": "uint256"
        },
        {
          "internalType": "bool",
          "name": "_claimed",
          "type": "bool"
        }
      ],
      "stateMutability": "view",
      "type": "function"
    },
    {
      "inputs": [
        {
          "internalType": "uint256",
          "name": "amount",
          "type": "uint256"
        }
      ],
      "name": "fundJackpotPool",
      "outputs": [],
      "stateMutability": "nonpayable",
      "type": "function"
    },
    {
      "inputs": [
        {
          "internalType": "uint256",
          "name": "amount",
          "type": "uint256"
        }
      ],
      "name": "withdrawJackpot",
      "outputs": [],
      "stateMutability": "nonpayable",
      "type": "function"
    },
    {
      "inputs": [
        {
          "internalType": "address",
          "name": "user",
          "type": "address"
        },
        {
          "internalType": "uint256",
          "name": "amount",
          "type": "uint256"
        }
      ],
      "name": "setJackpotBalance",
      "outputs": [],
      "stateMutability": "nonpayable",
      "type": "function"
    },
    {
      "inputs": [
        {
          "internalType": "address payable",
          "name": "to",
          "type": "address"
        },
        {
          "internalType": "uint256",
          "name": "amount",
          "type": "uint256"
        }
      ],
      "name": "withdrawFromJackpotPool",
      "outputs": [],
      "stateMutability": "nonpayable",
      "type": "function"
    },
    {
      "inputs": [],
      "name": "getContractBalance",
      "outputs": [
        {
          "internalType": "uint256",
          "name": "",
          "type": "uint256"
        }
      ],
      "stateMutability": "view",
      "type": "function"
    },
    {
      "inputs": [
        {
          "internalType": "address payable",
          "name": "to",
          "type": "address"
        },
        {
          "internalType": "uint256",
          "name": "amount",
          "type": "uint256"
        }
      ],
      "name": "transferFunds",
      "outputs": [],
      "stateMutability": "nonpayable",
      "type": "function"
    },
    {
      "inputs": [
        {
          "internalType": "address",
          "name": "_superAdmin",
          "type": "address"
        }
      ],
      "name": "setSuperAdmin",
      "outputs": [],
      "stateMutability": "nonpayable",
      "type": "function"
    },
    {
      "inputs": [
        {
          "internalType": "address",
          "name": "admin",
          "type": "address"
        },
        {
          "internalType": "bool",
          "name": "enabled",
          "type": "bool"
        }
      ],
      "name": "setAdmin",
      "outputs": [],
      "stateMutability": "nonpayable",
      "type": "function"
    },
    {
      "inputs": [
        {
          "internalType": "address",
          "name": "user",
          "type": "address"
        }
      ],
      "name": "getJackpotBalance",
      "outputs": [
        {
          "internalType": "uint256",
          "name": "",
          "type": "uint256"
        }
      ],
      "stateMutability": "view",
      "type": "function"
    },
    {
      "inputs": [
        {
          "internalType": "uint256",
          "name": "marketId",
          "type": "uint256"
        },
        {
          "internalType": "address",
          "name": "user",
          "type": "address"
        }
      ],
      "name": "getClaimableBalance",
      "outputs": [
        {
          "internalType": "uint256",
          "name": "",
          "type": "uint256"
        }
      ],
      "stateMutability": "view",
      "type": "function"
    },
    {
      "inputs": [
        {
          "internalType": "uint256",
          "name": "amount",
          "type": "uint256"
        }
      ],
      "name": "depositTradingVault",
      "outputs": [],
      "stateMutability": "nonpayable",
      "type": "function"
    },
    {
      "inputs": [
        {
          "internalType": "uint256",
          "name": "amount",
          "type": "uint256"
        },
        {
          "internalType": "bytes32",
          "name": "nonce",
          "type": "bytes32"
        },
        {
          "internalType": "uint256",
          "name": "deadline",
          "type": "uint256"
        },
        {
          "internalType": "bytes",
          "name": "signature",
          "type": "bytes"
        }
      ],
      "name": "withdrawTradingVaultWithAuth",
      "outputs": [],
      "stateMutability": "nonpayable",
      "type": "function"
    },
    {
      "inputs": [
        {
          "internalType": "uint256",
          "name": "marketId",
          "type": "uint256"
        },
        {
          "components": [
            {
              "internalType": "string",
              "name": "option",
              "type": "string"
            },
            {
              "internalType": "uint256",
              "name": "yesAmount",
              "type": "uint256"
            },
            {
              "internalType": "uint256",
              "name": "noAmount",
              "type": "uint256"
            }
          ],
          "internalType": "struct WeRgame.OrderbookLiquidityRow[]",
          "name": "rows",
          "type": "tuple[]"
        }
      ],
      "name": "batchAddOrderbookLiquidity",
      "outputs": [],
      "stateMutability": "nonpayable",
      "type": "function"
    },
    {
      "inputs": [
        {
          "internalType": "uint256",
          "name": "marketId",
          "type": "uint256"
        },
        {
          "components": [
            {
              "internalType": "address",
              "name": "user",
              "type": "address"
            },
            {
              "internalType": "string",
              "name": "positionKey",
              "type": "string"
            },
            {
              "internalType": "int256",
              "name": "vaultDelta",
              "type": "int256"
            },
            {
              "internalType": "int256",
              "name": "sharesDelta",
              "type": "int256"
            },
            {
              "internalType": "int256",
              "name": "investedDelta",
              "type": "int256"
            }
          ],
          "internalType": "struct WeRgame.OrderbookSettlementLeg[]",
          "name": "legs",
          "type": "tuple[]"
        },
        {
          "internalType": "uint256",
          "name": "feeToClaimPool",
          "type": "uint256"
        },
        {
          "internalType": "uint256",
          "name": "feeToJackpotPool",
          "type": "uint256"
        }
      ],
      "name": "applyOrderbookSettlements",
      "outputs": [],
      "stateMutability": "nonpayable",
      "type": "function"
    },
    {
      "inputs": [
        {
          "internalType": "uint256",
          "name": "marketId",
          "type": "uint256"
        },
        {
          "components": [
            {
              "internalType": "address",
              "name": "user",
              "type": "address"
            },
            {
              "internalType": "string",
              "name": "positionKey",
              "type": "string"
            },
            {
              "internalType": "int256",
              "name": "vaultDelta",
              "type": "int256"
            },
            {
              "internalType": "int256",
              "name": "sharesDelta",
              "type": "int256"
            },
            {
              "internalType": "int256",
              "name": "investedDelta",
              "type": "int256"
            }
          ],
          "internalType": "struct WeRgame.OrderbookSettlementLeg[]",
          "name": "legs",
          "type": "tuple[]"
        },
        {
          "internalType": "uint256",
          "name": "collateralToClaimPool",
          "type": "uint256"
        }
      ],
      "name": "finalizeResolvedMarketSettlements",
      "outputs": [],
      "stateMutability": "nonpayable",
      "type": "function"
    },
    {
      "inputs": [],
      "name": "getTreasurySnapshot",
      "outputs": [
        {
          "internalType": "uint256",
          "name": "usdcBalance",
          "type": "uint256"
        },
        {
          "internalType": "uint256",
          "name": "claimPoolBalance",
          "type": "uint256"
        },
        {
          "internalType": "uint256",
          "name": "jackpotPoolBalance",
          "type": "uint256"
        }
      ],
      "stateMutability": "view",
      "type": "function"
    },
    {
      "inputs": [
        {
          "internalType": "uint256",
          "name": "marketId",
          "type": "uint256"
        },
        {
          "internalType": "uint256",
          "name": "amount",
          "type": "uint256"
        },
        {
          "internalType": "string",
          "name": "positionKey",
          "type": "string"
        },
        {
          "internalType": "bytes32",
          "name": "predictionId",
          "type": "bytes32"
        },
        {
          "internalType": "uint256",
          "name": "deadline",
          "type": "uint256"
        },
        {
          "internalType": "bytes",
          "name": "signature",
          "type": "bytes"
        }
      ],
      "name": "claimOrderbookPositionWithAuth",
      "outputs": [],
      "stateMutability": "nonpayable",
      "type": "function"
    }
  ],
  "bytecode": "0x60a0346200019f57601f6200539238819003918201601f19168301916001600160401b03831184841017620001a3578084926020946040528339810103126200019f57516001600160a01b038116908190036200019f575f601b558015620001655760018060a01b03199033825f5416175f5533826001541617600155335f52600260205260405f20600160ff198254161790556080526103e86003556101f480600455806005556006556001600e55339060115416176011556040516151da9081620001b882396080518181816106d6015281816108a6015281816110e70152818161117d0152818161135f01528181611522015281816115ca015281816116b101528181611c5b01528181611e3601528181611f4d015281816121370152818161265a015281816128e5015281816129ba01528181612a9c01528181612d4c01528181612fa501528181613482015281816138d1015281816139c50152613c740152f35b60405162461bcd60e51b815260206004820152601260248201527124b73b30b634b2102aa9a221903a37b5b2b760711b6044820152606490fd5b5f80fd5b634e487b7160e01b5f52604160045260245ffdfe60806040526004361015610011575f80fd5b5f3560e01c8063012e29381461047a578063019d6694146103355780630325bbe814610475578063033a7e061461047057806305d45d5f1461046b5780630cd83c6e1461046657806312497adb14610461578063157000521461045c57806318bb1f29146104575780631d38461c1461045257806326232a2e1461044d578063277c02aa1461044857806329575f6a146104435780632b96b6ae1461043e5780632e82ff04146104395780632fd09b6f146104345780633577392e1461042f578063392a90941461042a5780633a08ff3b146104255780633d165aaa146104205780633e413bee1461041b5780633ed7240814610416578063406ef2ef14610411578063429b62e51461040c57806348d0eca2146104075780634b0bddd21461040257806357765582146103fd5780636523acf4146103f8578063663370c1146103f357806367427750146103ee5780636822d823146103b2578063698d2d76146103e95780636a4d9a0c146103e45780636f9fb98a146103df5780636fcba377146103da5780637a73103d146103d5578063814fb790146103d0578063990dc9db146103cb5780639ef69e8c146103c65780639f1d0246146103c1578063a2ddbca5146103bc578063ad21a669146103b7578063b00e0395146103b2578063b05b32ae146103ad578063b1283e77146103a8578063b3e60a26146103a3578063b3eb52531461039e578063b5f3d19c14610399578063b8f8f2ca14610394578063bd0237b11461038f578063c01744e91461038a578063c08e7c7114610385578063c1730ee114610380578063c20499ff1461037b578063c75bb72414610376578063ce1ea42b14610371578063d437441e1461036c578063d5f3948814610367578063db83112714610362578063db8d55f11461035d578063dcc8dee914610358578063dd75444814610353578063df1aa9051461034e578063e44da3af14610349578063e981012314610344578063ecf7137d1461033f578063ef9f8d261461033a578063f87dd74b14610335578063f95d530b14610330578063fb5bdd491461032b5763fbf91a1414610326575f80fd5b613adf565b613903565b6137a3565b610749565b6135f2565b6135b7565b613588565b613559565b61323c565b613214565b6131ad565b613174565b61307d565b613056565b613039565b612f23565b612da4565b612bf2565b612b12565b612a71565b612915565b612827565b6125aa565b61237e565b61233a565b6122be565b61224f565b6121b9565b611b57565b61216b565b612081565b611fc1565b611f86565b611ebc565b611e98565b611dfb565b611cd0565b611c30565b611bc9565b611b92565b611927565b61190a565b6118c6565b6118a2565b611838565b611766565b611726565b611709565b6115f9565b6115b5565b611591565b6114d8565b6112b7565b611224565b6111f5565b611145565b610eba565b610e65565b610dfc565b610ddf565b610d75565b610cc8565b610b28565b610b0b565b610adc565b610a35565b6107e9565b610796565b61054f565b634e487b7160e01b5f52604160045260245ffd5b90601f801991011681019081106001600160401b038211176104b457604052565b61047f565b9291926001600160401b0382116104b457604051916104e2601f8201601f191660200184610493565b8294818452818301116104fe578281602093845f960137010152565b5f80fd5b9080601f830112156104fe5781602061051d933591016104b9565b90565b9060406003198301126104fe5760043591602435906001600160401b0382116104fe5761051d91600401610502565b346104fe5761060261056036610520565b815f93929352600760205261057a60405f20541515613cc3565b610586601b5415613d07565b6001601b556105d56105c160076105a5865f52600760205260405f2090565b6105bb6105b6600683015460ff1690565b613d53565b01610cab565b602081519101208251602084012014613d95565b6105fc6105ea845f52600860205260405f2090565b335f9081526020919091526040902090565b90610bbc565b80549091906106209033906001600160a01b039081165b1614613dd7565b61064d6004600584019361064461063f61063b875460ff1690565b1590565b613e19565b01541515613e57565b6106a361067b33610666845f52600a60205260405f2090565b9060018060a01b03165f5260205260405f2090565b5492610688841515613e97565b610696846010541015613eda565b805460ff19166001179055565b5f6106ba33610666845f52600a60205260405f2090565b556106cf6106ca83601054613f3a565b601055565b6106fa82337f0000000000000000000000000000000000000000000000000000000000000000614d63565b60405191825233917f20e28d0ec25cd6e7b3ce931db96b9a33e940a54a32e1c0b8379e7660a2828c699080602081015b0390a36107365f601b55565b005b6001600160a01b038116036104fe57565b346104fe5760403660031901126104fe57602061078d60243561076b81610738565b6004355f52600a835260405f209060018060a01b03165f5260205260405f2090565b54604051908152f35b346104fe575f3660031901126104fe576020600554604051908152f35b9060606003198301126104fe5760043591602435906001600160401b0382116104fe576107e291600401610502565b9060443590565b346104fe5761092461088561093961093461090461092c6106ca61080c366107b3565b98919790885f52600760205261082760405f20541515613cc3565b6108328a1515613f47565b610870610857600161084c8c5f52600760205260405f2090565b015460081c60ff1690565b610860816121d6565b801590811561096e575b50613f93565b6105fc6105ea8a5f52600860205260405f2090565b805490989061089e906001600160a01b03163314613fd3565b6108ca8130337f0000000000000000000000000000000000000000000000000000000000000000614de9565b60046108e36108db6003548461402f565b612710900490565b9586926108ff6108f76108db85548461402f565b988992613f3a565b613f3a565b996109108b151561406d565b0161091c8a82546140b9565b9055886140b9565b6010546140b9565b600f546140b9565b600f55565b60405191825233917fafc28a1adb0af8d9ee797f710633dbeb0799ebb3270743a3c4a31111f1ffbc909080602081015b0390a3005b6001915061097b816121d6565b145f61086a565b5f5b8381106109935750505f910152565b8181015183820152602001610984565b906020916109bc81518092818552858086019101610982565b601f01601f1916010190565b90808251908181526020809101926020808460051b8301019501935f915b8483106109f65750505050505090565b9091929394958480610a14600193601f198682030187528a516109a3565b98019301930191949392906109e6565b90602061051d9281815201906109c8565b346104fe576020806003193601126104fe5760043590815f5260078152604091610a6460405f20541515613cc3565b5f5260078152600260405f2001805490610a7d82611faa565b92610a8b6040519485610493565b8284525f9182528082208185015b848410610ab25760405180610aae8882610a24565b0390f35b60018381928951610ace81610ac78189610c1a565b0382610493565b815201920193019290610a99565b346104fe5760203660031901126104fe576004355f526013602052602060ff60405f2054166040519015158152f35b346104fe575f3660031901126104fe576020601054604051908152f35b346104fe5760203660031901126104fe57600435610b4581610738565b5f546001600160a01b039190610b5e90831633146140c6565b16610b6a811515614102565b6001600160601b0360a01b60015416176001555f80f35b60606003198201126104fe5760043591602435610b9d81610738565b91604435906001600160401b0382116104fe5761051d91600401610502565b602090610bd6928260405194838680955193849201610982565b82019081520301902090565b90600182811c92168015610c10575b6020831014610bfc57565b634e487b7160e01b5f52602260045260245ffd5b91607f1691610bf1565b80545f9392610c2882610be2565b918282526020936001916001811690815f14610c8c5750600114610c4e575b5050505050565b90939495505f92919252835f2092845f945b838610610c7857505050500101905f80808080610c47565b805485870183015294019385908201610c60565b60ff19168685015250505090151560051b010191505f80808080610c47565b90610cc6610cbf9260405193848092610c1a565b0383610493565b565b346104fe57610cfe6105fc610cdc36610b81565b92915f52600960205260405f209060018060a01b03165f5260205260405f2090565b60018060a01b0381541660405191610d2483610d1d8160018501610c1a565b0384610493565b60036002820154910154610d4a60405194859485526080602086015260808501906109a3565b91604084015260608301520390f35b60609060031901126104fe57600435906024356107e281610738565b346104fe57610dc4610d8636610d59565b929160018060a01b035f541633148015610dc7575b610da490614140565b5f52600b60205260405f209060018060a01b03165f5260205260405f2090565b55005b50335f9081526002602052604090205460ff16610d9b565b346104fe575f3660031901126104fe576020600354604051908152f35b346104fe5760403660031901126104fe57600435610e1981610738565b5f546001600160a01b039190821633148015610e4d575b610e3990614140565b165f52600d60205260243560405f20555f80f35b50335f9081526002602052604090205460ff16610e30565b346104fe575f3660031901126104fe576001546040516001600160a01b039091168152602090f35b9181601f840112156104fe578235916001600160401b0383116104fe57602083818601950101116104fe57565b346104fe5760c03660031901126104fe576024356004356001600160401b036044358181116104fe57610ef1903690600401610e8d565b6064949194356084359360a4359081116104fe57610f13903690600401610e8d565b9490865f52600760205260405f20541515610f2d90613cc3565b601b5415610f3a90613d07565b6001601b556011546001600160a01b039690871693610f5a851515614179565b83421115610f67906141bc565b610f728715156141f2565b6040516001600160601b03193360601b166020820190815260348201839052600260548084019190915282528891601f199190610fb0607482610493565b51902095610fc6875f52601660205260405f2090565b5460ff1615610fd490613e19565b8b8d60405194859360208501978d309446943397610ff2988d61422c565b0390810182526110029082610493565b5190209161100f92614e65565b6001600160a01b03169081151595611057876110d195610696957f01009e1bdaf798125523e8dfa68dfc4c46e9d3eebc55e7b123757baeb46676999a61113b575b505061427e565b6110796105b660066110718b5f52600760205260405f2090565b015460ff1690565b611099611092336106668b5f52600960205260405f2090565b868b6142be565b80549091166001600160a01b031633148061112e575b61111c575b506110c3856010541015613eda565b5f52601660205260405f2090565b6110e06106ca83601054613f3a565b61110b82337f0000000000000000000000000000000000000000000000000000000000000000614d63565b61072a6040519283923397846142d7565b6003815f60028194015501555f6110b4565b50600281015415156110af565b1490505f80611050565b346104fe5760203660031901126104fe57600435611165601b5415613d07565b6001601b55611175811515613f47565b6111a18130337f0000000000000000000000000000000000000000000000000000000000000000614de9565b335f52601460205260405f208054908282018092116111f057556040519081527fd537095d36052e8eac258e2230bac449b49fb5f034a431d7114fdc1ab3786f4560203392a26107365f601b55565b613f26565b346104fe5760203660031901126104fe576004355f526012602052602060ff60405f2054166040519015158152f35b346104fe5760406112716105fc61123a36610b81565b9291805f526007602052611252865f20541515613cc3565b5f526009602052845f209060018060a01b03165f5260205260405f2090565b6003600282015491015482519182526020820152f35b9181601f840112156104fe578235916001600160401b0383116104fe576020808501948460051b0101116104fe57565b346104fe576040806003193601126104fe57600435906024356001600160401b0381116104fe576112ec903690600401611287565b919060018060a01b035f5416331480156114c1575b61130a90614140565b835f526020926007602052611323835f20541515613cc3565b600191611340610857600161084c895f52600760205260405f2090565b5f945f5b8381106114895750611357861515614340565b6113838630337f0000000000000000000000000000000000000000000000000000000000000000614de9565b5f5b8381106113c057855187815288907f6b10a9fec29d0efd07b4aabbce21a618ccab013b141804be2f6bf1fc67c0a4309080602081015b0390a2005b806113e06113d96113d388948888614319565b80614379565b36916104b9565b6113f26113ed828c614f77565b6143ab565b836113fe838888614319565b0135611456575b87611411838888614319565b013561141f575b5001611385565b61144e61144689611431858a8a614319565b0135926105fc8d5f52601860205260405f2090565b9182546140b9565b90555f611418565b83611462838888614319565b013561148261144661147c8d5f52601760205260405f2090565b84610bbc565b9055611405565b956114ba85916114b48461149e8b8989614319565b0135896114ac8c8a8a614319565b0135906140b9565b906140b9565b9601611344565b50335f90815260026020528290205460ff16611301565b346104fe5760203660031901126104fe576001546004359061150f90336001600160a01b0391821614908115611584575b506143e8565b61151a811515613f47565b6115468130337f0000000000000000000000000000000000000000000000000000000000000000614de9565b6010548181018091116111f0577f4986ef868ee9659d51f041598f943aa46a8bd02efd1912472d5990a090d3732191602091601055604051908152a1005b90505f541633145f611509565b346104fe57602061078d6115a436610520565b905f526017835260405f2090610bbc565b346104fe575f3660031901126104fe576040517f00000000000000000000000000000000000000000000000000000000000000006001600160a01b03168152602090f35b346104fe57600461166761160c366107b3565b93919290835f52600760205261162760405f20541515613cc3565b611633601b5415613d07565b6001601b55611652610857600161084c875f52600760205260405f2090565b6105fc6105ea855f52600860205260405f2090565b805461167f9033906001600160a01b03908116610619565b016116928382546108ff82821015614426565b90556116aa6106ca836010546108ff82821015613eda565b6116d582337f0000000000000000000000000000000000000000000000000000000000000000614d63565b60405191825233917fbcbb1a32e70b3a4c7e261bf1aa686d9baefa195ed797e1225c008ae953d6f1cf90806020810161072a565b346104fe575f3660031901126104fe576020600e54604051908152f35b346104fe5760203660031901126104fe5760043561174381610738565b60018060a01b03165f526002602052602060ff60405f2054166040519015158152f35b346104fe5760403660031901126104fe5760043560243560048110156104fe5760207fd067ebf1565b7b7f7e3c08ccb7f355defc06fd6a3e5e3da1f0a43c8a235350ac9160018060a01b035f541633148015611803575b6117c690614140565b835f52600782526117dc60405f20541515613cc3565b835f52600782526117f381600160405f2001614467565b61180060405180926121f4565ba2005b50335f90815260028352604090205460ff166117bd565b6024359081151582036104fe57565b6004359081151582036104fe57565b346104fe5760403660031901126104fe5761073660043561185881610738565b61186061181a565b5f5490916001600160a01b039161187a90831633146140c6565b16611886811515614102565b5f52600260205260405f209060ff801983541691151516179055565b346104fe57602061078d6118b536610520565b905f52601a835260405f2090610bbc565b346104fe5760403660031901126104fe57602061078d6024356118e881610738565b6004355f52600c835260405f209060018060a01b03165f5260205260405f2090565b346104fe575f3660031901126104fe576020600454604051908152f35b346104fe5760603660031901126104fe576024356001600160401b0381116104fe57611957903690600401611287565b9060018060a01b035f541633148015611b3f575b61197490614140565b6004355f526020600760205261198f60405f20541515613cc3565b61199b601b5415613d07565b6001601b556119bc6105b660066110716004355f52600760205260405f2090565b5f915f5b848110611a4757846119dd6119d7604435876144ea565b15614505565b604435611a31575b6040805191825260443560208301525f90820152600435907ff16f569f7fb6cac6c3cb740184f9b94cf82d3b473d2f1156c0c3628bedd4982b9080606081015b0390a26107365f601b55565b611a426106ca6044356010546140b9565b6119e5565b80828682611aa3611a63611a5e6001978587614486565b6144a8565b98611a76878060a01b038b1615156144b2565b611a8e6040611a86858789614486565b01358b614ff2565b6040611a9b848688614486565b0135906144ea565b97876060611ab2848688614486565b013515801590611b28575b611acd575b5050505050016119c0565b846080611b0b856060611b0282611afa611b1598611af18d9c611b1e9f8e90614486565b90810190614379565b9b9097614486565b0135968c614486565b01359436916104b9565b906004356150b0565b8286825f87611ac2565b506080611b36848688614486565b01351515611abd565b50335f9081526002602052604090205460ff1661196b565b346104fe5760203660031901126104fe57600435611b7481610738565b60018060a01b03165f52600d602052602060405f2054604051908152f35b346104fe576020611bc1611ba536610520565b90805f5260078452611bbc60405f20541515613cc3565b614546565b604051908152f35b346104fe57610dc4611bda36610d59565b929160018060a01b035f541633148015611c18575b611bf890614140565b5f52600c60205260405f209060018060a01b03165f5260205260405f2090565b50335f9081526002602052604090205460ff16611bef565b346104fe575f3660031901126104fe576040516370a0823160e01b81523060048201526020816024817f00000000000000000000000000000000000000000000000000000000000000006001600160a01b03165afa8015611ccb576020915f91611c9e575b50604051908152f35b611cbe9150823d8411611cc4575b611cb68183610493565b81019061459e565b5f611c95565b503d611cac565b6145ad565b346104fe5760803660031901126104fe576004356024356044359160643592611d0360018060a01b035f541633146140c6565b612710808311159081611df0575b81611de5575b81611dda575b5015611d95577f16e6f67290546b8dd0e587f4b7f67d4f61932ae17ffd8c60d3509dbc05c175fe93611d9091611d5284600355565b611d5b85600455565b611d6481600555565b611d6d82600655565b604051948594859094939260609260808301968352602083015260408201520152565b0390a1005b60405162461bcd60e51b815260206004820152601760248201527f466565732063616e6e6f742065786365656420313030250000000000000000006044820152606490fd5b90508411155f611d1d565b808311159150611d17565b808511159150611d11565b346104fe5760203660031901126104fe57600435611e2360018060a01b035f541633146140c6565b611e2e811515613f47565b611e5a8130337f0000000000000000000000000000000000000000000000000000000000000000614de9565b600f548181018091116111f0577f2076cd8bd7c147f4b7bb2b5e2dd0db46fb74246bc4c4e3ded824202bfff5ca5791602091600f55604051908152a1005b346104fe57602061078d611eab36610520565b905f526019835260405f2090610bbc565b346104fe5760403660031901126104fe57600435611ed981610738565b600154602435917f8c9a4f13b67cb64d7c6aa1ae0c9bf07694af521a28b93e7060020810ab4bc59f916020916001600160a01b0391821633148015611f7a575b611f22906143e8565b1692611f2f8415156145b8565b611f3b308514156145f8565b611f46811515613f47565b611f7181857f0000000000000000000000000000000000000000000000000000000000000000614d63565b604051908152a2005b505f5482163314611f19565b346104fe57602061078d611f9936610520565b905f526018835260405f2090610bbc565b6001600160401b0381116104b45760051b60200190565b346104fe5760403660031901126104fe57611fda611829565b6024906001600160401b0382358181116104fe57366023820112156104fe5780600401359361200885611faa565b946120166040519687610493565b8086526020936024602088019260051b850101933685116104fe5760248101925b85841061205b57610aae61204b8a8a614843565b6040519081529081906020820190565b83358381116104fe5787916120768392883691870101610502565b815201930192612037565b346104fe5760403660031901126104fe5760043561209e81610738565b5f54602435916001600160a01b03916120ba90831633146140c6565b6120c6601b5415613d07565b6001601b5516906120d88215156145b8565b6120e4308314156145f8565b6120ef811515613f47565b600f546120fe82821015614962565b8181039081116111f0577f05388187d2d8839bf46fead5ad128385c82076ad81b57a1278382a2f77ca244491602091600f5561215b81857f0000000000000000000000000000000000000000000000000000000000000000614d63565b604051908152a26107365f601b55565b346104fe5760203660031901126104fe5760043561218881610738565b5f546001600160a01b0391906121a190831633146140c6565b166001600160601b0360a01b60115416176011555f80f35b346104fe575f3660031901126104fe576020600f54604051908152f35b600411156121e057565b634e487b7160e01b5f52602160045260245ffd5b9060048210156121e05752565b9490919361222b60e09794612245969b9a999b6101009589521515602089015260408801906121f4565b6060860152151560808501528060a08501528301906109a3565b9460c08201520152565b346104fe5760203660031901126104fe576004355f52600760205260405f208054610aae60018301549260058101549060ff6006820154166040519061229c82610cbf8160078701610c1a565b600960088401549301549360405197889760ff808360081c1692169089612201565b346104fe57606061230d6105fc6122d436610b81565b9291805f5260076020526122ed60405f20541515613cc3565b5f52600860205260405f209060018060a01b03165f5260205260405f2090565b60018060a01b038154169060ff600560048301549201541690604051928352602083015215156040820152f35b346104fe5760403660031901126104fe57602061078d60243561235c81610738565b6004355f52600b835260405f209060018060a01b03165f5260205260405f2090565b346104fe5760803660031901126104fe576024356001600160401b0381116104fe576123ae903690600401611287565b5f546001600160a01b031633148015612592575b6123cb90614140565b6004355f5260076020526123e460405f20541515613cc3565b6123f0601b5415613d07565b6001601b55612411610857600161084c6004355f52600760205260405f2090565b5f805b8281106124bf575061243761243d916124316064356044356140b9565b906144ea565b156149ae565b6044356124a9575b606435612493575b60408051918252604435602083015260643590820152600435907ff16f569f7fb6cac6c3cb740184f9b94cf82d3b473d2f1156c0c3628bedd4982b908060608101611a25565b6124a4610934606435600f546140b9565b61244d565b6124ba6106ca6044356010546140b9565b612445565b8061250b6124d3611a5e6001948789614486565b936124e6848060a01b03861615156144b2565b6124fe60406124f685898b614486565b013586614ff2565b6040611a9b84888a614486565b9284866060928361251d868585614486565b01351580159061257b575b612537575b5050505001612414565b611b15612572946080611b0b8861255c612552828a8a614486565b6020810190614379565b98909461256a83838b614486565b013597614486565b5f84868261252d565b506080612589868585614486565b01351515612528565b50335f9081526002602052604090205460ff166123c2565b346104fe576125b8366107b3565b91805f52602060076020526125d260405f20541515613cc3565b6125dd841515613f47565b6125ef825f52600760205260405f2090565b600194612607610857600184015460ff9060081c1690565b5f955f60028401948554915b8281106127c7575b505050506106ca612782916126527f65b9cf5504284839513abe58c29b419750bf6617216734ca4c0aa61a06c717849697986149f1565b61267e8130337f0000000000000000000000000000000000000000000000000000000000000000614de9565b61271c60046126ae6126956108db6005548661402f565b6108ff6126a76108db6006548861402f565b9186613f3a565b956126ed8b60058301998a54908115155f146127b557506126df6126d96126e4936003870190610bbc565b54614018565b614063565b6126df89614018565b976126fb600383018d610bbc565b6127068982546140b9565b90556127138882546140b9565b90550189610bbc565b6127278682546140b9565b9055600361274a612744336106668b5f52600960205260405f2090565b8a610bbc565b80546001600160a01b031615612793575b6002810161276a8882546140b9565b9055016127788582546140b9565b90556010546140b9565b610969604051928392339784614a2f565b80546001600160a01b031916331781556127b08a60018301614716565b61275b565b90506127c2915054614042565b6126e4565b6127da6127d482896146b2565b50610cab565b8281519101208951838b0120146127f2578301612613565b509197506106ca91508290506126527f65b9cf5504284839513abe58c29b419750bf6617216734ca4c0aa61a06c7178461261b565b346104fe5760403660031901126104fe5760043561284481610738565b600154602435916001600160a01b0391821633148015612909575b612868906143e8565b612874601b5415613d07565b6001601b5516906128868215156145b8565b612892308314156145f8565b61289d811515613f47565b6010546128ac82821015614962565b8181039081116111f0577f9b4720e539e7a1f0094cfce31d8cc4e3f6a63afdbe9350a2636b0edd879c83259160209160105561215b81857f0000000000000000000000000000000000000000000000000000000000000000614d63565b505f548216331461285f565b61291e366107b3565b825f93929352602092600760205261293b60405f20541515613cc3565b612946821515613f47565b612958835f52600760205260405f2090565b60018181015461296d9060081c60ff16610857565b5f955f90600284018054925b838110612a15575b50877faa83f946898046e98d04323d1f949f879cd43a774cb0981f1025ce3caa9afc8c88886005896129b28f6143ab565b6129de8430337f0000000000000000000000000000000000000000000000000000000000000000614de9565b6129eb6003820184610bbc565b6129f68582546140b9565b905501612a048382546140b9565b90556113bb60405192839283614a51565b612a226127d482846146b2565b83815191012087518489012014612a3a578401612979565b509297508392506129b291507faa83f946898046e98d04323d1f949f879cd43a774cb0981f1025ce3caa9afc8c905060055f612981565b346104fe575f3660031901126104fe576040516370a0823160e01b81523060048201526020816024817f00000000000000000000000000000000000000000000000000000000000000006001600160a01b03165afa908115611ccb575f91612af3575b50601054600f5460408051938452602084019290925290820152606090f35b612b0c915060203d602011611cc457611cb68183610493565b5f612ad4565b346104fe57612b486105fc612b2636610b81565b92915f52600860205260405f209060018060a01b03165f5260205260405f2090565b60018060a01b03815416600182015491604051612b6c81610ac78160028601610c1a565b600382015491612ba160ff6005600484015493015416926040519687968752602087015260c0604087015260c08601906109a3565b9260608501526080840152151560a08301520390f35b9060806003198301126104fe57600435916024359160443591606435906001600160401b0382116104fe57612bee91600401610e8d565b9091565b346104fe57612cef612d2a610696612ce3612d00612c0f36612bb7565b90612c22601b9a949793959a5415613d07565b6001601b556011546001600160a01b031694612c3f861515614179565b612c4b814211156141bc565b612c568b15156141f2565b612c7d612c7861063b612c718b5f52601560205260405f2090565b5460ff1690565b614a6d565b6040516001600160601b031933606090811b821660208401908152603484018f9052605484018c9052607484019490945246609484015230901b1660b4820152600160c8820152612cdb8160e881015b03601f198101835282610493565b519020614e65565b6001600160a01b031690565b90811515918261113b57505061427e565b335f908152601460205260409020612d1c908590541015614aa6565b5f52601560205260405f2090565b335f908152601460205260409020612d43828254613f3a565b9055612d7081337f0000000000000000000000000000000000000000000000000000000000000000614d63565b60405190815233907fc806a53d83b50a9163d7117c35333b998202cee5dffd5dea16a45f725f26c26e908060208101611a25565b346104fe57612db236610520565b5f546001600160a01b031633148015612f0b575b612dcf90614140565b815f5260206007602052612de860405f20541515613cc3565b612dfa835f52600760205260405f2090565b906001906001830191612e276003612e17855460ff9060081c1690565b612e20816121d6565b1415614ae7565b5f915f90600286018054925b838110612eac575b897f2ec1f84b4079525f1ab2216f53a16f520efec75c91c517667151e55bbea7b9ec6113bb8b8b612e7e8c612e6f8d614b26565b805461ff001916610300179055565b60068101805460ff19166001179055612e9a8260078301614716565b60094291015560405191829182614b6b565b612eb96127d482846146b2565b8381519101208951848b012014612ed1578401612e33565b50929350612e7e9250849150612e6f90506113bb7f2ec1f84b4079525f1ab2216f53a16f520efec75c91c517667151e55bbea7b9ec612e3b565b50335f9081526002602052604090205460ff16612dc6565b346104fe5760203660031901126104fe57600435612f43601b5415613d07565b6001601b55612f53811515613f47565b612f6181600f541015614b7c565b335f52600d6020528060405f205410612ffd57335f908152600d60205260409020612f8d828254613f3a565b9055612f9e61093482600f54613f3a565b612fc981337f0000000000000000000000000000000000000000000000000000000000000000614d63565b60405190815233907fd40b323ed8b019a73e488040e2e991ed6218cbfa9561673125581fc377809187908060208101611a25565b60405162461bcd60e51b8152602060048201526014602482015273496e73756666696369656e742062616c616e636560601b6044820152606490fd5b346104fe575f3660031901126104fe576020600654604051908152f35b346104fe575f3660031901126104fe575f546040516001600160a01b039091168152602090f35b346104fe57612cef613165610696612ce361314961309a36612bb7565b906130ad601b9a949793959a5415613d07565b6001601b556011546001600160a01b0316946130ca861515614179565b6130d6814211156141bc565b6130e18b15156141f2565b6130fc612c7861063b612c718b5f52601360205260405f2090565b6040516001600160601b031933606090811b821660208401908152603484018f9052605484018c9052607484019490945246609484015230901b1660b4820152612cdb8160c88101612ccd565b61315784600f541015614b7c565b5f52601360205260405f2090565b612f9e61093482600f54613f3a565b346104fe575f3660031901126104fe57600354600454600554600654604080519485526020850193909352918301526060820152608090f35b346104fe57610dc46131be36610d59565b929160018060a01b035f5416331480156131fc575b6131dc90614140565b5f52600a60205260405f209060018060a01b03165f5260205260405f2090565b50335f9081526002602052604090205460ff166131d3565b346104fe575f3660031901126104fe576011546040516001600160a01b039091168152602090f35b346104fe5760c03660031901126104fe5760043561325861181a565b90604435916064359060843560a4356001600160401b0381116104fe57613283903690600401610e8d565b90855f52600760205260405f2054151561329c90613cc3565b601b54156132a990613d07565b6001601b556011546001600160a01b03908116959092906132cb871515614179565b844211156132d8906141bc565b6132e38915156141f2565b6040516001600160601b03193360601b1660208201908152603480830184905282528791601f199190613317605482610493565b5190209661332d885f52601260205260405f2090565b5460ff161561333b90613e19565b8a8c604051948593602085019730934693339661339e978c969390959260c99895926001600160601b0319809860601b1689526014890152151560f81b6034880152603587015260558601526075850152609584015260601b1660b58201520190565b0390810182526133ae9082610493565b519020916133bb92614e65565b6001600160a01b0316928315158061346c96610696966133e09361113b57505061427e565b6133f760076105a5885f52600760205260405f2090565b9015613502576134509161341d6005926105fc336106668b5f52600860205260405f2090565b80549091166001600160a01b03163314806134f5575b806134da575b61344290614c14565b01805460ff19166001179055565b61345e856010541015613eda565b5f52601260205260405f2090565b61347b6106ca83601054613f3a565b6134a682337f0000000000000000000000000000000000000000000000000000000000000000614d63565b60405191825233917fa3097d366dbda72a300109ce4eb4df25c8b2709e0b539bcfaf91102fff0e817490806020810161072a565b506134426134ee61063b8484015460ff1690565b9050613439565b5060048101541515613433565b5f916135206003926105fc336106668b5f52600960205260405f2090565b80549091166001600160a01b031633148061354c575b61353f90614bc8565b8260028201550155613450565b5060028101541515613536565b346104fe5760203660031901126104fe576004355f526015602052602060ff60405f2054166040519015158152f35b346104fe5760203660031901126104fe576004355f526016602052602060ff60405f2054166040519015158152f35b346104fe5760203660031901126104fe576004356135d481610738565b60018060a01b03165f526014602052602060405f2054604051908152f35b346104fe5760403660031901126104fe5760043561360e61181a565b90805f52600760205261362660405f20541515613cc3565b613632601b5415613d07565b6001601b5561364e60076105a5835f52600760205260405f2090565b91156137125761346c60056136946136716105ea855f52600b60205260405f2090565b549461367e861515613e97565b6105fc33610666875f52600860205260405f2090565b80546001600160a01b0316331480613705575b806136ea575b6136b690614c60565b6136c4856010541015613eda565b5f6136db33610666875f52600b60205260405f2090565b5501805460ff19166001179055565b506136b66136fe61063b8484015460ff1690565b90506136ad565b50600481015415156136a7565b61376a61375061372d6105ea845f52600c60205260405f2090565b549361373a851515613e97565b6105fc33610666865f52600960205260405f2090565b80546001600160a01b031633149081613795575b50614c60565b613778826010541015613eda565b5f61378f33610666845f52600c60205260405f2090565b5561346c565b60029150015415155f613764565b346104fe576137b136610520565b90805f5260076020526137c960405f20541515613cc3565b6137d5601b5415613d07565b6001601b556138086137f460076105a5845f52600760205260405f2090565b602081519101208351602085012014613d95565b61384f600261382b6138256105ea855f52600960205260405f2090565b85610bbc565b80546138469033906001600160a01b039081165b1614614ca0565b01541515614ce0565b7fb293892389f4a468a51fa597d7cd2627d3fa920ae52f4843616707f64a80417661072a61388933610666855f52600a60205260405f2090565b54613895811515613e97565b6138a3816010541015613eda565b5f6138ba33610666875f52600a60205260405f2090565b556138ca6106ca82601054613f3a565b6138f581337f0000000000000000000000000000000000000000000000000000000000000000614d63565b604051918291339683614a51565b346104fe57613911366107b3565b825f939293526020600760205261392d60405f20541515613cc3565b613938821515613f47565b61394a835f52600760205260405f2090565b600190613962610857600183015460ff9060081c1690565b5f9260025f92018054925b838110613a9c575b50505050506105fc6138f5610934613a1a61092c6106ca6109247f9af5caefb8cea3d0910b8a9636232b856d7fadb93249d5b0bfbeab7c38f79216986139bd610969996149f1565b6139e98130337f0000000000000000000000000000000000000000000000000000000000000000614de9565b8a613a3b8d6139fd6108db6003548661402f565b9788946108ff613a126108db6004548461402f565b9a8b92613f3a565b9a8b93613a2885151561406d565b61066633915f52600860205260405f2090565b80548e908e906001600160a01b0316613a835782546001600160a01b0319163317835560049291613a7491600184015560028301614716565b82600382015501555b876140b9565b50506004915001613a958982546140b9565b9055613a7d565b613aa96127d482846146b2565b8381519101208951848b012014613ac157840161396d565b509293506105fc92506138f591506109349050613a1a61092c613975565b346104fe577f2136d4ee254f7d800aae52b9b653ccd229ae15988bf2d1371a31db50132a69e9613b0e366107b3565b825f949294526007602052613b2860405f20541515613cc3565b613b34601b5415613d07565b6001601b55613b4b835f52600760205260405f2090565b90613b61610857600184015460ff9060081c1690565b613b7f613b796105ea865f52600960205260405f2090565b86610bbc565b8054613b979033906001600160a01b0390811661383f565b613c5560036002830192613bae8585541015614d21565b613c12600460058801978b89548015155f14613ca957613bde6108db916126df6126d9613be4958b880190610bbc565b8a61402f565b98613bf18287018e610bbc565b613bfc8b8254613f3a565b9055613c098a8254613f3a565b9055018a610bbc565b613c1d868254613f3a565b9055613c2a858554613f3a565b8094550191613c4f835491613c4986613c43858a61402f565b926140b9565b90614063565b90613f3a565b9055613c6d6106ca836010546108ff82821015613eda565b613c9882337f0000000000000000000000000000000000000000000000000000000000000000614d63565b61072a604051928392339784614a2f565b5050613be46108db613cbe6002840154614042565b613bde565b15613cca57565b60405162461bcd60e51b815260206004820152601560248201527413585c9ad95d08191bd95cc81b9bdd08195e1a5cdd605a1b6044820152606490fd5b15613d0e57565b60405162461bcd60e51b815260206004820152601f60248201527f5265656e7472616e637947756172643a207265656e7472616e742063616c6c006044820152606490fd5b15613d5a57565b60405162461bcd60e51b815260206004820152601360248201527213585c9ad95d081b9bdd081c995cdbdb1d9959606a1b6044820152606490fd5b15613d9c57565b60405162461bcd60e51b81526020600482015260136024820152724e6f742077696e6e696e67206f7574636f6d6560681b6044820152606490fd5b15613dde57565b60405162461bcd60e51b8152602060048201526013602482015272139bc81c1c99591a58dd1a5bdb88199bdd5b99606a1b6044820152606490fd5b15613e2057565b60405162461bcd60e51b815260206004820152600f60248201526e105b1c9958591e4818db185a5b5959608a1b6044820152606490fd5b15613e5e57565b60405162461bcd60e51b81526020600482015260116024820152704e6f207374616b6520746f20636c61696d60781b6044820152606490fd5b15613e9e57565b60405162461bcd60e51b81526020600482015260146024820152734e6f20636c61696d61626c652062616c616e636560601b6044820152606490fd5b15613ee157565b60405162461bcd60e51b815260206004820152601760248201527f496e73756666696369656e7420636c61696d20706f6f6c0000000000000000006044820152606490fd5b634e487b7160e01b5f52601160045260245ffd5b919082039182116111f057565b15613f4e57565b60405162461bcd60e51b815260206004820152601d60248201527f416d6f756e74206d7573742062652067726561746572207468616e20300000006044820152606490fd5b15613f9a57565b60405162461bcd60e51b81526020600482015260116024820152704d61726b6574206e6f742061637469766560781b6044820152606490fd5b15613fda57565b60405162461bcd60e51b815260206004820152601660248201527527379032bc34b9ba34b73390383932b234b1ba34b7b760511b6044820152606490fd5b90612710918281029281840414901517156111f057565b818102929181159184041417156111f057565b801561404f576127100490565b634e487b7160e01b5f52601260045260245ffd5b811561404f570490565b1561407457565b60405162461bcd60e51b815260206004820152601a60248201527f5374616b6520746f6f20736d616c6c20616674657220666565730000000000006044820152606490fd5b919082018092116111f057565b156140cd57565b60405162461bcd60e51b815260206004820152600d60248201526c27b7363c903232b83637bcb2b960991b6044820152606490fd5b1561410957565b60405162461bcd60e51b815260206004820152600f60248201526e496e76616c6964206164647265737360881b6044820152606490fd5b1561414757565b60405162461bcd60e51b815260206004820152600a60248201526927b7363c9030b236b4b760b11b6044820152606490fd5b1561418057565b60405162461bcd60e51b815260206004820152601460248201527310db185a5b481cda59db995c881b9bdd081cd95d60621b6044820152606490fd5b156141c357565b60405162461bcd60e51b8152602060048201526007602482015266115e1c1a5c995960ca1b6044820152606490fd5b156141f957565b60405162461bcd60e51b815260206004820152600b60248201526a16995c9bc8185b5bdd5b9d60aa1b6044820152606490fd5b9193859360e89a9799969298956001600160601b0319809a60601b168552601485015260348401526054830137019460548601526074850152609484015260601b1660b4820152600360c88201520190565b1561428557565b60405162461bcd60e51b8152602060048201526011602482015270496e76616c6964207369676e617475726560781b6044820152606490fd5b6020919283604051948593843782019081520301902090565b9392918060609160209360408852816040890152838801375f828288010152601f8019910116850101930152565b634e487b7160e01b5f52603260045260245ffd5b919081101561433b5760051b81013590605e19813603018212156104fe570190565b614305565b1561434757565b60405162461bcd60e51b815260206004820152600a60248201526916995c9bc81d1bdd185b60b21b6044820152606490fd5b903590601e19813603018212156104fe57018035906001600160401b0382116104fe576020019181360383136104fe57565b156143b257565b60405162461bcd60e51b815260206004820152600e60248201526d24b73b30b634b21037b83a34b7b760911b6044820152606490fd5b156143ef57565b60405162461bcd60e51b815260206004820152600f60248201526e27b7363c9039bab832b920b236b4b760891b6044820152606490fd5b1561442d57565b60405162461bcd60e51b8152602060048201526012602482015271496e73756666696369656e74207374616b6560701b6044820152606490fd5b9060048110156121e05761ff0082549160081b169061ff001916179055565b919081101561433b5760051b81013590609e19813603018212156104fe570190565b3561051d81610738565b156144b957565b60405162461bcd60e51b81526020600482015260096024820152682d32b937903ab9b2b960b91b6044820152606490fd5b9190915f83820193841291129080158216911516176111f057565b1561450c57565b60405162461bcd60e51b815260206004820152601260248201527146696e616c697a6520696d62616c616e636560701b6044820152606490fd5b5f52600760205260405f2090600582015490811561458b57600361456c92930190610bbc565b5490612710918281029281840414901517156111f05761051d91614063565b505060020154801561404f576127100490565b908160209103126104fe575190565b6040513d5f823e3d90fd5b156145bf57565b60405162461bcd60e51b8152602060048201526011602482015270125b9d985b1a59081c9958da5c1a595b9d607a1b6044820152606490fd5b156145ff57565b60405162461bcd60e51b815260206004820152601760248201527f43616e6e6f742073656e6420746f20636f6e74726163740000000000000000006044820152606490fd5b1561464b57565b60405162461bcd60e51b815260206004820152601c60248201527f4d7573742068617665206174206c656173742032206f7074696f6e73000000006044820152606490fd5b5f1981146111f05760010190565b805182101561433b5760209160051b010190565b805482101561433b575f5260205f2001905f90565b601f82116146d457505050565b5f5260205f20906020601f840160051c8301931061470c575b601f0160051c01905b818110614701575050565b5f81556001016146f6565b90915081906146ed565b91909182516001600160401b0381116104b45761473d816147378454610be2565b846146c7565b602080601f831160011461477e5750819061476f9394955f92614773575b50508160011b915f199060031b1c19161790565b9055565b015190505f8061475b565b90601f19831695614792855f5260205f2090565b925f905b8882106147cd575050836001959697106147b5575b505050811b019055565b01515f1960f88460031b161c191690555f80806147ab565b80600185968294968601518155019501930190614796565b8054680100000000000000008110156104b457614807916001820181556146b2565b91909161481757610cc691614716565b634e487b7160e01b5f525f60045260245ffd5b60409061051d93921515815281602082015201906109c8565b614851600283511015614644565b600e5491829161486861486384614690565b600e55565b61487a835f52600760205260405f2090565b83815560016148a76001830161489c85829060ff801983541691151516179055565b805461ff0019169055565b426008830155805f92600281016004600383019201925b614900575b5050505050907f41671df7de79859ef92d2dc3d0936d3890eea9d4dda0c64e7d375277f2e5e7a1916148fa6040519283928361482a565b0390a290565b9091929396865188101561495c57508387614928614921899a84999a61469e565b51846147e5565b5f61493d85614937848d61469e565b51610bbc565b555f61494d86614937848d61469e565b550193929190889796956148be565b966148c3565b1561496957565b60405162461bcd60e51b815260206004820152601960248201527f496e73756666696369656e7420706f6f6c2062616c616e6365000000000000006044820152606490fd5b156149b557565b60405162461bcd60e51b8152602060048201526014602482015273536574746c656d656e7420696d62616c616e636560601b6044820152606490fd5b156149f857565b60405162461bcd60e51b815260206004820152600f60248201526e496e76616c6964206f7574636f6d6560881b6044820152606490fd5b614a47604092959493956060835260608301906109a3565b9460208201520152565b929190614a686020916040865260408601906109a3565b930152565b15614a7457565b60405162461bcd60e51b815260206004820152600a602482015269139bdb98d9481d5cd95960b21b6044820152606490fd5b15614aad57565b60405162461bcd60e51b8152602060048201526012602482015271125b9cdd59999a58da595b9d081d985d5b1d60721b6044820152606490fd5b15614aee57565b60405162461bcd60e51b815260206004820152601060248201526f105b1c9958591e481c995cdbdb1d995960821b6044820152606490fd5b15614b2d57565b60405162461bcd60e51b815260206004820152601660248201527524b73b30b634b2103bb4b73734b7339037b83a34b7b760511b6044820152606490fd5b90602061051d9281815201906109a3565b15614b8357565b60405162461bcd60e51b815260206004820152601960248201527f496e73756666696369656e74206a61636b706f7420706f6f6c000000000000006044820152606490fd5b15614bcf57565b60405162461bcd60e51b815260206004820152601860248201527f4e6f742061206d61726b6574207061727469636970616e7400000000000000006044820152606490fd5b15614c1b57565b60405162461bcd60e51b815260206004820152601760248201527f4e6f74206120626f6f7374207061727469636970616e740000000000000000006044820152606490fd5b15614c6757565b60405162461bcd60e51b8152602060048201526011602482015270139bdd0818481c185c9d1a58da5c185b9d607a1b6044820152606490fd5b15614ca757565b60405162461bcd60e51b8152602060048201526011602482015270139bc81c1bdcda5d1a5bdb88199bdd5b99607a1b6044820152606490fd5b15614ce757565b60405162461bcd60e51b81526020600482015260126024820152714e6f2073686172657320746f20636c61696d60701b6044820152606490fd5b15614d2857565b60405162461bcd60e51b8152602060048201526013602482015272496e73756666696369656e742073686172657360681b6044820152606490fd5b60405163a9059cbb60e01b5f9081526001600160a01b039384166004526024949094529260209060448180855af160015f5114811615614dca575b8360405215614dac57505050565b635274afe760e01b8352166001600160a01b03166004820152602490fd5b6001811516614de057813b15153d151616614d9e565b833d5f823e3d90fd5b6040516323b872dd60e01b5f9081526001600160a01b03938416600452938316602452604494909452909160209060648180855af160015f5114811615614e3d575b836040525f60605215614dac57505050565b6001811516614de057813b15153d151616614e2b565b60ff601b9116019060ff82116111f057565b9190614e729136916104b9565b6041815103614f32576020915f91838101519060606040820151910151841a92601b8410614f1b575b90614f0891604051614ede81612ccd8a82019485603c917f19457468657265756d205369676e6564204d6573736167653a0a3332000000008252601c8201520190565b51902092604051948594859094939260ff6060936080840197845216602083015260408201520152565b838052039060015afa15611ccb575f5190565b9290614f29614f0892614e53565b93909150614e9b565b60405162461bcd60e51b815260206004820152601860248201527f496e76616c6964207369676e6174757265206c656e67746800000000000000006044820152606490fd5b5f526020600760205260409160405f209260025f94018054945b858110614fa2575050505050505f90565b610ac7614fbe614fb283856146b2565b50855192838092610c1a565b85815191012084518686012014614fd757600101614f91565b505050505050600190565b600160ff1b81146111f0575f0390565b5f82131561501f576001600160a01b03165f90815260146020526040902080549182018092116111f05755565b905f811261502b575050565b61503490614fe2565b9060018060a01b0316805f5260146020526150558260405f20541015614aa6565b5f52601460205260405f2080549182039182116111f05755565b1561507657565b60405162461bcd60e51b8152602060048201526012602482015271496e76657374656420756e646572666c6f7760701b6044820152606490fd5b61147c826106666150cc939695965f52600960205260405f2090565b80549093906001600160a01b031615615173575b50505f81131561513e576150f9600283019182546140b9565b90555b5f82131561511357600361476f91019182546140b9565b905f811261511f575050565b600361512d61476f92614fe2565b92019182546108ff8282101561506f565b5f811261514c575b506150fc565b61515590614fe2565b61516b600283019182546108ff82821015614d21565b90555f615146565b83546001600160a01b0319166001600160a01b0390921691909117835561519d9060018401614716565b5f806150e056fea2646970667358221220d1ac4ce8c5a7a8576e841d50701aa317449deaadf206660163af5ea9aa3c779f64736f6c63430008180033",
  "immutableReferences": {
    "8817": [
      {
        "length": 32,
        "start": 1750
      },
      {
        "length": 32,
        "start": 2214
      },
      {
        "length": 32,
        "start": 4327
      },
      {
        "length": 32,
        "start": 4477
      },
      {
        "length": 32,
        "start": 4959
      },
      {
        "length": 32,
        "start": 5410
      },
      {
        "length": 32,
        "start": 5578
      },
      {
        "length": 32,
        "start": 5809
      },
      {
        "length": 32,
        "start": 7259
      },
      {
        "length": 32,
        "start": 7734
      },
      {
        "length": 32,
        "start": 8013
      },
      {
        "length": 32,
        "start": 8503
      },
      {
        "length": 32,
        "start": 9818
      },
      {
        "length": 32,
        "start": 10469
      },
      {
        "length": 32,
        "start": 10682
      },
      {
        "length": 32,
        "start": 10908
      },
      {
        "length": 32,
        "start": 11596
      },
      {
        "length": 32,
        "start": 12197
      },
      {
        "length": 32,
        "start": 13442
      },
      {
        "length": 32,
        "start": 14545
      },
      {
        "length": 32,
        "start": 14789
      },
      {
        "length": 32,
        "start": 15476
      }
    ]
  },
  "source": "// SPDX-License-Identifier: MIT\r\npragma solidity ^0.8.20;\r\n\r\nimport {IERC20} from \"@openzeppelin/contracts/token/ERC20/IERC20.sol\";\r\nimport {SafeERC20} from \"@openzeppelin/contracts/token/ERC20/utils/SafeERC20.sol\";\r\n\r\n/**\r\n * @title WeRgame\r\n * @dev Comprehensive smart contract for prediction market platform\r\n * Handles market creation, trading, boost predictions, and jackpot management\r\n */\r\ncontract WeRgame {\r\n    using SafeERC20 for IERC20;\r\n\r\n    address public deployer;\r\n    address public superAdmin;\r\n    mapping(address => bool) public admins;\r\n\r\n    /// @notice Platform currency token (Base USDC). All pools and payouts are denominated in this token.\r\n    IERC20 public immutable usdc;\r\n    \r\n    // Fee structure (in basis points, 10000 = 100%)\r\n    uint256 public platformFee; // For boost predictions\r\n    uint256 public boostJackpotFee;\r\n    uint256 public marketPlatformFee;\r\n    uint256 public freeJackpotFee;\r\n    \r\n    // Market status enum\r\n    enum MarketStatus {\r\n        Upcoming,\r\n        Active,\r\n        Locked,\r\n        Resolved\r\n    }\r\n    \r\n    // Market structure\r\n    struct Market {\r\n        uint256 marketId;\r\n        bool isPoll; // true for poll, false for match\r\n        MarketStatus status;\r\n        string[] options; // Options/outcomes for this market\r\n        mapping(string => uint256) liquidity; // Liquidity per option\r\n        mapping(string => uint256) shares; // Total shares per option\r\n        uint256 totalLiquidity;\r\n        bool resolved;\r\n        string winningOption; // Set when resolved\r\n        uint256 createdAt;\r\n        uint256 resolvedAt;\r\n    }\r\n    \r\n    // Boost prediction structure\r\n    struct BoostPrediction {\r\n        address user;\r\n        uint256 marketId;\r\n        string outcome;\r\n        uint256 stakeAmount;\r\n        uint256 totalStake;\r\n        bool claimed;\r\n    }\r\n    \r\n    // Market trading position\r\n    struct MarketPosition {\r\n        address user;\r\n        string outcome;\r\n        uint256 shares;\r\n        uint256 totalInvested;\r\n    }\r\n    \r\n    // Mappings\r\n    mapping(uint256 => Market) public markets;\r\n    mapping(uint256 => mapping(address => mapping(string => BoostPrediction))) public boostPredictions; // marketId => user => outcome => prediction\r\n    mapping(uint256 => mapping(address => mapping(string => MarketPosition))) public marketPositions; // marketId => user => outcome => position\r\n    mapping(uint256 => mapping(address => uint256)) public claimableBalances; // marketId => user => claimable amount (legacy/total)\r\n    mapping(uint256 => mapping(address => uint256)) public claimableBoost;    // marketId => user => boost claimable\r\n    mapping(uint256 => mapping(address => uint256)) public claimableMarket;  // marketId => user => market claimable\r\n    mapping(address => uint256) public jackpotBalances; // user => jackpot balance\r\n    \r\n    uint256 public nextMarketId;\r\n    uint256 public jackpotPool;\r\n    /// @dev Pool for paying Boost and Market prediction wins; funded by deployer and by boost stakes\r\n    uint256 public claimPredictionWinsPool;\r\n\r\n    /// @notice Backend / ops wallet that signs authorized claims (set by deployer)\r\n    address public claimAuthSigner;\r\n    /// @notice Replay protection for signature-based prediction claims\r\n    mapping(bytes32 => bool) public usedAuthPredictionClaims;\r\n    /// @notice Replay protection for signature-based jackpot withdrawals\r\n    mapping(bytes32 => bool) public usedJackpotWithdrawNonces;\r\n    /// @notice USDC credited to users for orderbook trading (deposit / settlement)\r\n    mapping(address => uint256) public tradingVaultBalances;\r\n    mapping(bytes32 => bool) public usedTradingVaultWithdrawNonces;\r\n    /// @notice Replay for orderbook position claims (separate from boost/market auth key space)\r\n    mapping(bytes32 => bool) public usedOrderbookClaimKeys;\r\n    /// @notice On-chain reference liquidity for YES/NO books per outcome option (USDC units)\r\n    mapping(uint256 => mapping(string => uint256)) public orderbookLiquidityYes;\r\n    mapping(uint256 => mapping(string => uint256)) public orderbookLiquidityNo;\r\n    mapping(uint256 => mapping(string => uint256)) public orderbookSharesYes;\r\n    mapping(uint256 => mapping(string => uint256)) public orderbookSharesNo;\r\n    \r\n    // Events\r\n    event MarketCreated(uint256 indexed marketId, bool isPoll, string[] options);\r\n    event MarketStatusUpdated(uint256 indexed marketId, MarketStatus status);\r\n    event MarketResolved(uint256 indexed marketId, string winningOption);\r\n    event LiquidityAdded(uint256 indexed marketId, string option, uint256 amount);\r\n    event FeesUpdated(uint256 platformFee, uint256 boostJackpotFee, uint256 marketPlatformFee, uint256 freeJackpotFee);\r\n    event BoostStaked(uint256 indexed marketId, address indexed user, string outcome, uint256 amount);\r\n    event BoostStakeAdded(uint256 indexed marketId, address indexed user, uint256 amount);\r\n    event BoostStakeWithdrawn(uint256 indexed marketId, address indexed user, uint256 amount);\r\n    event BoostClaimed(uint256 indexed marketId, address indexed user, uint256 amount);\r\n    event MarketBought(uint256 indexed marketId, address indexed user, string outcome, uint256 ethAmount, uint256 shares);\r\n    event MarketSold(uint256 indexed marketId, address indexed user, string outcome, uint256 shares, uint256 ethAmount);\r\n    event MarketClaimed(uint256 indexed marketId, address indexed user, string outcome, uint256 amount);\r\n    event JackpotFunded(uint256 amount);\r\n    event JackpotWithdrawn(address indexed user, uint256 amount);\r\n    event JackpotPoolWithdrawn(address indexed to, uint256 amount);\r\n    event FundsTransferred(address indexed to, uint256 amount);\r\n    event ClaimPredictionWinsPoolFunded(uint256 amount);\r\n    event ClaimPredictionWinsPoolWithdrawn(address indexed to, uint256 amount);\r\n    event PredictionWinsClaimed(uint256 indexed marketId, address indexed user, uint256 amount);\r\n    event TradingVaultDeposited(address indexed user, uint256 amount);\r\n    event TradingVaultWithdrawn(address indexed user, uint256 amount);\r\n    event OrderbookLiquidityBatchAdded(uint256 indexed marketId, uint256 totalAmount);\r\n    event OrderbookSettlementsApplied(\r\n        uint256 indexed marketId,\r\n        uint256 legs,\r\n        uint256 feeToClaimPool,\r\n        uint256 feeToJackpotPool\r\n    );\r\n    event OrderbookPositionClaimed(uint256 indexed marketId, address indexed user, string positionKey, uint256 amount);\r\n    \r\n    modifier onlyDeployer() {\r\n        require(msg.sender == deployer, \"Only deployer\");\r\n        _;\r\n    }\r\n    \r\n    modifier onlySuperAdmin() {\r\n        require(msg.sender == superAdmin || msg.sender == deployer, \"Only superAdmin\");\r\n        _;\r\n    }\r\n\r\n    modifier onlyAdmin() {\r\n        require(msg.sender == deployer || admins[msg.sender], \"Only admin\");\r\n        _;\r\n    }\r\n    \r\n    modifier validMarket(uint256 marketId) {\r\n        require(markets[marketId].marketId != 0, \"Market does not exist\");\r\n        _;\r\n    }\r\n\r\n    function _marketHasOption(uint256 marketId, string memory option) internal view returns (bool) {\r\n        Market storage market = markets[marketId];\r\n        for (uint256 i = 0; i < market.options.length; i++) {\r\n            if (keccak256(bytes(market.options[i])) == keccak256(bytes(option))) {\r\n                return true;\r\n            }\r\n        }\r\n        return false;\r\n    }\r\n\r\n    function _applyVaultDelta(address user, int256 delta) internal {\r\n        if (delta > 0) {\r\n            tradingVaultBalances[user] += uint256(delta);\r\n        } else if (delta < 0) {\r\n            uint256 dec = uint256(-delta);\r\n            require(tradingVaultBalances[user] >= dec, \"Insufficient vault\");\r\n            tradingVaultBalances[user] -= dec;\r\n        }\r\n    }\r\n\r\n    function _applyShareDelta(uint256 marketId, address user, string memory positionKey, int256 sharesDelta, int256 investedDelta) internal {\r\n        MarketPosition storage position = marketPositions[marketId][user][positionKey];\r\n        if (position.user == address(0)) {\r\n            position.user = user;\r\n            position.outcome = positionKey;\r\n        }\r\n        if (sharesDelta > 0) {\r\n            position.shares += uint256(sharesDelta);\r\n        } else if (sharesDelta < 0) {\r\n            uint256 dec = uint256(-sharesDelta);\r\n            require(position.shares >= dec, \"Insufficient shares\");\r\n            position.shares -= dec;\r\n        }\r\n        if (investedDelta > 0) {\r\n            position.totalInvested += uint256(investedDelta);\r\n        } else if (investedDelta < 0) {\r\n            uint256 dec2 = uint256(-investedDelta);\r\n            require(position.totalInvested >= dec2, \"Invested underflow\");\r\n            position.totalInvested -= dec2;\r\n        }\r\n    }\r\n    \r\n    uint256 private _locked = 0;\r\n    modifier nonReentrant() {\r\n        require(_locked == 0, \"ReentrancyGuard: reentrant call\");\r\n        _locked = 1;\r\n        _;\r\n        _locked = 0;\r\n    }\r\n\r\n    /// @dev EIP-191 personal_sign over keccak256(abi.encodePacked(...fields...)); messageHash is the **inner** hash (before \"\\x19Ethereum Signed Message:\\n32\")\r\n    function _recoverAuthSigner(bytes32 messageHash, bytes calldata signature) internal pure returns (address) {\r\n        bytes memory sig = signature;\r\n        require(sig.length == 65, \"Invalid signature length\");\r\n        bytes32 r;\r\n        bytes32 s;\r\n        uint8 v;\r\n        assembly {\r\n            r := mload(add(sig, 32))\r\n            s := mload(add(sig, 64))\r\n            v := byte(0, mload(add(sig, 96)))\r\n        }\r\n        if (v < 27) {\r\n            v += 27;\r\n        }\r\n        bytes32 ethSigned = keccak256(abi.encodePacked(\"\\x19Ethereum Signed Message:\\n32\", messageHash));\r\n        return ecrecover(ethSigned, v, r, s);\r\n    }\r\n    \r\n    constructor(address usdcToken) {\r\n        require(usdcToken != address(0), \"Invalid USDC token\");\r\n        deployer = msg.sender;\r\n        superAdmin = msg.sender;\r\n        admins[msg.sender] = true;\r\n        usdc = IERC20(usdcToken);\r\n        \r\n        // Default fees (in basis points: 1000 = 10%, 500 = 5%)\r\n        platformFee = 1000; // 10%\r\n        boostJackpotFee = 500; // 5%\r\n        marketPlatformFee = 500; // 5%\r\n        freeJackpotFee = 500; // 5%\r\n        \r\n        nextMarketId = 1;\r\n        // Default to deployer; change with setClaimAuthSigner if backend uses a dedicated ops key.\r\n        claimAuthSigner = msg.sender;\r\n    }\r\n    \r\n    /**\r\n     * @dev Create a new market (match or poll)\r\n     * @param isPoll true if poll, false if match\r\n     * @param options array of outcome options\r\n     */\r\n    function createMarket(bool isPoll, string[] memory options) external returns (uint256) {\r\n        require(options.length >= 2, \"Must have at least 2 options\");\r\n        \r\n        uint256 marketId = nextMarketId++;\r\n        Market storage market = markets[marketId];\r\n        market.marketId = marketId;\r\n        market.isPoll = isPoll;\r\n        market.status = MarketStatus.Upcoming;\r\n        market.createdAt = block.timestamp;\r\n        \r\n        // Initialize options\r\n        for (uint256 i = 0; i < options.length; i++) {\r\n            market.options.push(options[i]);\r\n            market.liquidity[options[i]] = 0;\r\n            market.shares[options[i]] = 0;\r\n        }\r\n        \r\n        emit MarketCreated(marketId, isPoll, options);\r\n        return marketId;\r\n    }\r\n    \r\n    /**\r\n     * @dev Update market status\r\n     */\r\n    function updateMarketStatus(uint256 marketId, MarketStatus status) external onlyAdmin validMarket(marketId) {\r\n        markets[marketId].status = status;\r\n        emit MarketStatusUpdated(marketId, status);\r\n    }\r\n    \r\n    /**\r\n     * @dev Add initial liquidity to a market option\r\n     */\r\n    function addLiquidity(uint256 marketId, string memory option, uint256 amount) external payable validMarket(marketId) {\r\n        require(amount > 0, \"Amount must be greater than 0\");\r\n        \r\n        Market storage market = markets[marketId];\r\n        require(market.status == MarketStatus.Upcoming || market.status == MarketStatus.Active, \"Market not active\");\r\n        \r\n        // Verify option exists\r\n        bool optionExists = false;\r\n        for (uint256 i = 0; i < market.options.length; i++) {\r\n            if (keccak256(bytes(market.options[i])) == keccak256(bytes(option))) {\r\n                optionExists = true;\r\n                break;\r\n            }\r\n        }\r\n        require(optionExists, \"Invalid option\");\r\n        \r\n        usdc.safeTransferFrom(msg.sender, address(this), amount);\r\n\r\n        market.liquidity[option] += amount;\r\n        market.totalLiquidity += amount;\r\n        \r\n        emit LiquidityAdded(marketId, option, amount);\r\n    }\r\n    \r\n    /**\r\n     * @dev Resolve a market\r\n     */\r\n    function resolveMarket(uint256 marketId, string memory winningOption) external onlyAdmin validMarket(marketId) {\r\n        Market storage market = markets[marketId];\r\n        require(market.status != MarketStatus.Resolved, \"Already resolved\");\r\n        \r\n        // Verify option exists\r\n        bool optionExists = false;\r\n        for (uint256 i = 0; i < market.options.length; i++) {\r\n            if (keccak256(bytes(market.options[i])) == keccak256(bytes(winningOption))) {\r\n                optionExists = true;\r\n                break;\r\n            }\r\n        }\r\n        require(optionExists, \"Invalid winning option\");\r\n        \r\n        market.status = MarketStatus.Resolved;\r\n        market.resolved = true;\r\n        market.winningOption = winningOption;\r\n        market.resolvedAt = block.timestamp;\r\n        \r\n        emit MarketResolved(marketId, winningOption);\r\n    }\r\n    \r\n    /**\r\n     * @dev Set fees (in basis points)\r\n     */\r\n    /**\r\n     * @dev Set wallet whose signatures authorize user claims (off-chain payout amount). Use the same key as CLAIM_AUTH_PRIVATE_KEY on the API.\r\n     */\r\n    function setClaimAuthSigner(address signer) external onlyDeployer {\r\n        claimAuthSigner = signer;\r\n    }\r\n    \r\n    function setFees(\r\n        uint256 _platformFee,\r\n        uint256 _boostJackpotFee,\r\n        uint256 _marketPlatformFee,\r\n        uint256 _freeJackpotFee\r\n    ) external onlyDeployer {\r\n        require(_platformFee <= 10000 && _boostJackpotFee <= 10000 && \r\n                _marketPlatformFee <= 10000 && _freeJackpotFee <= 10000, \"Fees cannot exceed 100%\");\r\n        \r\n        platformFee = _platformFee;\r\n        boostJackpotFee = _boostJackpotFee;\r\n        marketPlatformFee = _marketPlatformFee;\r\n        freeJackpotFee = _freeJackpotFee;\r\n        \r\n        emit FeesUpdated(_platformFee, _boostJackpotFee, _marketPlatformFee, _freeJackpotFee);\r\n    }\r\n    \r\n    /**\r\n     * @dev Get current fees\r\n     */\r\n    function getFees() external view returns (\r\n        uint256 _platformFee,\r\n        uint256 _boostJackpotFee,\r\n        uint256 _marketPlatformFee,\r\n        uint256 _freeJackpotFee\r\n    ) {\r\n        return (platformFee, boostJackpotFee, marketPlatformFee, freeJackpotFee);\r\n    }\r\n    \r\n    /**\r\n     * @dev Get options for a market (so frontend can validate outcome before staking)\r\n     */\r\n    function getMarketOptions(uint256 marketId) external view validMarket(marketId) returns (string[] memory) {\r\n        return markets[marketId].options;\r\n    }\r\n    \r\n    /**\r\n     * @dev Stake USDC for boost prediction. Net stake + platform fee fund `claimPredictionWinsPool`\r\n     *      (same pool `claimPredictionWinsWithAuth` pays from); jackpot fee funds `jackpotPool`.\r\n     */\r\n    function stakeBoost(uint256 marketId, string memory outcome, uint256 amount) external validMarket(marketId) {\r\n        require(amount > 0, \"Amount must be greater than 0\");\r\n        Market storage market = markets[marketId];\r\n        require(market.status == MarketStatus.Upcoming || market.status == MarketStatus.Active, \"Market not active\");\r\n        \r\n        // Verify option exists\r\n        bool optionExists = false;\r\n        for (uint256 i = 0; i < market.options.length; i++) {\r\n            if (keccak256(bytes(market.options[i])) == keccak256(bytes(outcome))) {\r\n                optionExists = true;\r\n                break;\r\n            }\r\n        }\r\n        require(optionExists, \"Invalid outcome\");\r\n        \r\n        usdc.safeTransferFrom(msg.sender, address(this), amount);\r\n\r\n        uint256 platformFeeAmount = (amount * platformFee) / 10000;\r\n        uint256 jackpotFeeAmount = (amount * boostJackpotFee) / 10000;\r\n        uint256 netStake = amount - platformFeeAmount - jackpotFeeAmount;\r\n        require(netStake > 0, \"Stake too small after fees\");\r\n        \r\n        // Update or create boost prediction\r\n        BoostPrediction storage prediction = boostPredictions[marketId][msg.sender][outcome];\r\n        if (prediction.user == address(0)) {\r\n            // New prediction\r\n            prediction.user = msg.sender;\r\n            prediction.marketId = marketId;\r\n            prediction.outcome = outcome;\r\n            prediction.stakeAmount = netStake;\r\n            prediction.totalStake = netStake;\r\n        } else {\r\n            // Update existing prediction\r\n            prediction.totalStake += netStake;\r\n        }\r\n        \r\n        claimPredictionWinsPool += netStake + platformFeeAmount;\r\n        jackpotPool += jackpotFeeAmount;\r\n        \r\n        emit BoostStaked(marketId, msg.sender, outcome, netStake);\r\n    }\r\n    \r\n    /**\r\n     * @dev Add more stake to existing boost prediction\r\n     */\r\n    function addBoostStake(uint256 marketId, string memory outcome, uint256 amount) external validMarket(marketId) {\r\n        require(amount > 0, \"Amount must be greater than 0\");\r\n        Market storage market = markets[marketId];\r\n        require(market.status == MarketStatus.Upcoming || market.status == MarketStatus.Active, \"Market not active\");\r\n        \r\n        BoostPrediction storage prediction = boostPredictions[marketId][msg.sender][outcome];\r\n        require(prediction.user == msg.sender, \"No existing prediction\");\r\n        \r\n        usdc.safeTransferFrom(msg.sender, address(this), amount);\r\n\r\n        uint256 platformFeeAmount = (amount * platformFee) / 10000;\r\n        uint256 jackpotFeeAmount = (amount * boostJackpotFee) / 10000;\r\n        uint256 netStake = amount - platformFeeAmount - jackpotFeeAmount;\r\n        require(netStake > 0, \"Stake too small after fees\");\r\n        \r\n        prediction.totalStake += netStake;\r\n        \r\n        claimPredictionWinsPool += netStake + platformFeeAmount;\r\n        jackpotPool += jackpotFeeAmount;\r\n        \r\n        emit BoostStakeAdded(marketId, msg.sender, netStake);\r\n    }\r\n    \r\n    /**\r\n     * @dev Withdraw stake from boost prediction (only before resolution)\r\n     */\r\n    function withdrawBoostStake(uint256 marketId, string memory outcome, uint256 amount) external validMarket(marketId) nonReentrant {\r\n        Market storage market = markets[marketId];\r\n        require(market.status == MarketStatus.Upcoming || market.status == MarketStatus.Active, \"Market not active\");\r\n        \r\n        BoostPrediction storage prediction = boostPredictions[marketId][msg.sender][outcome];\r\n        require(prediction.user == msg.sender, \"No prediction found\");\r\n        require(prediction.totalStake >= amount, \"Insufficient stake\");\r\n        \r\n        prediction.totalStake -= amount;\r\n        require(claimPredictionWinsPool >= amount, \"Insufficient claim pool\");\r\n        claimPredictionWinsPool -= amount;\r\n        \r\n        usdc.safeTransfer(msg.sender, amount);\r\n        \r\n        emit BoostStakeWithdrawn(marketId, msg.sender, amount);\r\n    }\r\n    \r\n    /**\r\n     * @dev Claim boost prediction winnings\r\n     */\r\n    function claimBoost(uint256 marketId, string memory outcome) external validMarket(marketId) nonReentrant {\r\n        Market storage market = markets[marketId];\r\n        require(market.resolved, \"Market not resolved\");\r\n        require(keccak256(bytes(market.winningOption)) == keccak256(bytes(outcome)), \"Not winning outcome\");\r\n        \r\n        BoostPrediction storage prediction = boostPredictions[marketId][msg.sender][outcome];\r\n        require(prediction.user == msg.sender, \"No prediction found\");\r\n        require(!prediction.claimed, \"Already claimed\");\r\n        require(prediction.totalStake > 0, \"No stake to claim\");\r\n        \r\n        // Calculate claimable amount (backend will set this via setClaimableBalance)\r\n        uint256 claimable = claimableBalances[marketId][msg.sender];\r\n        require(claimable > 0, \"No claimable balance\");\r\n        require(claimPredictionWinsPool >= claimable, \"Insufficient claim pool\");\r\n        \r\n        prediction.claimed = true;\r\n        claimableBalances[marketId][msg.sender] = 0;\r\n        claimPredictionWinsPool -= claimable;\r\n        \r\n        usdc.safeTransfer(msg.sender, claimable);\r\n        \r\n        emit BoostClaimed(marketId, msg.sender, claimable);\r\n    }\r\n    \r\n    /**\r\n     * @dev Set claimable balance for a user (legacy; prefer setClaimableBoost/setClaimableMarket)\r\n     */\r\n    function setClaimableBalance(uint256 marketId, address user, uint256 amount) external onlyAdmin {\r\n        claimableBalances[marketId][user] = amount;\r\n    }\r\n    \r\n    /**\r\n     * @dev Set claimable boost amount for a user (called after resolution).\r\n     */\r\n    function setClaimableBoost(uint256 marketId, address user, uint256 amount) external onlyAdmin {\r\n        claimableBoost[marketId][user] = amount;\r\n    }\r\n    \r\n    /**\r\n     * @dev Set claimable market amount for a user (called after resolution).\r\n     */\r\n    function setClaimableMarket(uint256 marketId, address user, uint256 amount) external onlyAdmin {\r\n        claimableMarket[marketId][user] = amount;\r\n    }\r\n    \r\n    /**\r\n     * @dev Claim prediction winnings (Boost or Market) for a resolved market.\r\n     * @param marketId Market id\r\n     * @param isBoost true to claim boost winnings, false to claim market winnings. Pays from claimPredictionWinsPool.\r\n     */\r\n    function claimPredictionWins(uint256 marketId, bool isBoost) external validMarket(marketId) nonReentrant {\r\n        Market storage market = markets[marketId];\r\n        require(market.resolved, \"Market not resolved\");\r\n        \r\n        string memory winningOption = market.winningOption;\r\n        uint256 amount;\r\n        \r\n        if (isBoost) {\r\n            amount = claimableBoost[marketId][msg.sender];\r\n            require(amount > 0, \"No claimable balance\");\r\n            BoostPrediction storage boostPred = boostPredictions[marketId][msg.sender][winningOption];\r\n            require(boostPred.user == msg.sender && boostPred.totalStake > 0 && !boostPred.claimed, \"Not a participant\");\r\n            require(claimPredictionWinsPool >= amount, \"Insufficient claim pool\");\r\n            claimableBoost[marketId][msg.sender] = 0;\r\n            boostPred.claimed = true;\r\n        } else {\r\n            amount = claimableMarket[marketId][msg.sender];\r\n            require(amount > 0, \"No claimable balance\");\r\n            MarketPosition storage pos = marketPositions[marketId][msg.sender][winningOption];\r\n            require(pos.user == msg.sender && pos.shares > 0, \"Not a participant\");\r\n            require(claimPredictionWinsPool >= amount, \"Insufficient claim pool\");\r\n            claimableMarket[marketId][msg.sender] = 0;\r\n        }\r\n        \r\n        claimPredictionWinsPool -= amount;\r\n        usdc.safeTransfer(msg.sender, amount);\r\n        emit PredictionWinsClaimed(marketId, msg.sender, amount);\r\n    }\r\n\r\n    /**\r\n     * @dev Claim boost or market winnings using a signature from `claimAuthSigner`. Amount must match what the backend encoded (off-chain payout).\r\n     * Replaces relying on claimableBoost / claimableMarket mappings for normal user flow.\r\n     */\r\n    function claimPredictionWinsWithAuth(\r\n        uint256 marketId,\r\n        bool isBoost,\r\n        uint256 amount,\r\n        bytes32 predictionId,\r\n        uint256 deadline,\r\n        bytes calldata signature\r\n    ) external validMarket(marketId) nonReentrant {\r\n        require(claimAuthSigner != address(0), \"Claim signer not set\");\r\n        require(block.timestamp <= deadline, \"Expired\");\r\n        require(amount > 0, \"Zero amount\");\r\n\r\n        bytes32 authKey = keccak256(abi.encodePacked(msg.sender, predictionId));\r\n        require(!usedAuthPredictionClaims[authKey], \"Already claimed\");\r\n\r\n        bytes32 messageHash = keccak256(\r\n            abi.encodePacked(\r\n                msg.sender,\r\n                marketId,\r\n                isBoost,\r\n                amount,\r\n                predictionId,\r\n                deadline,\r\n                block.chainid,\r\n                address(this)\r\n            )\r\n        );\r\n        address recovered = _recoverAuthSigner(messageHash, signature);\r\n        require(recovered != address(0) && recovered == claimAuthSigner, \"Invalid signature\");\r\n\r\n        Market storage market = markets[marketId];\r\n        require(market.resolved, \"Market not resolved\");\r\n        string memory winningOption = market.winningOption;\r\n\r\n        if (isBoost) {\r\n            BoostPrediction storage boostPred = boostPredictions[marketId][msg.sender][winningOption];\r\n            require(boostPred.user == msg.sender && boostPred.totalStake > 0 && !boostPred.claimed, \"Not a boost participant\");\r\n            boostPred.claimed = true;\r\n        } else {\r\n            MarketPosition storage pos = marketPositions[marketId][msg.sender][winningOption];\r\n            require(pos.user == msg.sender && pos.shares > 0, \"Not a market participant\");\r\n            pos.shares = 0;\r\n            pos.totalInvested = 0;\r\n        }\r\n\r\n        require(claimPredictionWinsPool >= amount, \"Insufficient claim pool\");\r\n        usedAuthPredictionClaims[authKey] = true;\r\n        claimPredictionWinsPool -= amount;\r\n        usdc.safeTransfer(msg.sender, amount);\r\n        emit PredictionWinsClaimed(marketId, msg.sender, amount);\r\n    }\r\n    \r\n    /**\r\n     * @dev Withdraw from jackpot pool using a signature from `claimAuthSigner`. Does not use per-user on-chain jackpot balances.\r\n     */\r\n    function withdrawJackpotWithAuth(\r\n        uint256 amount,\r\n        bytes32 nonce,\r\n        uint256 deadline,\r\n        bytes calldata signature\r\n    ) external nonReentrant {\r\n        require(claimAuthSigner != address(0), \"Claim signer not set\");\r\n        require(block.timestamp <= deadline, \"Expired\");\r\n        require(amount > 0, \"Zero amount\");\r\n        require(!usedJackpotWithdrawNonces[nonce], \"Nonce used\");\r\n\r\n        bytes32 messageHash = keccak256(\r\n            abi.encodePacked(msg.sender, amount, nonce, deadline, block.chainid, address(this))\r\n        );\r\n        address recovered = _recoverAuthSigner(messageHash, signature);\r\n        require(recovered != address(0) && recovered == claimAuthSigner, \"Invalid signature\");\r\n\r\n        require(jackpotPool >= amount, \"Insufficient jackpot pool\");\r\n        usedJackpotWithdrawNonces[nonce] = true;\r\n        jackpotPool -= amount;\r\n\r\n        usdc.safeTransfer(msg.sender, amount);\r\n        emit JackpotWithdrawn(msg.sender, amount);\r\n    }\r\n\r\n    /**\r\n     * @dev Fund the claim prediction wins pool (super admin or deployer).\r\n     */\r\n    function fundClaimPredictionWinsPool(uint256 amount) external onlySuperAdmin {\r\n        require(amount > 0, \"Amount must be greater than 0\");\r\n        usdc.safeTransferFrom(msg.sender, address(this), amount);\r\n        claimPredictionWinsPool += amount;\r\n        emit ClaimPredictionWinsPoolFunded(amount);\r\n    }\r\n    \r\n    /**\r\n     * @dev Withdraw from claim prediction wins pool (deployer only).\r\n     */\r\n    function withdrawFromClaimPredictionWinsPool(address payable to, uint256 amount) external onlySuperAdmin nonReentrant {\r\n        require(to != address(0), \"Invalid recipient\");\r\n        require(to != address(this), \"Cannot send to contract\");\r\n        require(amount > 0, \"Amount must be greater than 0\");\r\n        require(claimPredictionWinsPool >= amount, \"Insufficient pool balance\");\r\n        claimPredictionWinsPool -= amount;\r\n        usdc.safeTransfer(to, amount);\r\n        emit ClaimPredictionWinsPoolWithdrawn(to, amount);\r\n    }\r\n    \r\n    /**\r\n     * @dev Buy shares in market (fixed-sum AMM)\r\n     */\r\n    function buyMarketShares(uint256 marketId, string memory outcome, uint256 amount) external validMarket(marketId) {\r\n        require(amount > 0, \"Amount must be greater than 0\");\r\n        Market storage market = markets[marketId];\r\n        require(market.status == MarketStatus.Upcoming || market.status == MarketStatus.Active, \"Market not active\");\r\n        \r\n        // Verify option exists\r\n        bool optionExists = false;\r\n        for (uint256 i = 0; i < market.options.length; i++) {\r\n            if (keccak256(bytes(market.options[i])) == keccak256(bytes(outcome))) {\r\n                optionExists = true;\r\n                break;\r\n            }\r\n        }\r\n        require(optionExists, \"Invalid outcome\");\r\n        \r\n        // Calculate fees\r\n        usdc.safeTransferFrom(msg.sender, address(this), amount);\r\n\r\n        uint256 platformFeeAmount = (amount * marketPlatformFee) / 10000;\r\n        uint256 freeJackpotFeeAmount = (amount * freeJackpotFee) / 10000;\r\n        uint256 netAmount = amount - platformFeeAmount - freeJackpotFeeAmount;\r\n        \r\n        // Calculate current price (liquidity / total liquidity)\r\n        uint256 currentPrice = market.totalLiquidity > 0 \r\n            ? (market.liquidity[outcome] * 10000) / market.totalLiquidity \r\n            : (10000 / market.options.length); // Equal distribution if no liquidity\r\n        \r\n        // Calculate shares received\r\n        uint256 shares = (netAmount * 10000) / currentPrice;\r\n        \r\n        // Update liquidity (fixed-sum AMM: buying increases selected option's liquidity)\r\n        market.liquidity[outcome] += netAmount;\r\n        market.totalLiquidity += netAmount;\r\n        market.shares[outcome] += shares;\r\n        \r\n        // Update user position\r\n        MarketPosition storage position = marketPositions[marketId][msg.sender][outcome];\r\n        if (position.user == address(0)) {\r\n            position.user = msg.sender;\r\n            position.outcome = outcome;\r\n        }\r\n        position.shares += shares;\r\n        position.totalInvested += netAmount;\r\n        \r\n        // Market buys fund the claim prediction wins pool\r\n        claimPredictionWinsPool += amount;\r\n        \r\n        emit MarketBought(marketId, msg.sender, outcome, netAmount, shares);\r\n    }\r\n    \r\n    /**\r\n     * @dev Sell shares in market\r\n     */\r\n    function sellMarketShares(uint256 marketId, string memory outcome, uint256 shares) external validMarket(marketId) nonReentrant {\r\n        Market storage market = markets[marketId];\r\n        require(market.status == MarketStatus.Upcoming || market.status == MarketStatus.Active, \"Market not active\");\r\n        \r\n        MarketPosition storage position = marketPositions[marketId][msg.sender][outcome];\r\n        require(position.user == msg.sender, \"No position found\");\r\n        require(position.shares >= shares, \"Insufficient shares\");\r\n        \r\n        // Calculate current price\r\n        uint256 currentPrice = market.totalLiquidity > 0 \r\n            ? (market.liquidity[outcome] * 10000) / market.totalLiquidity \r\n            : (10000 / market.options.length);\r\n        \r\n        // Calculate payout\r\n        uint256 payout = (shares * currentPrice) / 10000;\r\n        \r\n        // Update liquidity (selling decreases selected option's liquidity)\r\n        market.liquidity[outcome] -= payout;\r\n        market.totalLiquidity -= payout;\r\n        market.shares[outcome] -= shares;\r\n        \r\n        // Update user position\r\n        position.shares -= shares;\r\n        position.totalInvested -= (payout * position.totalInvested) / (position.shares + shares);\r\n        \r\n        // Deduct from claim prediction wins pool when user sells (pool was credited on buy)\r\n        require(claimPredictionWinsPool >= payout, \"Insufficient claim pool\");\r\n        claimPredictionWinsPool -= payout;\r\n        \r\n        usdc.safeTransfer(msg.sender, payout);\r\n        \r\n        emit MarketSold(marketId, msg.sender, outcome, shares, payout);\r\n    }\r\n    \r\n    /**\r\n     * @dev Claim market winnings after resolution\r\n     */\r\n    function claimMarket(uint256 marketId, string memory outcome) external validMarket(marketId) nonReentrant {\r\n        Market storage market = markets[marketId];\r\n        require(market.resolved, \"Market not resolved\");\r\n        require(keccak256(bytes(market.winningOption)) == keccak256(bytes(outcome)), \"Not winning outcome\");\r\n        \r\n        MarketPosition storage position = marketPositions[marketId][msg.sender][outcome];\r\n        require(position.user == msg.sender, \"No position found\");\r\n        require(position.shares > 0, \"No shares to claim\");\r\n        \r\n        // Calculate claimable amount (backend will set this)\r\n        uint256 claimable = claimableBalances[marketId][msg.sender];\r\n        require(claimable > 0, \"No claimable balance\");\r\n        require(claimPredictionWinsPool >= claimable, \"Insufficient claim pool\");\r\n        \r\n        claimableBalances[marketId][msg.sender] = 0;\r\n        claimPredictionWinsPool -= claimable;\r\n        \r\n        usdc.safeTransfer(msg.sender, claimable);\r\n        \r\n        emit MarketClaimed(marketId, msg.sender, outcome, claimable);\r\n    }\r\n    \r\n    /**\r\n     * @dev Get current price for an option (in basis points)\r\n     */\r\n    function getPrice(uint256 marketId, string memory outcome) external view validMarket(marketId) returns (uint256) {\r\n        Market storage market = markets[marketId];\r\n        if (market.totalLiquidity == 0) {\r\n            return (10000 / market.options.length);\r\n        }\r\n        return (market.liquidity[outcome] * 10000) / market.totalLiquidity;\r\n    }\r\n    \r\n    /**\r\n     * @dev Get user's market position\r\n     */\r\n    function getUserPosition(uint256 marketId, address user, string memory outcome) external view validMarket(marketId) returns (uint256 shares, uint256 totalInvested) {\r\n        MarketPosition storage position = marketPositions[marketId][user][outcome];\r\n        return (position.shares, position.totalInvested);\r\n    }\r\n    \r\n    /**\r\n     * @dev Get user's boost prediction\r\n     */\r\n    function getBoostPrediction(uint256 marketId, address user, string memory outcome) external view validMarket(marketId) returns (\r\n        address _user,\r\n        uint256 _totalStake,\r\n        bool _claimed\r\n    ) {\r\n        BoostPrediction storage prediction = boostPredictions[marketId][user][outcome];\r\n        return (prediction.user, prediction.totalStake, prediction.claimed);\r\n    }\r\n    \r\n    /**\r\n     * @dev Fund jackpot pool (deployer only)\r\n     */\r\n    function fundJackpotPool(uint256 amount) external onlyDeployer {\r\n        require(amount > 0, \"Amount must be greater than 0\");\r\n        usdc.safeTransferFrom(msg.sender, address(this), amount);\r\n        jackpotPool += amount;\r\n        emit JackpotFunded(amount);\r\n    }\r\n    \r\n    /**\r\n     * @dev User withdraw from jackpot pool\r\n     */\r\n    function withdrawJackpot(uint256 amount) external nonReentrant {\r\n        require(amount > 0, \"Amount must be greater than 0\");\r\n        require(jackpotPool >= amount, \"Insufficient jackpot pool\");\r\n        require(jackpotBalances[msg.sender] >= amount, \"Insufficient balance\");\r\n        \r\n        jackpotBalances[msg.sender] -= amount;\r\n        jackpotPool -= amount;\r\n        \r\n        usdc.safeTransfer(msg.sender, amount);\r\n        \r\n        emit JackpotWithdrawn(msg.sender, amount);\r\n    }\r\n    \r\n    /**\r\n     * @dev Set user's jackpot balance (called by backend)\r\n     */\r\n    function setJackpotBalance(address user, uint256 amount) external onlyAdmin {\r\n        jackpotBalances[user] = amount;\r\n    }\r\n    \r\n    /**\r\n     * @dev Withdraw from jackpot pool (deployer only)\r\n     */\r\n    function withdrawFromJackpotPool(address payable to, uint256 amount) external onlyDeployer nonReentrant {\r\n        require(to != address(0), \"Invalid recipient\");\r\n        require(to != address(this), \"Cannot send to contract\");\r\n        require(amount > 0, \"Amount must be greater than 0\");\r\n        require(jackpotPool >= amount, \"Insufficient pool balance\");\r\n        jackpotPool -= amount;\r\n        usdc.safeTransfer(to, amount);\r\n\r\n        emit JackpotPoolWithdrawn(to, amount);\r\n    }\r\n    \r\n    /**\r\n     * @dev Get contract balance\r\n     */\r\n    function getContractBalance() external view returns (uint256) {\r\n        return usdc.balanceOf(address(this));\r\n    }\r\n    \r\n    /**\r\n     * @dev Transfer funds from contract (deployer only)\r\n     */\r\n    function transferFunds(address payable to, uint256 amount) external onlySuperAdmin {\r\n        require(to != address(0), \"Invalid recipient\");\r\n        require(to != address(this), \"Cannot send to contract\");\r\n        require(amount > 0, \"Amount must be greater than 0\");\r\n        usdc.safeTransfer(to, amount);\r\n\r\n        emit FundsTransferred(to, amount);\r\n    }\r\n    \r\n    /**\r\n     * @dev Set superAdmin address\r\n     */\r\n    function setSuperAdmin(address _superAdmin) external onlyDeployer {\r\n        require(_superAdmin != address(0), \"Invalid address\");\r\n        superAdmin = _superAdmin;\r\n    }\r\n\r\n    /**\r\n     * @dev Manage on-chain admins (deployer only).\r\n     * Admins can operate Admin-page contract functions (resolve/update markets, set claimables, set jackpot balances).\r\n     */\r\n    function setAdmin(address admin, bool enabled) external onlyDeployer {\r\n        require(admin != address(0), \"Invalid address\");\r\n        admins[admin] = enabled;\r\n    }\r\n    \r\n    /**\r\n     * @dev Get jackpot balance for user\r\n     */\r\n    function getJackpotBalance(address user) external view returns (uint256) {\r\n        return jackpotBalances[user];\r\n    }\r\n    \r\n    /**\r\n     * @dev Get claimable balance for user\r\n     */\r\n    function getClaimableBalance(uint256 marketId, address user) external view returns (uint256) {\r\n        return claimableBalances[marketId][user];\r\n    }\r\n\r\n    // --- Orderbook / trading vault (backend matching + admin settlement) ---\r\n\r\n    /**\r\n     * @dev User deposits USDC into the trading vault (custody) for orderbook flow.\r\n     */\r\n    function depositTradingVault(uint256 amount) external nonReentrant {\r\n        require(amount > 0, \"Amount must be greater than 0\");\r\n        usdc.safeTransferFrom(msg.sender, address(this), amount);\r\n        tradingVaultBalances[msg.sender] += amount;\r\n        emit TradingVaultDeposited(msg.sender, amount);\r\n    }\r\n\r\n    /**\r\n     * @dev Withdraw from trading vault using the same EIP-191 signer pattern as jackpot withdraw.\r\n     * Backend authorizes amount (must not exceed off-chain computed withdrawable).\r\n     */\r\n    function withdrawTradingVaultWithAuth(\r\n        uint256 amount,\r\n        bytes32 nonce,\r\n        uint256 deadline,\r\n        bytes calldata signature\r\n    ) external nonReentrant {\r\n        require(claimAuthSigner != address(0), \"Claim signer not set\");\r\n        require(block.timestamp <= deadline, \"Expired\");\r\n        require(amount > 0, \"Zero amount\");\r\n        require(!usedTradingVaultWithdrawNonces[nonce], \"Nonce used\");\r\n\r\n        bytes32 messageHash = keccak256(\r\n            abi.encodePacked(msg.sender, amount, nonce, deadline, block.chainid, address(this), uint256(1))\r\n        );\r\n        address recovered = _recoverAuthSigner(messageHash, signature);\r\n        require(recovered != address(0) && recovered == claimAuthSigner, \"Invalid signature\");\r\n\r\n        require(tradingVaultBalances[msg.sender] >= amount, \"Insufficient vault\");\r\n        usedTradingVaultWithdrawNonces[nonce] = true;\r\n        tradingVaultBalances[msg.sender] -= amount;\r\n        usdc.safeTransfer(msg.sender, amount);\r\n        emit TradingVaultWithdrawn(msg.sender, amount);\r\n    }\r\n\r\n    struct OrderbookLiquidityRow {\r\n        string option;\r\n        uint256 yesAmount;\r\n        uint256 noAmount;\r\n    }\r\n\r\n    /**\r\n     * @dev Single USDC pull; credits YES/NO pools per outcome (on-chain reference + settlement accounting).\r\n     */\r\n    function batchAddOrderbookLiquidity(uint256 marketId, OrderbookLiquidityRow[] calldata rows)\r\n        external\r\n        onlyAdmin\r\n        validMarket(marketId)\r\n    {\r\n        Market storage market = markets[marketId];\r\n        require(market.status == MarketStatus.Upcoming || market.status == MarketStatus.Active, \"Market not active\");\r\n\r\n        uint256 total = 0;\r\n        for (uint256 i = 0; i < rows.length; i++) {\r\n            total += rows[i].yesAmount + rows[i].noAmount;\r\n        }\r\n        require(total > 0, \"Zero total\");\r\n\r\n        usdc.safeTransferFrom(msg.sender, address(this), total);\r\n\r\n        for (uint256 i = 0; i < rows.length; i++) {\r\n            string memory opt = rows[i].option;\r\n            require(_marketHasOption(marketId, opt), \"Invalid option\");\r\n            if (rows[i].yesAmount > 0) {\r\n                orderbookLiquidityYes[marketId][opt] += rows[i].yesAmount;\r\n            }\r\n            if (rows[i].noAmount > 0) {\r\n                orderbookLiquidityNo[marketId][opt] += rows[i].noAmount;\r\n            }\r\n        }\r\n\r\n        emit OrderbookLiquidityBatchAdded(marketId, total);\r\n    }\r\n\r\n    struct OrderbookSettlementLeg {\r\n        address user;\r\n        string positionKey;\r\n        int256 vaultDelta;\r\n        int256 sharesDelta;\r\n        int256 investedDelta;\r\n    }\r\n\r\n    /**\r\n     * @dev Apply batched vault + position updates after off-chain matching.\r\n     *      Platform fee share credits `claimPredictionWinsPool`; free-jackpot fee share credits `jackpotPool` (same split as superadmin Settings).\r\n     * Conservation: sum(vaultDelta) + feeToClaimPool + feeToJackpotPool == 0 (USDC units).\r\n     */\r\n    function applyOrderbookSettlements(\r\n        uint256 marketId,\r\n        OrderbookSettlementLeg[] calldata legs,\r\n        uint256 feeToClaimPool,\r\n        uint256 feeToJackpotPool\r\n    ) external onlyAdmin validMarket(marketId) nonReentrant {\r\n        Market storage market = markets[marketId];\r\n        require(market.status == MarketStatus.Upcoming || market.status == MarketStatus.Active, \"Market not active\");\r\n\r\n        int256 netFromVaults = 0;\r\n        for (uint256 i = 0; i < legs.length; i++) {\r\n            address u = legs[i].user;\r\n            require(u != address(0), \"Zero user\");\r\n            _applyVaultDelta(u, legs[i].vaultDelta);\r\n            netFromVaults += legs[i].vaultDelta;\r\n            if (legs[i].sharesDelta != 0 || legs[i].investedDelta != 0) {\r\n                _applyShareDelta(marketId, u, legs[i].positionKey, legs[i].sharesDelta, legs[i].investedDelta);\r\n            }\r\n        }\r\n\r\n        uint256 totalFees = feeToClaimPool + feeToJackpotPool;\r\n        require(netFromVaults + int256(totalFees) == 0, \"Settlement imbalance\");\r\n        if (feeToClaimPool > 0) {\r\n            claimPredictionWinsPool += feeToClaimPool;\r\n        }\r\n        if (feeToJackpotPool > 0) {\r\n            jackpotPool += feeToJackpotPool;\r\n        }\r\n\r\n        emit OrderbookSettlementsApplied(marketId, legs.length, feeToClaimPool, feeToJackpotPool);\r\n    }\r\n\r\n    /**\r\n     * @dev After market resolution: sweep remaining trading-vault collateral for this market into\r\n     *      `claimPredictionWinsPool` and clear on-chain positions so users cannot withdraw vault\r\n     *      funds that belong in the claim pool (prevents double payout with claimOrderbookPositionWithAuth).\r\n     *      Conservation: sum(vaultDelta) + collateralToClaimPool == 0.\r\n     */\r\n    function finalizeResolvedMarketSettlements(\r\n        uint256 marketId,\r\n        OrderbookSettlementLeg[] calldata legs,\r\n        uint256 collateralToClaimPool\r\n    ) external onlyAdmin validMarket(marketId) nonReentrant {\r\n        Market storage market = markets[marketId];\r\n        require(market.resolved, \"Market not resolved\");\r\n\r\n        int256 netFromVaults = 0;\r\n        for (uint256 i = 0; i < legs.length; i++) {\r\n            address u = legs[i].user;\r\n            require(u != address(0), \"Zero user\");\r\n            _applyVaultDelta(u, legs[i].vaultDelta);\r\n            netFromVaults += legs[i].vaultDelta;\r\n            if (legs[i].sharesDelta != 0 || legs[i].investedDelta != 0) {\r\n                _applyShareDelta(marketId, u, legs[i].positionKey, legs[i].sharesDelta, legs[i].investedDelta);\r\n            }\r\n        }\r\n\r\n        require(netFromVaults + int256(collateralToClaimPool) == 0, \"Finalize imbalance\");\r\n        if (collateralToClaimPool > 0) {\r\n            claimPredictionWinsPool += collateralToClaimPool;\r\n        }\r\n\r\n        emit OrderbookSettlementsApplied(marketId, legs.length, collateralToClaimPool, 0);\r\n    }\r\n\r\n    /**\r\n     * @dev USDC held by this contract and internal pool balances (for super-admin treasury view).\r\n     */\r\n    function getTreasurySnapshot()\r\n        external\r\n        view\r\n        returns (uint256 usdcBalance, uint256 claimPoolBalance, uint256 jackpotPoolBalance)\r\n    {\r\n        return (usdc.balanceOf(address(this)), claimPredictionWinsPool, jackpotPool);\r\n    }\r\n\r\n    /**\r\n     * @dev Claim resolved orderbook position: eligibility and payout amount are enforced off-chain via signature.\r\n     */\r\n    function claimOrderbookPositionWithAuth(\r\n        uint256 marketId,\r\n        uint256 amount,\r\n        string calldata positionKey,\r\n        bytes32 predictionId,\r\n        uint256 deadline,\r\n        bytes calldata signature\r\n    ) external validMarket(marketId) nonReentrant {\r\n        require(claimAuthSigner != address(0), \"Claim signer not set\");\r\n        require(block.timestamp <= deadline, \"Expired\");\r\n        require(amount > 0, \"Zero amount\");\r\n\r\n        bytes32 authKey = keccak256(abi.encodePacked(msg.sender, predictionId, uint256(2)));\r\n        require(!usedOrderbookClaimKeys[authKey], \"Already claimed\");\r\n\r\n        bytes32 messageHash = keccak256(\r\n            abi.encodePacked(\r\n                msg.sender,\r\n                marketId,\r\n                amount,\r\n                positionKey,\r\n                predictionId,\r\n                deadline,\r\n                block.chainid,\r\n                address(this),\r\n                uint256(3)\r\n            )\r\n        );\r\n        address recovered = _recoverAuthSigner(messageHash, signature);\r\n        require(recovered != address(0) && recovered == claimAuthSigner, \"Invalid signature\");\r\n\r\n        require(markets[marketId].resolved, \"Market not resolved\");\r\n\r\n        MarketPosition storage pos = marketPositions[marketId][msg.sender][positionKey];\r\n        // Payout is authorized only by `claimAuthSigner` (replay-safe via `usedOrderbookClaimKeys`).\r\n        // Clear on-chain ledger when it exists; allow claims when settlement never wrote shares on-chain\r\n        // (off-chain book + backend payout) so winners still receive from `claimPredictionWinsPool`.\r\n        if (pos.user == msg.sender && pos.shares > 0) {\r\n            pos.shares = 0;\r\n            pos.totalInvested = 0;\r\n        }\r\n\r\n        require(claimPredictionWinsPool >= amount, \"Insufficient claim pool\");\r\n        usedOrderbookClaimKeys[authKey] = true;\r\n        claimPredictionWinsPool -= amount;\r\n        usdc.safeTransfer(msg.sender, amount);\r\n\r\n        emit OrderbookPositionClaimed(marketId, msg.sender, positionKey, amount);\r\n    }\r\n    \r\n    // No receive/fallback: this contract is ERC20-based (USDC), not native ETH.\r\n}\r\n",
  "sourcePath": "C:\\Users\\HELLO\\Desktop\\startups\\wergame-platform\\smart-contract\\contracts\\WeRgame.sol",
  "compiler": {
    "name": "solc",
    "version": "0.8.24+commit.e11b9ed9.Emscripten.clang"
  },
  "schemaVersion": "3.4.16",
  "updatedAt": "2026-05-23T08:49:31.238Z",
  "devdoc": {
    "details": "Comprehensive smart contract for prediction market platform Handles market creation, trading, boost predictions, and jackpot management",
    "errors": {
      "SafeERC20FailedOperation(address)": [
        {
          "details": "An operation with an ERC-20 token failed."
        }
      ]
    },
    "kind": "dev",
    "methods": {
      "addBoostStake(uint256,string,uint256)": {
        "details": "Add more stake to existing boost prediction"
      },
      "addLiquidity(uint256,string,uint256)": {
        "details": "Add initial liquidity to a market option"
      },
      "applyOrderbookSettlements(uint256,(address,string,int256,int256,int256)[],uint256,uint256)": {
        "details": "Apply batched vault + position updates after off-chain matching.      Platform fee share credits `claimPredictionWinsPool`; free-jackpot fee share credits `jackpotPool` (same split as superadmin Settings). Conservation: sum(vaultDelta) + feeToClaimPool + feeToJackpotPool == 0 (USDC units)."
      },
      "batchAddOrderbookLiquidity(uint256,(string,uint256,uint256)[])": {
        "details": "Single USDC pull; credits YES/NO pools per outcome (on-chain reference + settlement accounting)."
      },
      "buyMarketShares(uint256,string,uint256)": {
        "details": "Buy shares in market (fixed-sum AMM)"
      },
      "claimBoost(uint256,string)": {
        "details": "Claim boost prediction winnings"
      },
      "claimMarket(uint256,string)": {
        "details": "Claim market winnings after resolution"
      },
      "claimOrderbookPositionWithAuth(uint256,uint256,string,bytes32,uint256,bytes)": {
        "details": "Claim resolved orderbook position: eligibility and payout amount are enforced off-chain via signature."
      },
      "claimPredictionWins(uint256,bool)": {
        "details": "Claim prediction winnings (Boost or Market) for a resolved market.",
        "params": {
          "isBoost": "true to claim boost winnings, false to claim market winnings. Pays from claimPredictionWinsPool.",
          "marketId": "Market id"
        }
      },
      "claimPredictionWinsWithAuth(uint256,bool,uint256,bytes32,uint256,bytes)": {
        "details": "Claim boost or market winnings using a signature from `claimAuthSigner`. Amount must match what the backend encoded (off-chain payout). Replaces relying on claimableBoost / claimableMarket mappings for normal user flow."
      },
      "createMarket(bool,string[])": {
        "details": "Create a new market (match or poll)",
        "params": {
          "isPoll": "true if poll, false if match",
          "options": "array of outcome options"
        }
      },
      "depositTradingVault(uint256)": {
        "details": "User deposits USDC into the trading vault (custody) for orderbook flow."
      },
      "finalizeResolvedMarketSettlements(uint256,(address,string,int256,int256,int256)[],uint256)": {
        "details": "After market resolution: sweep remaining trading-vault collateral for this market into      `claimPredictionWinsPool` and clear on-chain positions so users cannot withdraw vault      funds that belong in the claim pool (prevents double payout with claimOrderbookPositionWithAuth).      Conservation: sum(vaultDelta) + collateralToClaimPool == 0."
      },
      "fundClaimPredictionWinsPool(uint256)": {
        "details": "Fund the claim prediction wins pool (super admin or deployer)."
      },
      "fundJackpotPool(uint256)": {
        "details": "Fund jackpot pool (deployer only)"
      },
      "getBoostPrediction(uint256,address,string)": {
        "details": "Get user's boost prediction"
      },
      "getClaimableBalance(uint256,address)": {
        "details": "Get claimable balance for user"
      },
      "getContractBalance()": {
        "details": "Get contract balance"
      },
      "getFees()": {
        "details": "Get current fees"
      },
      "getJackpotBalance(address)": {
        "details": "Get jackpot balance for user"
      },
      "getMarketOptions(uint256)": {
        "details": "Get options for a market (so frontend can validate outcome before staking)"
      },
      "getPrice(uint256,string)": {
        "details": "Get current price for an option (in basis points)"
      },
      "getTreasurySnapshot()": {
        "details": "USDC held by this contract and internal pool balances (for super-admin treasury view)."
      },
      "getUserPosition(uint256,address,string)": {
        "details": "Get user's market position"
      },
      "resolveMarket(uint256,string)": {
        "details": "Resolve a market"
      },
      "sellMarketShares(uint256,string,uint256)": {
        "details": "Sell shares in market"
      },
      "setAdmin(address,bool)": {
        "details": "Manage on-chain admins (deployer only). Admins can operate Admin-page contract functions (resolve/update markets, set claimables, set jackpot balances)."
      },
      "setClaimAuthSigner(address)": {
        "details": "Set wallet whose signatures authorize user claims (off-chain payout amount). Use the same key as CLAIM_AUTH_PRIVATE_KEY on the API."
      },
      "setClaimableBalance(uint256,address,uint256)": {
        "details": "Set claimable balance for a user (legacy; prefer setClaimableBoost/setClaimableMarket)"
      },
      "setClaimableBoost(uint256,address,uint256)": {
        "details": "Set claimable boost amount for a user (called after resolution)."
      },
      "setClaimableMarket(uint256,address,uint256)": {
        "details": "Set claimable market amount for a user (called after resolution)."
      },
      "setJackpotBalance(address,uint256)": {
        "details": "Set user's jackpot balance (called by backend)"
      },
      "setSuperAdmin(address)": {
        "details": "Set superAdmin address"
      },
      "stakeBoost(uint256,string,uint256)": {
        "details": "Stake USDC for boost prediction. Net stake + platform fee fund `claimPredictionWinsPool`      (same pool `claimPredictionWinsWithAuth` pays from); jackpot fee funds `jackpotPool`."
      },
      "transferFunds(address,uint256)": {
        "details": "Transfer funds from contract (deployer only)"
      },
      "updateMarketStatus(uint256,uint8)": {
        "details": "Update market status"
      },
      "withdrawBoostStake(uint256,string,uint256)": {
        "details": "Withdraw stake from boost prediction (only before resolution)"
      },
      "withdrawFromClaimPredictionWinsPool(address,uint256)": {
        "details": "Withdraw from claim prediction wins pool (deployer only)."
      },
      "withdrawFromJackpotPool(address,uint256)": {
        "details": "Withdraw from jackpot pool (deployer only)"
      },
      "withdrawJackpot(uint256)": {
        "details": "User withdraw from jackpot pool"
      },
      "withdrawJackpotWithAuth(uint256,bytes32,uint256,bytes)": {
        "details": "Withdraw from jackpot pool using a signature from `claimAuthSigner`. Does not use per-user on-chain jackpot balances."
      },
      "withdrawTradingVaultWithAuth(uint256,bytes32,uint256,bytes)": {
        "details": "Withdraw from trading vault using the same EIP-191 signer pattern as jackpot withdraw. Backend authorizes amount (must not exceed off-chain computed withdrawable)."
      }
    },
    "stateVariables": {
      "claimPredictionWinsPool": {
        "details": "Pool for paying Boost and Market prediction wins; funded by deployer and by boost stakes"
      }
    },
    "title": "WeRgame",
    "version": 1
  },
  "userdoc": {
    "kind": "user",
    "methods": {
      "claimAuthSigner()": {
        "notice": "Backend / ops wallet that signs authorized claims (set by deployer)"
      },
      "orderbookLiquidityYes(uint256,string)": {
        "notice": "On-chain reference liquidity for YES/NO books per outcome option (USDC units)"
      },
      "tradingVaultBalances(address)": {
        "notice": "USDC credited to users for orderbook trading (deposit / settlement)"
      },
      "usdc()": {
        "notice": "Platform currency token (Base USDC). All pools and payouts are denominated in this token."
      },
      "usedAuthPredictionClaims(bytes32)": {
        "notice": "Replay protection for signature-based prediction claims"
      },
      "usedJackpotWithdrawNonces(bytes32)": {
        "notice": "Replay protection for signature-based jackpot withdrawals"
      },
      "usedOrderbookClaimKeys(bytes32)": {
        "notice": "Replay for orderbook position claims (separate from boost/market auth key space)"
      }
    },
    "version": 1
  }
}