{
  "contractName": "WeRgame",
  "abi": [
    {
      "inputs": [],
      "stateMutability": "nonpayable",
      "type": "constructor"
    },
    {
      "anonymous": false,
      "inputs": [
        {
          "indexed": true,
          "internalType": "uint256",
          "name": "marketId",
          "type": "uint256"
        },
        {
          "indexed": true,
          "internalType": "address",
          "name": "user",
          "type": "address"
        },
        {
          "indexed": false,
          "internalType": "uint256",
          "name": "amount",
          "type": "uint256"
        }
      ],
      "name": "BoostClaimed",
      "type": "event"
    },
    {
      "anonymous": false,
      "inputs": [
        {
          "indexed": true,
          "internalType": "uint256",
          "name": "marketId",
          "type": "uint256"
        },
        {
          "indexed": true,
          "internalType": "address",
          "name": "user",
          "type": "address"
        },
        {
          "indexed": false,
          "internalType": "uint256",
          "name": "amount",
          "type": "uint256"
        }
      ],
      "name": "BoostStakeAdded",
      "type": "event"
    },
    {
      "anonymous": false,
      "inputs": [
        {
          "indexed": true,
          "internalType": "uint256",
          "name": "marketId",
          "type": "uint256"
        },
        {
          "indexed": true,
          "internalType": "address",
          "name": "user",
          "type": "address"
        },
        {
          "indexed": false,
          "internalType": "uint256",
          "name": "amount",
          "type": "uint256"
        }
      ],
      "name": "BoostStakeWithdrawn",
      "type": "event"
    },
    {
      "anonymous": false,
      "inputs": [
        {
          "indexed": true,
          "internalType": "uint256",
          "name": "marketId",
          "type": "uint256"
        },
        {
          "indexed": true,
          "internalType": "address",
          "name": "user",
          "type": "address"
        },
        {
          "indexed": false,
          "internalType": "string",
          "name": "outcome",
          "type": "string"
        },
        {
          "indexed": false,
          "internalType": "uint256",
          "name": "amount",
          "type": "uint256"
        }
      ],
      "name": "BoostStaked",
      "type": "event"
    },
    {
      "anonymous": false,
      "inputs": [
        {
          "indexed": false,
          "internalType": "uint256",
          "name": "amount",
          "type": "uint256"
        }
      ],
      "name": "ClaimPredictionWinsPoolFunded",
      "type": "event"
    },
    {
      "anonymous": false,
      "inputs": [
        {
          "indexed": true,
          "internalType": "address",
          "name": "to",
          "type": "address"
        },
        {
          "indexed": false,
          "internalType": "uint256",
          "name": "amount",
          "type": "uint256"
        }
      ],
      "name": "ClaimPredictionWinsPoolWithdrawn",
      "type": "event"
    },
    {
      "anonymous": false,
      "inputs": [
        {
          "indexed": false,
          "internalType": "uint256",
          "name": "platformFee",
          "type": "uint256"
        },
        {
          "indexed": false,
          "internalType": "uint256",
          "name": "boostJackpotFee",
          "type": "uint256"
        },
        {
          "indexed": false,
          "internalType": "uint256",
          "name": "marketPlatformFee",
          "type": "uint256"
        },
        {
          "indexed": false,
          "internalType": "uint256",
          "name": "freeJackpotFee",
          "type": "uint256"
        }
      ],
      "name": "FeesUpdated",
      "type": "event"
    },
    {
      "anonymous": false,
      "inputs": [
        {
          "indexed": true,
          "internalType": "address",
          "name": "to",
          "type": "address"
        },
        {
          "indexed": false,
          "internalType": "uint256",
          "name": "amount",
          "type": "uint256"
        }
      ],
      "name": "FundsTransferred",
      "type": "event"
    },
    {
      "anonymous": false,
      "inputs": [
        {
          "indexed": false,
          "internalType": "uint256",
          "name": "amount",
          "type": "uint256"
        }
      ],
      "name": "JackpotFunded",
      "type": "event"
    },
    {
      "anonymous": false,
      "inputs": [
        {
          "indexed": true,
          "internalType": "address",
          "name": "to",
          "type": "address"
        },
        {
          "indexed": false,
          "internalType": "uint256",
          "name": "amount",
          "type": "uint256"
        }
      ],
      "name": "JackpotPoolWithdrawn",
      "type": "event"
    },
    {
      "anonymous": false,
      "inputs": [
        {
          "indexed": true,
          "internalType": "address",
          "name": "user",
          "type": "address"
        },
        {
          "indexed": false,
          "internalType": "uint256",
          "name": "amount",
          "type": "uint256"
        }
      ],
      "name": "JackpotWithdrawn",
      "type": "event"
    },
    {
      "anonymous": false,
      "inputs": [
        {
          "indexed": true,
          "internalType": "uint256",
          "name": "marketId",
          "type": "uint256"
        },
        {
          "indexed": false,
          "internalType": "string",
          "name": "option",
          "type": "string"
        },
        {
          "indexed": false,
          "internalType": "uint256",
          "name": "amount",
          "type": "uint256"
        }
      ],
      "name": "LiquidityAdded",
      "type": "event"
    },
    {
      "anonymous": false,
      "inputs": [
        {
          "indexed": true,
          "internalType": "uint256",
          "name": "marketId",
          "type": "uint256"
        },
        {
          "indexed": true,
          "internalType": "address",
          "name": "user",
          "type": "address"
        },
        {
          "indexed": false,
          "internalType": "string",
          "name": "outcome",
          "type": "string"
        },
        {
          "indexed": false,
          "internalType": "uint256",
          "name": "ethAmount",
          "type": "uint256"
        },
        {
          "indexed": false,
          "internalType": "uint256",
          "name": "shares",
          "type": "uint256"
        }
      ],
      "name": "MarketBought",
      "type": "event"
    },
    {
      "anonymous": false,
      "inputs": [
        {
          "indexed": true,
          "internalType": "uint256",
          "name": "marketId",
          "type": "uint256"
        },
        {
          "indexed": true,
          "internalType": "address",
          "name": "user",
          "type": "address"
        },
        {
          "indexed": false,
          "internalType": "string",
          "name": "outcome",
          "type": "string"
        },
        {
          "indexed": false,
          "internalType": "uint256",
          "name": "amount",
          "type": "uint256"
        }
      ],
      "name": "MarketClaimed",
      "type": "event"
    },
    {
      "anonymous": false,
      "inputs": [
        {
          "indexed": true,
          "internalType": "uint256",
          "name": "marketId",
          "type": "uint256"
        },
        {
          "indexed": false,
          "internalType": "bool",
          "name": "isPoll",
          "type": "bool"
        },
        {
          "indexed": false,
          "internalType": "string[]",
          "name": "options",
          "type": "string[]"
        }
      ],
      "name": "MarketCreated",
      "type": "event"
    },
    {
      "anonymous": false,
      "inputs": [
        {
          "indexed": true,
          "internalType": "uint256",
          "name": "marketId",
          "type": "uint256"
        },
        {
          "indexed": false,
          "internalType": "string",
          "name": "winningOption",
          "type": "string"
        }
      ],
      "name": "MarketResolved",
      "type": "event"
    },
    {
      "anonymous": false,
      "inputs": [
        {
          "indexed": true,
          "internalType": "uint256",
          "name": "marketId",
          "type": "uint256"
        },
        {
          "indexed": true,
          "internalType": "address",
          "name": "user",
          "type": "address"
        },
        {
          "indexed": false,
          "internalType": "string",
          "name": "outcome",
          "type": "string"
        },
        {
          "indexed": false,
          "internalType": "uint256",
          "name": "shares",
          "type": "uint256"
        },
        {
          "indexed": false,
          "internalType": "uint256",
          "name": "ethAmount",
          "type": "uint256"
        }
      ],
      "name": "MarketSold",
      "type": "event"
    },
    {
      "anonymous": false,
      "inputs": [
        {
          "indexed": true,
          "internalType": "uint256",
          "name": "marketId",
          "type": "uint256"
        },
        {
          "indexed": false,
          "internalType": "enum WeRgame.MarketStatus",
          "name": "status",
          "type": "uint8"
        }
      ],
      "name": "MarketStatusUpdated",
      "type": "event"
    },
    {
      "anonymous": false,
      "inputs": [
        {
          "indexed": true,
          "internalType": "uint256",
          "name": "marketId",
          "type": "uint256"
        },
        {
          "indexed": true,
          "internalType": "address",
          "name": "user",
          "type": "address"
        },
        {
          "indexed": false,
          "internalType": "uint256",
          "name": "amount",
          "type": "uint256"
        }
      ],
      "name": "PredictionWinsClaimed",
      "type": "event"
    },
    {
      "stateMutability": "payable",
      "type": "fallback"
    },
    {
      "inputs": [],
      "name": "boostJackpotFee",
      "outputs": [
        {
          "internalType": "uint256",
          "name": "",
          "type": "uint256"
        }
      ],
      "stateMutability": "view",
      "type": "function"
    },
    {
      "inputs": [
        {
          "internalType": "uint256",
          "name": "",
          "type": "uint256"
        },
        {
          "internalType": "address",
          "name": "",
          "type": "address"
        },
        {
          "internalType": "string",
          "name": "",
          "type": "string"
        }
      ],
      "name": "boostPredictions",
      "outputs": [
        {
          "internalType": "address",
          "name": "user",
          "type": "address"
        },
        {
          "internalType": "uint256",
          "name": "marketId",
          "type": "uint256"
        },
        {
          "internalType": "string",
          "name": "outcome",
          "type": "string"
        },
        {
          "internalType": "uint256",
          "name": "stakeAmount",
          "type": "uint256"
        },
        {
          "internalType": "uint256",
          "name": "totalStake",
          "type": "uint256"
        },
        {
          "internalType": "bool",
          "name": "claimed",
          "type": "bool"
        }
      ],
      "stateMutability": "view",
      "type": "function"
    },
    {
      "inputs": [],
      "name": "claimPredictionWinsPool",
      "outputs": [
        {
          "internalType": "uint256",
          "name": "",
          "type": "uint256"
        }
      ],
      "stateMutability": "view",
      "type": "function"
    },
    {
      "inputs": [
        {
          "internalType": "uint256",
          "name": "",
          "type": "uint256"
        },
        {
          "internalType": "address",
          "name": "",
          "type": "address"
        }
      ],
      "name": "claimableBalances",
      "outputs": [
        {
          "internalType": "uint256",
          "name": "",
          "type": "uint256"
        }
      ],
      "stateMutability": "view",
      "type": "function"
    },
    {
      "inputs": [
        {
          "internalType": "uint256",
          "name": "",
          "type": "uint256"
        },
        {
          "internalType": "address",
          "name": "",
          "type": "address"
        }
      ],
      "name": "claimableBoost",
      "outputs": [
        {
          "internalType": "uint256",
          "name": "",
          "type": "uint256"
        }
      ],
      "stateMutability": "view",
      "type": "function"
    },
    {
      "inputs": [
        {
          "internalType": "uint256",
          "name": "",
          "type": "uint256"
        },
        {
          "internalType": "address",
          "name": "",
          "type": "address"
        }
      ],
      "name": "claimableMarket",
      "outputs": [
        {
          "internalType": "uint256",
          "name": "",
          "type": "uint256"
        }
      ],
      "stateMutability": "view",
      "type": "function"
    },
    {
      "inputs": [],
      "name": "deployer",
      "outputs": [
        {
          "internalType": "address",
          "name": "",
          "type": "address"
        }
      ],
      "stateMutability": "view",
      "type": "function"
    },
    {
      "inputs": [],
      "name": "freeJackpotFee",
      "outputs": [
        {
          "internalType": "uint256",
          "name": "",
          "type": "uint256"
        }
      ],
      "stateMutability": "view",
      "type": "function"
    },
    {
      "inputs": [
        {
          "internalType": "address",
          "name": "",
          "type": "address"
        }
      ],
      "name": "jackpotBalances",
      "outputs": [
        {
          "internalType": "uint256",
          "name": "",
          "type": "uint256"
        }
      ],
      "stateMutability": "view",
      "type": "function"
    },
    {
      "inputs": [],
      "name": "jackpotPool",
      "outputs": [
        {
          "internalType": "uint256",
          "name": "",
          "type": "uint256"
        }
      ],
      "stateMutability": "view",
      "type": "function"
    },
    {
      "inputs": [],
      "name": "marketPlatformFee",
      "outputs": [
        {
          "internalType": "uint256",
          "name": "",
          "type": "uint256"
        }
      ],
      "stateMutability": "view",
      "type": "function"
    },
    {
      "inputs": [
        {
          "internalType": "uint256",
          "name": "",
          "type": "uint256"
        },
        {
          "internalType": "address",
          "name": "",
          "type": "address"
        },
        {
          "internalType": "string",
          "name": "",
          "type": "string"
        }
      ],
      "name": "marketPositions",
      "outputs": [
        {
          "internalType": "address",
          "name": "user",
          "type": "address"
        },
        {
          "internalType": "string",
          "name": "outcome",
          "type": "string"
        },
        {
          "internalType": "uint256",
          "name": "shares",
          "type": "uint256"
        },
        {
          "internalType": "uint256",
          "name": "totalInvested",
          "type": "uint256"
        }
      ],
      "stateMutability": "view",
      "type": "function"
    },
    {
      "inputs": [
        {
          "internalType": "uint256",
          "name": "",
          "type": "uint256"
        }
      ],
      "name": "markets",
      "outputs": [
        {
          "internalType": "uint256",
          "name": "marketId",
          "type": "uint256"
        },
        {
          "internalType": "bool",
          "name": "isPoll",
          "type": "bool"
        },
        {
          "internalType": "enum WeRgame.MarketStatus",
          "name": "status",
          "type": "uint8"
        },
        {
          "internalType": "uint256",
          "name": "totalLiquidity",
          "type": "uint256"
        },
        {
          "internalType": "bool",
          "name": "resolved",
          "type": "bool"
        },
        {
          "internalType": "string",
          "name": "winningOption",
          "type": "string"
        },
        {
          "internalType": "uint256",
          "name": "createdAt",
          "type": "uint256"
        },
        {
          "internalType": "uint256",
          "name": "resolvedAt",
          "type": "uint256"
        }
      ],
      "stateMutability": "view",
      "type": "function"
    },
    {
      "inputs": [],
      "name": "nextMarketId",
      "outputs": [
        {
          "internalType": "uint256",
          "name": "",
          "type": "uint256"
        }
      ],
      "stateMutability": "view",
      "type": "function"
    },
    {
      "inputs": [],
      "name": "platformFee",
      "outputs": [
        {
          "internalType": "uint256",
          "name": "",
          "type": "uint256"
        }
      ],
      "stateMutability": "view",
      "type": "function"
    },
    {
      "inputs": [],
      "name": "superAdmin",
      "outputs": [
        {
          "internalType": "address",
          "name": "",
          "type": "address"
        }
      ],
      "stateMutability": "view",
      "type": "function"
    },
    {
      "stateMutability": "payable",
      "type": "receive"
    },
    {
      "inputs": [
        {
          "internalType": "bool",
          "name": "isPoll",
          "type": "bool"
        },
        {
          "internalType": "string[]",
          "name": "options",
          "type": "string[]"
        }
      ],
      "name": "createMarket",
      "outputs": [
        {
          "internalType": "uint256",
          "name": "",
          "type": "uint256"
        }
      ],
      "stateMutability": "nonpayable",
      "type": "function"
    },
    {
      "inputs": [
        {
          "internalType": "uint256",
          "name": "marketId",
          "type": "uint256"
        },
        {
          "internalType": "enum WeRgame.MarketStatus",
          "name": "status",
          "type": "uint8"
        }
      ],
      "name": "updateMarketStatus",
      "outputs": [],
      "stateMutability": "nonpayable",
      "type": "function"
    },
    {
      "inputs": [
        {
          "internalType": "uint256",
          "name": "marketId",
          "type": "uint256"
        },
        {
          "internalType": "string",
          "name": "option",
          "type": "string"
        },
        {
          "internalType": "uint256",
          "name": "amount",
          "type": "uint256"
        }
      ],
      "name": "addLiquidity",
      "outputs": [],
      "stateMutability": "payable",
      "type": "function"
    },
    {
      "inputs": [
        {
          "internalType": "uint256",
          "name": "marketId",
          "type": "uint256"
        },
        {
          "internalType": "string",
          "name": "winningOption",
          "type": "string"
        }
      ],
      "name": "resolveMarket",
      "outputs": [],
      "stateMutability": "nonpayable",
      "type": "function"
    },
    {
      "inputs": [
        {
          "internalType": "uint256",
          "name": "_platformFee",
          "type": "uint256"
        },
        {
          "internalType": "uint256",
          "name": "_boostJackpotFee",
          "type": "uint256"
        },
        {
          "internalType": "uint256",
          "name": "_marketPlatformFee",
          "type": "uint256"
        },
        {
          "internalType": "uint256",
          "name": "_freeJackpotFee",
          "type": "uint256"
        }
      ],
      "name": "setFees",
      "outputs": [],
      "stateMutability": "nonpayable",
      "type": "function"
    },
    {
      "inputs": [],
      "name": "getFees",
      "outputs": [
        {
          "internalType": "uint256",
          "name": "_platformFee",
          "type": "uint256"
        },
        {
          "internalType": "uint256",
          "name": "_boostJackpotFee",
          "type": "uint256"
        },
        {
          "internalType": "uint256",
          "name": "_marketPlatformFee",
          "type": "uint256"
        },
        {
          "internalType": "uint256",
          "name": "_freeJackpotFee",
          "type": "uint256"
        }
      ],
      "stateMutability": "view",
      "type": "function"
    },
    {
      "inputs": [
        {
          "internalType": "uint256",
          "name": "marketId",
          "type": "uint256"
        }
      ],
      "name": "getMarketOptions",
      "outputs": [
        {
          "internalType": "string[]",
          "name": "",
          "type": "string[]"
        }
      ],
      "stateMutability": "view",
      "type": "function"
    },
    {
      "inputs": [
        {
          "internalType": "uint256",
          "name": "marketId",
          "type": "uint256"
        },
        {
          "internalType": "string",
          "name": "outcome",
          "type": "string"
        }
      ],
      "name": "stakeBoost",
      "outputs": [],
      "stateMutability": "payable",
      "type": "function"
    },
    {
      "inputs": [
        {
          "internalType": "uint256",
          "name": "marketId",
          "type": "uint256"
        },
        {
          "internalType": "string",
          "name": "outcome",
          "type": "string"
        }
      ],
      "name": "addBoostStake",
      "outputs": [],
      "stateMutability": "payable",
      "type": "function"
    },
    {
      "inputs": [
        {
          "internalType": "uint256",
          "name": "marketId",
          "type": "uint256"
        },
        {
          "internalType": "string",
          "name": "outcome",
          "type": "string"
        },
        {
          "internalType": "uint256",
          "name": "amount",
          "type": "uint256"
        }
      ],
      "name": "withdrawBoostStake",
      "outputs": [],
      "stateMutability": "nonpayable",
      "type": "function"
    },
    {
      "inputs": [
        {
          "internalType": "uint256",
          "name": "marketId",
          "type": "uint256"
        },
        {
          "internalType": "string",
          "name": "outcome",
          "type": "string"
        }
      ],
      "name": "claimBoost",
      "outputs": [],
      "stateMutability": "nonpayable",
      "type": "function"
    },
    {
      "inputs": [
        {
          "internalType": "uint256",
          "name": "marketId",
          "type": "uint256"
        },
        {
          "internalType": "address",
          "name": "user",
          "type": "address"
        },
        {
          "internalType": "uint256",
          "name": "amount",
          "type": "uint256"
        }
      ],
      "name": "setClaimableBalance",
      "outputs": [],
      "stateMutability": "nonpayable",
      "type": "function"
    },
    {
      "inputs": [
        {
          "internalType": "uint256",
          "name": "marketId",
          "type": "uint256"
        },
        {
          "internalType": "address",
          "name": "user",
          "type": "address"
        },
        {
          "internalType": "uint256",
          "name": "amount",
          "type": "uint256"
        }
      ],
      "name": "setClaimableBoost",
      "outputs": [],
      "stateMutability": "nonpayable",
      "type": "function"
    },
    {
      "inputs": [
        {
          "internalType": "uint256",
          "name": "marketId",
          "type": "uint256"
        },
        {
          "internalType": "address",
          "name": "user",
          "type": "address"
        },
        {
          "internalType": "uint256",
          "name": "amount",
          "type": "uint256"
        }
      ],
      "name": "setClaimableMarket",
      "outputs": [],
      "stateMutability": "nonpayable",
      "type": "function"
    },
    {
      "inputs": [
        {
          "internalType": "uint256",
          "name": "marketId",
          "type": "uint256"
        },
        {
          "internalType": "bool",
          "name": "isBoost",
          "type": "bool"
        }
      ],
      "name": "claimPredictionWins",
      "outputs": [],
      "stateMutability": "nonpayable",
      "type": "function"
    },
    {
      "inputs": [],
      "name": "fundClaimPredictionWinsPool",
      "outputs": [],
      "stateMutability": "payable",
      "type": "function"
    },
    {
      "inputs": [
        {
          "internalType": "address payable",
          "name": "to",
          "type": "address"
        },
        {
          "internalType": "uint256",
          "name": "amount",
          "type": "uint256"
        }
      ],
      "name": "withdrawFromClaimPredictionWinsPool",
      "outputs": [],
      "stateMutability": "nonpayable",
      "type": "function"
    },
    {
      "inputs": [
        {
          "internalType": "uint256",
          "name": "marketId",
          "type": "uint256"
        },
        {
          "internalType": "string",
          "name": "outcome",
          "type": "string"
        }
      ],
      "name": "buyMarketShares",
      "outputs": [],
      "stateMutability": "payable",
      "type": "function"
    },
    {
      "inputs": [
        {
          "internalType": "uint256",
          "name": "marketId",
          "type": "uint256"
        },
        {
          "internalType": "string",
          "name": "outcome",
          "type": "string"
        },
        {
          "internalType": "uint256",
          "name": "shares",
          "type": "uint256"
        }
      ],
      "name": "sellMarketShares",
      "outputs": [],
      "stateMutability": "nonpayable",
      "type": "function"
    },
    {
      "inputs": [
        {
          "internalType": "uint256",
          "name": "marketId",
          "type": "uint256"
        },
        {
          "internalType": "string",
          "name": "outcome",
          "type": "string"
        }
      ],
      "name": "claimMarket",
      "outputs": [],
      "stateMutability": "nonpayable",
      "type": "function"
    },
    {
      "inputs": [
        {
          "internalType": "uint256",
          "name": "marketId",
          "type": "uint256"
        },
        {
          "internalType": "string",
          "name": "outcome",
          "type": "string"
        }
      ],
      "name": "getPrice",
      "outputs": [
        {
          "internalType": "uint256",
          "name": "",
          "type": "uint256"
        }
      ],
      "stateMutability": "view",
      "type": "function"
    },
    {
      "inputs": [
        {
          "internalType": "uint256",
          "name": "marketId",
          "type": "uint256"
        },
        {
          "internalType": "address",
          "name": "user",
          "type": "address"
        },
        {
          "internalType": "string",
          "name": "outcome",
          "type": "string"
        }
      ],
      "name": "getUserPosition",
      "outputs": [
        {
          "internalType": "uint256",
          "name": "shares",
          "type": "uint256"
        },
        {
          "internalType": "uint256",
          "name": "totalInvested",
          "type": "uint256"
        }
      ],
      "stateMutability": "view",
      "type": "function"
    },
    {
      "inputs": [
        {
          "internalType": "uint256",
          "name": "marketId",
          "type": "uint256"
        },
        {
          "internalType": "address",
          "name": "user",
          "type": "address"
        },
        {
          "internalType": "string",
          "name": "outcome",
          "type": "string"
        }
      ],
      "name": "getBoostPrediction",
      "outputs": [
        {
          "internalType": "address",
          "name": "_user",
          "type": "address"
        },
        {
          "internalType": "uint256",
          "name": "_totalStake",
          "type": "uint256"
        },
        {
          "internalType": "bool",
          "name": "_claimed",
          "type": "bool"
        }
      ],
      "stateMutability": "view",
      "type": "function"
    },
    {
      "inputs": [],
      "name": "fundJackpotPool",
      "outputs": [],
      "stateMutability": "payable",
      "type": "function"
    },
    {
      "inputs": [
        {
          "internalType": "uint256",
          "name": "amount",
          "type": "uint256"
        }
      ],
      "name": "withdrawJackpot",
      "outputs": [],
      "stateMutability": "nonpayable",
      "type": "function"
    },
    {
      "inputs": [
        {
          "internalType": "address",
          "name": "user",
          "type": "address"
        },
        {
          "internalType": "uint256",
          "name": "amount",
          "type": "uint256"
        }
      ],
      "name": "setJackpotBalance",
      "outputs": [],
      "stateMutability": "nonpayable",
      "type": "function"
    },
    {
      "inputs": [
        {
          "internalType": "address payable",
          "name": "to",
          "type": "address"
        },
        {
          "internalType": "uint256",
          "name": "amount",
          "type": "uint256"
        }
      ],
      "name": "withdrawFromJackpotPool",
      "outputs": [],
      "stateMutability": "nonpayable",
      "type": "function"
    },
    {
      "inputs": [],
      "name": "getContractBalance",
      "outputs": [
        {
          "internalType": "uint256",
          "name": "",
          "type": "uint256"
        }
      ],
      "stateMutability": "view",
      "type": "function"
    },
    {
      "inputs": [
        {
          "internalType": "address payable",
          "name": "to",
          "type": "address"
        },
        {
          "internalType": "uint256",
          "name": "amount",
          "type": "uint256"
        }
      ],
      "name": "transferFunds",
      "outputs": [],
      "stateMutability": "nonpayable",
      "type": "function"
    },
    {
      "inputs": [
        {
          "internalType": "address",
          "name": "_superAdmin",
          "type": "address"
        }
      ],
      "name": "setSuperAdmin",
      "outputs": [],
      "stateMutability": "nonpayable",
      "type": "function"
    },
    {
      "inputs": [
        {
          "internalType": "address",
          "name": "user",
          "type": "address"
        }
      ],
      "name": "getJackpotBalance",
      "outputs": [
        {
          "internalType": "uint256",
          "name": "",
          "type": "uint256"
        }
      ],
      "stateMutability": "view",
      "type": "function"
    },
    {
      "inputs": [
        {
          "internalType": "uint256",
          "name": "marketId",
          "type": "uint256"
        },
        {
          "internalType": "address",
          "name": "user",
          "type": "address"
        }
      ],
      "name": "getClaimableBalance",
      "outputs": [
        {
          "internalType": "uint256",
          "name": "",
          "type": "uint256"
        }
      ],
      "stateMutability": "view",
      "type": "function"
    }
  ],
  "bytecode": "0x60806040525f601055348015610013575f80fd5b505f8054336001600160a01b031991821681178355600180549092161781556103e86002556101f460038190556004819055600555600d556144a290819061005a90395ff3fe60806040526004361061027e575f3560e01c80639f1d02461161014d578063c75bb724116100ba578063de9a814511610076578063de9a814514610837578063eae90d791461083f578063ef9f8d2614610852578063f87dd74b14610871578063f95d530b146108b2578063fbf91a14146108d157005b8063c75bb7241461076f578063ce1ea42b1461078e578063d437441e146107ad578063d5f39488146107c2578063db8d55f1146107e0578063dcc8dee91461081857005b8063b3e60a2611610109578063b3e60a261461067d578063b3eb5253146106c3578063bd0237b1146106f9578063c01744e914610718578063c1730ee11461072b578063c4fe75471461075c57005b80639f1d0246146105b0578063a2ddbca5146105cf578063b00e0395146105ee578063b05b32ae14610622578063b1283e7714610637578063b2e12adc1461066a57005b80633577392e116101eb5780636822d823116101a75780636822d823146104f7578063698d2d76146105225780636a4d9a0c146105415780636f9fb98a146105605780636fcba37714610572578063990dc9db1461059157005b80633577392e146104255780633ed7240814610459578063406ef2ef1461047857806348d0eca21461048d5780636523acf4146104ac578063663370c1146104e257005b8063157000521161023a578063157000521461034d57806318bb1f291461036c5780631d38461c1461039b57806326232a2e146103ba578063277c02aa146103cf57806329575f6a146103ee57005b8063012e293814610287578063019d6694146102a65780630325bbe8146102ef57806305d45d5f1461030457806312497adb1461033057806314f9e3aa1461034557005b3661028557005b005b348015610292575f80fd5b506102856102a1366004613a5f565b6108f0565b3480156102b1575f80fd5b506102dc6102c0366004613aba565b600960209081525f928352604080842090915290825290205481565b6040519081526020015b60405180910390f35b3480156102fa575f80fd5b506102dc60045481565b34801561030f575f80fd5b5061032361031e366004613ae8565b610c39565b6040516102e69190613ba2565b34801561033b575f80fd5b506102dc600f5481565b610285610d4a565b348015610358575f80fd5b50610285610367366004613bbb565b610dde565b348015610377575f80fd5b5061038b610386366004613bd6565b610ea8565b6040516102e69493929190613c2b565b3480156103a6575f80fd5b506102856103b5366004613c61565b610f86565b3480156103c5575f80fd5b506102dc60025481565b3480156103da575f80fd5b506102856103e9366004613c96565b610fd4565b3480156103f9575f80fd5b5060015461040d906001600160a01b031681565b6040516001600160a01b0390911681526020016102e6565b348015610430575f80fd5b5061044461043f366004613bd6565b611018565b604080519283526020830191909152016102e6565b348015610464575f80fd5b50610285610473366004613cc0565b61109f565b348015610483575f80fd5b506102dc600d5481565b348015610498575f80fd5b506102856104a7366004613d0c565b61131a565b3480156104b7575f80fd5b506102dc6104c6366004613aba565b600b60209081525f928352604080842090915290825290205481565b3480156104ed575f80fd5b506102dc60035481565b348015610502575f80fd5b506102dc610511366004613bbb565b600c6020525f908152604090205481565b34801561052d575f80fd5b506102dc61053c366004613a5f565b6113e1565b34801561054c575f80fd5b5061028561055b366004613c61565b611489565b34801561056b575f80fd5b50476102dc565b34801561057d575f80fd5b5061028561058c366004613d32565b6114d7565b34801561059c575f80fd5b506102856105ab366004613c96565b611615565b3480156105bb575f80fd5b506102dc6105ca366004613d75565b611775565b3480156105da575f80fd5b506102856105e9366004613c96565b61194e565b3480156105f9575f80fd5b506102dc610608366004613bbb565b6001600160a01b03165f908152600c602052604090205490565b34801561062d575f80fd5b506102dc600e5481565b348015610642575f80fd5b50610656610651366004613ae8565b611b47565b6040516102e6989796959493929190613e79565b610285610678366004613a5f565b611c1b565b348015610688575f80fd5b5061069c610697366004613bd6565b611ecf565b604080516001600160a01b03909416845260208401929092521515908201526060016102e6565b3480156106ce575f80fd5b506102dc6106dd366004613aba565b600a60209081525f928352604080842090915290825290205481565b348015610704575f80fd5b50610285610713366004613c96565b611f6c565b610285610726366004613cc0565b612154565b348015610736575f80fd5b5061074a610745366004613bd6565b6123bb565b6040516102e696959493929190613ecd565b61028561076a366004613a5f565b6124aa565b34801561077a575f80fd5b50610285610789366004613a5f565b612860565b348015610799575f80fd5b506102856107a8366004613ae8565b612a4a565b3480156107b8575f80fd5b506102dc60055481565b3480156107cd575f80fd5b505f5461040d906001600160a01b031681565b3480156107eb575f80fd5b506002546003546004546005546040805194855260208501939093529183015260608201526080016102e6565b348015610823575f80fd5b50610285610832366004613c61565b612c10565b610285612c5e565b61028561084d366004613a5f565b612cec565b34801561085d575f80fd5b5061028561086c366004613f13565b612ef7565b34801561087c575f80fd5b506102dc61088b366004613aba565b5f9182526009602090815260408084206001600160a01b0393909316845291905290205490565b3480156108bd575f80fd5b506102856108cc366004613a5f565b6132f2565b3480156108dc575f80fd5b506102856108eb366004613cc0565b6135d2565b5f828152600660205260408120548391036109265760405162461bcd60e51b815260040161091d90613f3d565b60405180910390fd5b601054156109465760405162461bcd60e51b815260040161091d90613f6c565b60016010555f8381526006602081905260409091209081015460ff1661097e5760405162461bcd60e51b815260040161091d90613fa3565b82516020840120604051610996906007840190614002565b6040518091039020146109e15760405162461bcd60e51b81526020600482015260136024820152724e6f742077696e6e696e67206f7574636f6d6560681b604482015260640161091d565b5f8481526007602090815260408083203384529091528082209051610a07908690614074565b90815260405190819003602001902080549091506001600160a01b03163314610a685760405162461bcd60e51b8152602060048201526013602482015272139bc81c1c99591a58dd1a5bdb88199bdd5b99606a1b604482015260640161091d565b600581015460ff1615610aaf5760405162461bcd60e51b815260206004820152600f60248201526e105b1c9958591e4818db185a5b5959608a1b604482015260640161091d565b5f816004015411610af65760405162461bcd60e51b81526020600482015260116024820152704e6f207374616b6520746f20636c61696d60781b604482015260640161091d565b5f85815260096020908152604080832033845290915290205480610b2c5760405162461bcd60e51b815260040161091d9061408f565b80600f541015610b4e5760405162461bcd60e51b815260040161091d906140bd565b60058201805460ff191660011790555f8681526009602090815260408083203384529091528120819055600f8054839290610b8a908490614108565b90915550506040515f90339083908381818185875af1925050503d805f8114610bce576040519150601f19603f3d011682016040523d82523d5f602084013e610bd3565b606091505b5050905080610bf45760405162461bcd60e51b815260040161091d9061411b565b604051828152339088907f20e28d0ec25cd6e7b3ce931db96b9a33e940a54a32e1c0b8379e7660a2828c69906020015b60405180910390a350505f6010555050505050565b5f8181526006602052604081205460609183919003610c6a5760405162461bcd60e51b815260040161091d90613f3d565b5f83815260066020908152604080832060020180548251818502810185019093528083529193909284015b82821015610d3d578382905f5260205f20018054610cb290613fd0565b80601f0160208091040260200160405190810160405280929190818152602001828054610cde90613fd0565b8015610d295780601f10610d0057610100808354040283529160200191610d29565b820191905f5260205f20905b815481529060010190602001808311610d0c57829003601f168201915b505050505081526020019060010190610c95565b5050505091505b50919050565b5f546001600160a01b03163314610d735760405162461bcd60e51b815260040161091d90614144565b5f3411610d925760405162461bcd60e51b815260040161091d9061416b565b34600f5f828254610da391906141a2565b90915550506040513481527f4986ef868ee9659d51f041598f943aa46a8bd02efd1912472d5990a090d37321906020015b60405180910390a1565b6001546001600160a01b0316331480610e0057505f546001600160a01b031633145b610e3e5760405162461bcd60e51b815260206004820152600f60248201526e27b7363c9039bab832b920b236b4b760891b604482015260640161091d565b6001600160a01b038116610e865760405162461bcd60e51b815260206004820152600f60248201526e496e76616c6964206164647265737360881b604482015260640161091d565b600180546001600160a01b0319166001600160a01b0392909216919091179055565b600860209081525f9384526040808520825292845291909220825180840183018051928152908301939092019290922091905280546001820180546001600160a01b039092169291610ef990613fd0565b80601f0160208091040260200160405190810160405280929190818152602001828054610f2590613fd0565b8015610f705780601f10610f4757610100808354040283529160200191610f70565b820191905f5260205f20905b815481529060010190602001808311610f5357829003601f168201915b5050505050908060020154908060030154905084565b5f546001600160a01b03163314610faf5760405162461bcd60e51b815260040161091d90614144565b5f928352600a602090815260408085206001600160a01b039094168552929052912055565b5f546001600160a01b03163314610ffd5760405162461bcd60e51b815260040161091d90614144565b6001600160a01b039091165f908152600c6020526040902055565b5f838152600660205260408120548190859082036110485760405162461bcd60e51b815260040161091d90613f3d565b5f8681526008602090815260408083206001600160a01b03891684529091528082209051611077908790614074565b9081526020016040518091039020905080600201548160030154935093505050935093915050565b5f838152600660205260408120548491036110cc5760405162461bcd60e51b815260040161091d90613f3d565b601054156110ec5760405162461bcd60e51b815260040161091d90613f6c565b60016010555f848152600660205260408120906001820154610100900460ff16600381111561111d5761111d613e45565b14806111455750600180820154610100900460ff16600381111561114357611143613e45565b145b6111615760405162461bcd60e51b815260040161091d906141b5565b5f8581526007602090815260408083203384529091528082209051611187908790614074565b90815260405190819003602001902080549091506001600160a01b031633146111e85760405162461bcd60e51b8152602060048201526013602482015272139bc81c1c99591a58dd1a5bdb88199bdd5b99606a1b604482015260640161091d565b83816004015410156112315760405162461bcd60e51b8152602060048201526012602482015271496e73756666696369656e74207374616b6560701b604482015260640161091d565b83816004015f8282546112449190614108565b9091555050600f5484111561126b5760405162461bcd60e51b815260040161091d906140bd565b83600f5f82825461127c9190614108565b90915550506040515f90339086908381818185875af1925050503d805f81146112c0576040519150601f19603f3d011682016040523d82523d5f602084013e6112c5565b606091505b50509050806112e65760405162461bcd60e51b815260040161091d9061411b565b604051858152339088907fbcbb1a32e70b3a4c7e261bf1aa686d9baefa195ed797e1225c008ae953d6f1cf90602001610c24565b5f546001600160a01b031633146113435760405162461bcd60e51b815260040161091d90614144565b5f828152600660205260408120548391036113705760405162461bcd60e51b815260040161091d90613f3d565b5f838152600660205260409020600101805483919061ff00191661010083600381111561139f5761139f613e45565b0217905550827fd067ebf1565b7b7f7e3c08ccb7f355defc06fd6a3e5e3da1f0a43c8a235350ac836040516113d491906141e0565b60405180910390a2505050565b5f828152600660205260408120548390820361140f5760405162461bcd60e51b815260040161091d90613f3d565b5f8481526006602052604081206005810154909103611441576002810154611439906127106141ee565b925050611482565b806005015481600301856040516114589190614074565b908152602001604051809103902054612710611474919061420d565b61147e91906141ee565b9250505b5092915050565b5f546001600160a01b031633146114b25760405162461bcd60e51b815260040161091d90614144565b5f928352600b602090815260408085206001600160a01b039094168552929052912055565b6001546001600160a01b03163314806114f957505f546001600160a01b031633145b6115375760405162461bcd60e51b815260206004820152600f60248201526e27b7363c9039bab832b920b236b4b760891b604482015260640161091d565b612710841115801561154b57506127108311155b801561155957506127108211155b801561156757506127108111155b6115b35760405162461bcd60e51b815260206004820152601760248201527f466565732063616e6e6f74206578636565642031303025000000000000000000604482015260640161091d565b60028490556003839055600482905560058190556040805185815260208101859052908101839052606081018290527f16e6f67290546b8dd0e587f4b7f67d4f61932ae17ffd8c60d3509dbc05c175fe9060800160405180910390a150505050565b5f546001600160a01b0316331461163e5760405162461bcd60e51b815260040161091d90614144565b6001600160a01b0382166116645760405162461bcd60e51b815260040161091d90614224565b306001600160a01b0383160361168c5760405162461bcd60e51b815260040161091d9061424f565b5f81116116ab5760405162461bcd60e51b815260040161091d9061416b565b804710156116cb5760405162461bcd60e51b815260040161091d90614286565b5f826001600160a01b0316826040515f6040518083038185875af1925050503d805f8114611714576040519150601f19603f3d011682016040523d82523d5f602084013e611719565b606091505b505090508061173a5760405162461bcd60e51b815260040161091d9061411b565b826001600160a01b03167f8c9a4f13b67cb64d7c6aa1ae0c9bf07694af521a28b93e7060020810ab4bc59f836040516113d491815260200190565b5f80546001600160a01b0316331461179f5760405162461bcd60e51b815260040161091d90614144565b6002825110156117f15760405162461bcd60e51b815260206004820152601c60248201527f4d7573742068617665206174206c656173742032206f7074696f6e7300000000604482015260640161091d565b600d80545f9182611801836142bd565b909155505f81815260066020526040812082815560018101805461ffff191688151561ff0019161790554260088201559192505b84518110156119095781600201858281518110611854576118546142d5565b60209081029190910181015182546001810184555f93845291909220019061187c9082614337565b505f82600301868381518110611894576118946142d5565b60200260200101516040516118a99190614074565b9081526020016040518091039020819055505f826004018683815181106118d2576118d26142d5565b60200260200101516040516118e79190614074565b9081526040519081900360200190205580611901816142bd565b915050611835565b50817f41671df7de79859ef92d2dc3d0936d3890eea9d4dda0c64e7d375277f2e5e7a1868660405161193c9291906143f3565b60405180910390a25090505b92915050565b5f546001600160a01b031633146119775760405162461bcd60e51b815260040161091d90614144565b601054156119975760405162461bcd60e51b815260040161091d90613f6c565b60016010556001600160a01b0382166119c25760405162461bcd60e51b815260040161091d90614224565b306001600160a01b038316036119ea5760405162461bcd60e51b815260040161091d9061424f565b5f8111611a095760405162461bcd60e51b815260040161091d9061416b565b80600e541015611a575760405162461bcd60e51b8152602060048201526019602482015278496e73756666696369656e7420706f6f6c2062616c616e636560381b604482015260640161091d565b80471015611a775760405162461bcd60e51b815260040161091d90614286565b80600e5f828254611a889190614108565b90915550506040515f906001600160a01b0384169083908381818185875af1925050503d805f8114611ad5576040519150601f19603f3d011682016040523d82523d5f602084013e611ada565b606091505b5050905080611afb5760405162461bcd60e51b815260040161091d9061411b565b826001600160a01b03167f05388187d2d8839bf46fead5ad128385c82076ad81b57a1278382a2f77ca244483604051611b3691815260200190565b60405180910390a250505f60105550565b600660208190525f918252604090912080546001820154600583015493830154600784018054939560ff8085169661010090950481169591949316929190611b8e90613fd0565b80601f0160208091040260200160405190810160405280929190818152602001828054611bba90613fd0565b8015611c055780601f10611bdc57610100808354040283529160200191611c05565b820191905f5260205f20905b815481529060010190602001808311611be857829003601f168201915b5050505050908060080154908060090154905088565b5f82815260066020526040812054839103611c485760405162461bcd60e51b815260040161091d90613f3d565b5f3411611c675760405162461bcd60e51b815260040161091d9061416b565b5f838152600660205260408120906001820154610100900460ff166003811115611c9357611c93613e45565b1480611cbb5750600180820154610100900460ff166003811115611cb957611cb9613e45565b145b611cd75760405162461bcd60e51b815260040161091d906141b5565b5f805b6002830154811015611d40578480519060200120836002018281548110611d0357611d036142d5565b905f5260205f2001604051611d189190614002565b604051809103902003611d2e5760019150611d40565b80611d38816142bd565b915050611cda565b5080611d805760405162461bcd60e51b815260206004820152600f60248201526e496e76616c6964206f7574636f6d6560881b604482015260640161091d565b5f61271060025434611d92919061420d565b611d9c91906141ee565b90505f61271060035434611db0919061420d565b611dba91906141ee565b90505f81611dc88434614108565b611dd29190614108565b5f89815260076020908152604080832033845290915280822090519293509091611dfd908a90614074565b90815260405190819003602001902080549091506001600160a01b0316611e575780546001600160a01b031916331781556001810189905560028101611e438982614337565b506003810182905560048101829055611e70565b81816004015f828254611e6a91906141a2565b90915550505b34600f5f828254611e8191906141a2565b909155505060405133908a907f9af5caefb8cea3d0910b8a9636232b856d7fadb93249d5b0bfbeab7c38f7921690611ebc908c908790614415565b60405180910390a3505050505050505050565b5f838152600660205260408120548190819086908203611f015760405162461bcd60e51b815260040161091d90613f3d565b5f8781526007602090815260408083206001600160a01b038a1684529091528082209051611f30908890614074565b908152604051908190036020019020805460048201546005909201546001600160a01b03909116965090945060ff169250505093509350939050565b5f546001600160a01b03163314611f955760405162461bcd60e51b815260040161091d90614144565b60105415611fb55760405162461bcd60e51b815260040161091d90613f6c565b60016010556001600160a01b038216611fe05760405162461bcd60e51b815260040161091d90614224565b306001600160a01b038316036120085760405162461bcd60e51b815260040161091d9061424f565b5f81116120275760405162461bcd60e51b815260040161091d9061416b565b80600f5410156120755760405162461bcd60e51b8152602060048201526019602482015278496e73756666696369656e7420706f6f6c2062616c616e636560381b604482015260640161091d565b804710156120955760405162461bcd60e51b815260040161091d90614286565b80600f5f8282546120a69190614108565b90915550506040515f906001600160a01b0384169083908381818185875af1925050503d805f81146120f3576040519150601f19603f3d011682016040523d82523d5f602084013e6120f8565b606091505b50509050806121195760405162461bcd60e51b815260040161091d9061411b565b826001600160a01b03167f9b4720e539e7a1f0094cfce31d8cc4e3f6a63afdbe9350a2636b0edd879c832583604051611b3691815260200190565b5f546001600160a01b0316331461217d5760405162461bcd60e51b815260040161091d90614144565b5f838152600660205260408120548491036121aa5760405162461bcd60e51b815260040161091d90613f3d565b813410156121f25760405162461bcd60e51b8152602060048201526015602482015274125b9cdd59999a58da595b9d08115512081cd95b9d605a1b604482015260640161091d565b5f34116122115760405162461bcd60e51b815260040161091d9061416b565b5f848152600660205260408120906001820154610100900460ff16600381111561223d5761223d613e45565b14806122655750600180820154610100900460ff16600381111561226357612263613e45565b145b6122815760405162461bcd60e51b815260040161091d906141b5565b5f805b60028301548110156122ea5785805190602001208360020182815481106122ad576122ad6142d5565b905f5260205f20016040516122c29190614002565b6040518091039020036122d857600191506122ea565b806122e2816142bd565b915050612284565b50806123295760405162461bcd60e51b815260206004820152600e60248201526d24b73b30b634b21037b83a34b7b760911b604482015260640161091d565b83826003018660405161233c9190614074565b90815260200160405180910390205f82825461235891906141a2565b9250508190555083826005015f82825461237291906141a2565b92505081905550857faa83f946898046e98d04323d1f949f879cd43a774cb0981f1025ce3caa9afc8c86866040516123ab929190614415565b60405180910390a2505050505050565b600760209081525f93845260408085208252928452919092208251808401830180519281529083019390920192909220919052805460018201546002830180546001600160a01b0390931693919261241290613fd0565b80601f016020809104026020016040519081016040528092919081815260200182805461243e90613fd0565b80156124895780601f1061246057610100808354040283529160200191612489565b820191905f5260205f20905b81548152906001019060200180831161246c57829003601f168201915b50505050600383015460048401546005909401549293909290915060ff1686565b5f828152600660205260408120548391036124d75760405162461bcd60e51b815260040161091d90613f3d565b5f34116124f65760405162461bcd60e51b815260040161091d9061416b565b5f838152600660205260408120906001820154610100900460ff16600381111561252257612522613e45565b148061254a5750600180820154610100900460ff16600381111561254857612548613e45565b145b6125665760405162461bcd60e51b815260040161091d906141b5565b5f805b60028301548110156125cf578480519060200120836002018281548110612592576125926142d5565b905f5260205f20016040516125a79190614002565b6040518091039020036125bd57600191506125cf565b806125c7816142bd565b915050612569565b508061260f5760405162461bcd60e51b815260206004820152600f60248201526e496e76616c6964206f7574636f6d6560881b604482015260640161091d565b5f61271060045434612621919061420d565b61262b91906141ee565b90505f6127106005543461263f919061420d565b61264991906141ee565b90505f816126578434614108565b6126619190614108565b90505f80866005015411612685576002860154612680906127106141ee565b6126c2565b8560050154866003018960405161269c9190614074565b9081526020016040518091039020546127106126b8919061420d565b6126c291906141ee565b90505f816126d28461271061420d565b6126dc91906141ee565b905082876003018a6040516126f19190614074565b90815260200160405180910390205f82825461270d91906141a2565b9250508190555082876005015f82825461272791906141a2565b9250508190555080876004018a6040516127419190614074565b90815260200160405180910390205f82825461275d91906141a2565b90915550505f8a81526008602090815260408083203384529091528082209051612788908c90614074565b90815260405190819003602001902080549091506001600160a01b03166127c95780546001600160a01b03191633178155600181016127c78b82614337565b505b81816002015f8282546127dc91906141a2565b9250508190555083816003015f8282546127f691906141a2565b9250508190555034600f5f82825461280e91906141a2565b909155505060405133908c907f65b9cf5504284839513abe58c29b419750bf6617216734ca4c0aa61a06c717849061284b908e9089908890614436565b60405180910390a35050505050505050505050565b5f546001600160a01b031633146128895760405162461bcd60e51b815260040161091d90614144565b5f828152600660205260408120548391036128b65760405162461bcd60e51b815260040161091d90613f3d565b5f83815260066020526040902060036001820154610100900460ff1660038111156128e3576128e3613e45565b036129235760405162461bcd60e51b815260206004820152601060248201526f105b1c9958591e481c995cdbdb1d995960821b604482015260640161091d565b5f805b600283015481101561298c57848051906020012083600201828154811061294f5761294f6142d5565b905f5260205f20016040516129649190614002565b60405180910390200361297a576001915061298c565b80612984816142bd565b915050612926565b50806129d35760405162461bcd60e51b815260206004820152601660248201527524b73b30b634b2103bb4b73734b7339037b83a34b7b760511b604482015260640161091d565b6001828101805461ff00191661030017905560068301805460ff1916909117905560078201612a028582614337565b5042600983015560405185907f2ec1f84b4079525f1ab2216f53a16f520efec75c91c517667151e55bbea7b9ec90612a3b90879061445a565b60405180910390a25050505050565b60105415612a6a5760405162461bcd60e51b815260040161091d90613f6c565b600160105580612a8c5760405162461bcd60e51b815260040161091d9061416b565b80600e541015612ade5760405162461bcd60e51b815260206004820152601960248201527f496e73756666696369656e74206a61636b706f7420706f6f6c00000000000000604482015260640161091d565b335f908152600c6020526040902054811115612b335760405162461bcd60e51b8152602060048201526014602482015273496e73756666696369656e742062616c616e636560601b604482015260640161091d565b335f908152600c602052604081208054839290612b51908490614108565b9250508190555080600e5f828254612b699190614108565b90915550506040515f90339083908381818185875af1925050503d805f8114612bad576040519150601f19603f3d011682016040523d82523d5f602084013e612bb2565b606091505b5050905080612bd35760405162461bcd60e51b815260040161091d9061411b565b60405182815233907fd40b323ed8b019a73e488040e2e991ed6218cbfa9561673125581fc3778091879060200160405180910390a250505f601055565b5f546001600160a01b03163314612c395760405162461bcd60e51b815260040161091d90614144565b5f9283526009602090815260408085206001600160a01b039094168552929052912055565b5f546001600160a01b03163314612c875760405162461bcd60e51b815260040161091d90614144565b5f3411612ca65760405162461bcd60e51b815260040161091d9061416b565b34600e5f828254612cb791906141a2565b90915550506040513481527f2076cd8bd7c147f4b7bb2b5e2dd0db46fb74246bc4c4e3ded824202bfff5ca5790602001610dd4565b5f82815260066020526040812054839103612d195760405162461bcd60e51b815260040161091d90613f3d565b5f3411612d385760405162461bcd60e51b815260040161091d9061416b565b5f838152600660205260408120906001820154610100900460ff166003811115612d6457612d64613e45565b1480612d8c5750600180820154610100900460ff166003811115612d8a57612d8a613e45565b145b612da85760405162461bcd60e51b815260040161091d906141b5565b5f8481526007602090815260408083203384529091528082209051612dce908690614074565b90815260405190819003602001902080549091506001600160a01b03163314612e325760405162461bcd60e51b815260206004820152601660248201527527379032bc34b9ba34b73390383932b234b1ba34b7b760511b604482015260640161091d565b5f61271060025434612e44919061420d565b612e4e91906141ee565b90505f61271060035434612e62919061420d565b612e6c91906141ee565b90505f81612e7a8434614108565b612e849190614108565b905080846004015f828254612e9991906141a2565b9250508190555034600f5f828254612eb191906141a2565b9091555050604051818152339089907fafc28a1adb0af8d9ee797f710633dbeb0799ebb3270743a3c4a31111f1ffbc909060200160405180910390a35050505050505050565b5f82815260066020526040812054839103612f245760405162461bcd60e51b815260040161091d90613f3d565b60105415612f445760405162461bcd60e51b815260040161091d90613f6c565b60016010555f8381526006602081905260409091209081015460ff16612f7c5760405162461bcd60e51b815260040161091d90613fa3565b5f816007018054612f8c90613fd0565b80601f0160208091040260200160405190810160405280929190818152602001828054612fb890613fd0565b80156130035780601f10612fda57610100808354040283529160200191613003565b820191905f5260205f20905b815481529060010190602001808311612fe657829003601f168201915b505050505090505f841561313b57505f858152600a60209081526040808320338452909152902054806130485760405162461bcd60e51b815260040161091d9061408f565b5f868152600760209081526040808320338452909152808220905161306e908590614074565b90815260405190819003602001902080549091506001600160a01b03163314801561309c57505f8160040154115b80156130ad5750600581015460ff16155b6130ed5760405162461bcd60e51b8152602060048201526011602482015270139bdd0818481c185c9d1a58da5c185b9d607a1b604482015260640161091d565b81600f54101561310f5760405162461bcd60e51b815260040161091d906140bd565b5f878152600a60209081526040808320338452909152812055600501805460ff19166001179055613243565b505f858152600b60209081526040808320338452909152902054806131725760405162461bcd60e51b815260040161091d9061408f565b5f8681526008602090815260408083203384529091528082209051613198908590614074565b90815260405190819003602001902080549091506001600160a01b0316331480156131c657505f8160020154115b6132065760405162461bcd60e51b8152602060048201526011602482015270139bdd0818481c185c9d1a58da5c185b9d607a1b604482015260640161091d565b81600f5410156132285760405162461bcd60e51b815260040161091d906140bd565b505f868152600b602090815260408083203384529091528120555b80600f5f8282546132549190614108565b90915550506040515f90339083908381818185875af1925050503d805f8114613298576040519150601f19603f3d011682016040523d82523d5f602084013e61329d565b606091505b50509050806132be5760405162461bcd60e51b815260040161091d9061411b565b604051828152339088907fa3097d366dbda72a300109ce4eb4df25c8b2709e0b539bcfaf91102fff0e817490602001610c24565b5f8281526006602052604081205483910361331f5760405162461bcd60e51b815260040161091d90613f3d565b6010541561333f5760405162461bcd60e51b815260040161091d90613f6c565b60016010555f8381526006602081905260409091209081015460ff166133775760405162461bcd60e51b815260040161091d90613fa3565b8251602084012060405161338f906007840190614002565b6040518091039020146133da5760405162461bcd60e51b81526020600482015260136024820152724e6f742077696e6e696e67206f7574636f6d6560681b604482015260640161091d565b5f8481526008602090815260408083203384529091528082209051613400908690614074565b90815260405190819003602001902080549091506001600160a01b0316331461345f5760405162461bcd60e51b8152602060048201526011602482015270139bc81c1bdcda5d1a5bdb88199bdd5b99607a1b604482015260640161091d565b5f8160020154116134a75760405162461bcd60e51b81526020600482015260126024820152714e6f2073686172657320746f20636c61696d60701b604482015260640161091d565b5f858152600960209081526040808320338452909152902054806134dd5760405162461bcd60e51b815260040161091d9061408f565b80600f5410156134ff5760405162461bcd60e51b815260040161091d906140bd565b5f8681526009602090815260408083203384529091528120819055600f805483929061352c908490614108565b90915550506040515f90339083908381818185875af1925050503d805f8114613570576040519150601f19603f3d011682016040523d82523d5f602084013e613575565b606091505b50509050806135965760405162461bcd60e51b815260040161091d9061411b565b336001600160a01b0316877fb293892389f4a468a51fa597d7cd2627d3fa920ae52f4843616707f64a8041768885604051610c24929190614415565b5f838152600660205260408120548491036135ff5760405162461bcd60e51b815260040161091d90613f3d565b6010541561361f5760405162461bcd60e51b815260040161091d90613f6c565b60016010555f848152600660205260408120906001820154610100900460ff16600381111561365057613650613e45565b14806136785750600180820154610100900460ff16600381111561367657613676613e45565b145b6136945760405162461bcd60e51b815260040161091d906141b5565b5f85815260086020908152604080832033845290915280822090516136ba908790614074565b90815260405190819003602001902080549091506001600160a01b031633146137195760405162461bcd60e51b8152602060048201526011602482015270139bc81c1bdcda5d1a5bdb88199bdd5b99607a1b604482015260640161091d565b83816002015410156137635760405162461bcd60e51b8152602060048201526013602482015272496e73756666696369656e742073686172657360681b604482015260640161091d565b5f80836005015411613785576002830154613780906127106141ee565b6137c2565b8260050154836003018760405161379c9190614074565b9081526020016040518091039020546127106137b8919061420d565b6137c291906141ee565b90505f6127106137d2838861420d565b6137dc91906141ee565b90508084600301886040516137f19190614074565b90815260200160405180910390205f82825461380d9190614108565b9250508190555080846005015f8282546138279190614108565b925050819055508584600401886040516138419190614074565b90815260200160405180910390205f82825461385d9190614108565b9250508190555085836002015f8282546138779190614108565b9091555050600283015461388c9087906141a2565b600384015461389b908361420d565b6138a591906141ee565b836003015f8282546138b79190614108565b9091555050600f548111156138de5760405162461bcd60e51b815260040161091d906140bd565b80600f5f8282546138ef9190614108565b90915550506040515f90339083908381818185875af1925050503d805f8114613933576040519150601f19603f3d011682016040523d82523d5f602084013e613938565b606091505b50509050806139595760405162461bcd60e51b815260040161091d9061411b565b336001600160a01b0316897f2136d4ee254f7d800aae52b9b653ccd229ae15988bf2d1371a31db50132a69e98a8a8660405161399793929190614436565b60405180910390a350505f60105550505050505050565b634e487b7160e01b5f52604160045260245ffd5b604051601f8201601f1916810167ffffffffffffffff811182821017156139eb576139eb6139ae565b604052919050565b5f82601f830112613a02575f80fd5b813567ffffffffffffffff811115613a1c57613a1c6139ae565b613a2f601f8201601f19166020016139c2565b818152846020838601011115613a43575f80fd5b816020850160208301375f918101602001919091529392505050565b5f8060408385031215613a70575f80fd5b82359150602083013567ffffffffffffffff811115613a8d575f80fd5b613a99858286016139f3565b9150509250929050565b6001600160a01b0381168114613ab7575f80fd5b50565b5f8060408385031215613acb575f80fd5b823591506020830135613add81613aa3565b809150509250929050565b5f60208284031215613af8575f80fd5b5035919050565b5f5b83811015613b19578181015183820152602001613b01565b50505f910152565b5f8151808452613b38816020860160208601613aff565b601f01601f19169290920160200192915050565b5f82825180855260208086019550808260051b8401018186015f5b84811015613b9557601f19868403018952613b83838351613b21565b98840198925090830190600101613b67565b5090979650505050505050565b602081525f613bb46020830184613b4c565b9392505050565b5f60208284031215613bcb575f80fd5b8135613bb481613aa3565b5f805f60608486031215613be8575f80fd5b833592506020840135613bfa81613aa3565b9150604084013567ffffffffffffffff811115613c15575f80fd5b613c21868287016139f3565b9150509250925092565b6001600160a01b03851681526080602082018190525f90613c4e90830186613b21565b6040830194909452506060015292915050565b5f805f60608486031215613c73575f80fd5b833592506020840135613c8581613aa3565b929592945050506040919091013590565b5f8060408385031215613ca7575f80fd5b8235613cb281613aa3565b946020939093013593505050565b5f805f60608486031215613cd2575f80fd5b83359250602084013567ffffffffffffffff811115613cef575f80fd5b613cfb868287016139f3565b925050604084013590509250925092565b5f8060408385031215613d1d575f80fd5b82359150602083013560048110613add575f80fd5b5f805f8060808587031215613d45575f80fd5b5050823594602084013594506040840135936060013592509050565b80358015158114613d70575f80fd5b919050565b5f8060408385031215613d86575f80fd5b613d8f83613d61565b915060208084013567ffffffffffffffff80821115613dac575f80fd5b818601915086601f830112613dbf575f80fd5b813581811115613dd157613dd16139ae565b8060051b613de08582016139c2565b918252838101850191858101908a841115613df9575f80fd5b86860192505b83831015613e3457823585811115613e16575f8081fd5b613e248c89838a01016139f3565b8352509186019190860190613dff565b809750505050505050509250929050565b634e487b7160e01b5f52602160045260245ffd5b60048110613e7557634e487b7160e01b5f52602160045260245ffd5b9052565b5f6101008a83528915156020840152613e95604084018a613e59565b87606084015286151560808401528060a0840152613eb581840187613b21565b60c0840195909552505060e001529695505050505050565b60018060a01b038716815285602082015260c060408201525f613ef360c0830187613b21565b6060830195909552506080810192909252151560a0909101529392505050565b5f8060408385031215613f24575f80fd5b82359150613f3460208401613d61565b90509250929050565b60208082526015908201527413585c9ad95d08191bd95cc81b9bdd08195e1a5cdd605a1b604082015260600190565b6020808252601f908201527f5265656e7472616e637947756172643a207265656e7472616e742063616c6c00604082015260600190565b60208082526013908201527213585c9ad95d081b9bdd081c995cdbdb1d9959606a1b604082015260600190565b600181811c90821680613fe457607f821691505b602082108103610d4457634e487b7160e01b5f52602260045260245ffd5b5f80835461400f81613fd0565b60018281168015614027576001811461403c57614068565b60ff1984168752821515830287019450614068565b875f526020805f205f5b8581101561405f5781548a820152908401908201614046565b50505082870194505b50929695505050505050565b5f8251614085818460208701613aff565b9190910192915050565b6020808252601490820152734e6f20636c61696d61626c652062616c616e636560601b604082015260600190565b60208082526017908201527f496e73756666696369656e7420636c61696d20706f6f6c000000000000000000604082015260600190565b634e487b7160e01b5f52601160045260245ffd5b81810381811115611948576119486140f4565b6020808252600f908201526e151c985b9cd9995c8819985a5b1959608a1b604082015260600190565b6020808252600d908201526c27b7363c903232b83637bcb2b960991b604082015260600190565b6020808252601d908201527f416d6f756e74206d7573742062652067726561746572207468616e2030000000604082015260600190565b80820180821115611948576119486140f4565b6020808252601190820152704d61726b6574206e6f742061637469766560781b604082015260600190565b602081016119488284613e59565b5f8261420857634e487b7160e01b5f52601260045260245ffd5b500490565b8082028115828204841417611948576119486140f4565b602080825260119082015270125b9d985b1a59081c9958da5c1a595b9d607a1b604082015260600190565b60208082526017908201527f43616e6e6f742073656e6420746f20636f6e7472616374000000000000000000604082015260600190565b6020808252601d908201527f496e73756666696369656e7420636f6e74726163742062616c616e6365000000604082015260600190565b5f600182016142ce576142ce6140f4565b5060010190565b634e487b7160e01b5f52603260045260245ffd5b601f821115614332575f81815260208120601f850160051c8101602086101561430f5750805b601f850160051c820191505b8181101561432e5782815560010161431b565b5050505b505050565b815167ffffffffffffffff811115614351576143516139ae565b6143658161435f8454613fd0565b846142e9565b602080601f831160018114614398575f84156143815750858301515b5f19600386901b1c1916600185901b17855561432e565b5f85815260208120601f198616915b828110156143c6578886015182559484019460019091019084016143a7565b50858210156143e357878501515f19600388901b60f8161c191681555b5050505050600190811b01905550565b8215158152604060208201525f61440d6040830184613b4c565b949350505050565b604081525f6144276040830185613b21565b90508260208301529392505050565b606081525f6144486060830186613b21565b60208301949094525060400152919050565b602081525f613bb46020830184613b2156fea264697066735822122090b60cc9476dc543abb8098698f48885d7335819e89e555b4f45264a26b404e364736f6c63430008140033",
  "immutableReferences": {},
  "source": "// SPDX-License-Identifier: MIT\r\npragma solidity ^0.8.20;\r\n\r\n/**\r\n * @title WeRgame\r\n * @dev Comprehensive smart contract for prediction market platform\r\n * Handles market creation, trading, boost predictions, and jackpot management\r\n */\r\ncontract WeRgame {\r\n    address public deployer;\r\n    address public superAdmin;\r\n    \r\n    // Fee structure (in basis points, 10000 = 100%)\r\n    uint256 public platformFee; // For boost predictions\r\n    uint256 public boostJackpotFee;\r\n    uint256 public marketPlatformFee;\r\n    uint256 public freeJackpotFee;\r\n    \r\n    // Market status enum\r\n    enum MarketStatus {\r\n        Upcoming,\r\n        Active,\r\n        Locked,\r\n        Resolved\r\n    }\r\n    \r\n    // Market structure\r\n    struct Market {\r\n        uint256 marketId;\r\n        bool isPoll; // true for poll, false for match\r\n        MarketStatus status;\r\n        string[] options; // Options/outcomes for this market\r\n        mapping(string => uint256) liquidity; // Liquidity per option\r\n        mapping(string => uint256) shares; // Total shares per option\r\n        uint256 totalLiquidity;\r\n        bool resolved;\r\n        string winningOption; // Set when resolved\r\n        uint256 createdAt;\r\n        uint256 resolvedAt;\r\n    }\r\n    \r\n    // Boost prediction structure\r\n    struct BoostPrediction {\r\n        address user;\r\n        uint256 marketId;\r\n        string outcome;\r\n        uint256 stakeAmount;\r\n        uint256 totalStake;\r\n        bool claimed;\r\n    }\r\n    \r\n    // Market trading position\r\n    struct MarketPosition {\r\n        address user;\r\n        string outcome;\r\n        uint256 shares;\r\n        uint256 totalInvested;\r\n    }\r\n    \r\n    // Mappings\r\n    mapping(uint256 => Market) public markets;\r\n    mapping(uint256 => mapping(address => mapping(string => BoostPrediction))) public boostPredictions; // marketId => user => outcome => prediction\r\n    mapping(uint256 => mapping(address => mapping(string => MarketPosition))) public marketPositions; // marketId => user => outcome => position\r\n    mapping(uint256 => mapping(address => uint256)) public claimableBalances; // marketId => user => claimable amount (legacy/total)\r\n    mapping(uint256 => mapping(address => uint256)) public claimableBoost;    // marketId => user => boost claimable\r\n    mapping(uint256 => mapping(address => uint256)) public claimableMarket;  // marketId => user => market claimable\r\n    mapping(address => uint256) public jackpotBalances; // user => jackpot balance\r\n    \r\n    uint256 public nextMarketId;\r\n    uint256 public jackpotPool;\r\n    /// @dev Pool for paying Boost and Market prediction wins; funded by deployer and by boost stakes\r\n    uint256 public claimPredictionWinsPool;\r\n    \r\n    // Events\r\n    event MarketCreated(uint256 indexed marketId, bool isPoll, string[] options);\r\n    event MarketStatusUpdated(uint256 indexed marketId, MarketStatus status);\r\n    event MarketResolved(uint256 indexed marketId, string winningOption);\r\n    event LiquidityAdded(uint256 indexed marketId, string option, uint256 amount);\r\n    event FeesUpdated(uint256 platformFee, uint256 boostJackpotFee, uint256 marketPlatformFee, uint256 freeJackpotFee);\r\n    event BoostStaked(uint256 indexed marketId, address indexed user, string outcome, uint256 amount);\r\n    event BoostStakeAdded(uint256 indexed marketId, address indexed user, uint256 amount);\r\n    event BoostStakeWithdrawn(uint256 indexed marketId, address indexed user, uint256 amount);\r\n    event BoostClaimed(uint256 indexed marketId, address indexed user, uint256 amount);\r\n    event MarketBought(uint256 indexed marketId, address indexed user, string outcome, uint256 ethAmount, uint256 shares);\r\n    event MarketSold(uint256 indexed marketId, address indexed user, string outcome, uint256 shares, uint256 ethAmount);\r\n    event MarketClaimed(uint256 indexed marketId, address indexed user, string outcome, uint256 amount);\r\n    event JackpotFunded(uint256 amount);\r\n    event JackpotWithdrawn(address indexed user, uint256 amount);\r\n    event JackpotPoolWithdrawn(address indexed to, uint256 amount);\r\n    event FundsTransferred(address indexed to, uint256 amount);\r\n    event ClaimPredictionWinsPoolFunded(uint256 amount);\r\n    event ClaimPredictionWinsPoolWithdrawn(address indexed to, uint256 amount);\r\n    event PredictionWinsClaimed(uint256 indexed marketId, address indexed user, uint256 amount);\r\n    \r\n    modifier onlyDeployer() {\r\n        require(msg.sender == deployer, \"Only deployer\");\r\n        _;\r\n    }\r\n    \r\n    modifier onlySuperAdmin() {\r\n        require(msg.sender == superAdmin || msg.sender == deployer, \"Only superAdmin\");\r\n        _;\r\n    }\r\n    \r\n    modifier validMarket(uint256 marketId) {\r\n        require(markets[marketId].marketId != 0, \"Market does not exist\");\r\n        _;\r\n    }\r\n    \r\n    uint256 private _locked = 0;\r\n    modifier nonReentrant() {\r\n        require(_locked == 0, \"ReentrancyGuard: reentrant call\");\r\n        _locked = 1;\r\n        _;\r\n        _locked = 0;\r\n    }\r\n    \r\n    constructor() {\r\n        deployer = msg.sender;\r\n        superAdmin = msg.sender;\r\n        \r\n        // Default fees (in basis points: 1000 = 10%, 500 = 5%)\r\n        platformFee = 1000; // 10%\r\n        boostJackpotFee = 500; // 5%\r\n        marketPlatformFee = 500; // 5%\r\n        freeJackpotFee = 500; // 5%\r\n        \r\n        nextMarketId = 1;\r\n    }\r\n    \r\n    /**\r\n     * @dev Create a new market (match or poll)\r\n     * @param isPoll true if poll, false if match\r\n     * @param options array of outcome options\r\n     */\r\n    function createMarket(bool isPoll, string[] memory options) external onlyDeployer returns (uint256) {\r\n        require(options.length >= 2, \"Must have at least 2 options\");\r\n        \r\n        uint256 marketId = nextMarketId++;\r\n        Market storage market = markets[marketId];\r\n        market.marketId = marketId;\r\n        market.isPoll = isPoll;\r\n        market.status = MarketStatus.Upcoming;\r\n        market.createdAt = block.timestamp;\r\n        \r\n        // Initialize options\r\n        for (uint256 i = 0; i < options.length; i++) {\r\n            market.options.push(options[i]);\r\n            market.liquidity[options[i]] = 0;\r\n            market.shares[options[i]] = 0;\r\n        }\r\n        \r\n        emit MarketCreated(marketId, isPoll, options);\r\n        return marketId;\r\n    }\r\n    \r\n    /**\r\n     * @dev Update market status\r\n     */\r\n    function updateMarketStatus(uint256 marketId, MarketStatus status) external onlyDeployer validMarket(marketId) {\r\n        markets[marketId].status = status;\r\n        emit MarketStatusUpdated(marketId, status);\r\n    }\r\n    \r\n    /**\r\n     * @dev Add initial liquidity to a market option\r\n     */\r\n    function addLiquidity(uint256 marketId, string memory option, uint256 amount) external payable onlyDeployer validMarket(marketId) {\r\n        require(msg.value >= amount, \"Insufficient ETH sent\");\r\n        require(msg.value > 0, \"Amount must be greater than 0\");\r\n        \r\n        Market storage market = markets[marketId];\r\n        require(market.status == MarketStatus.Upcoming || market.status == MarketStatus.Active, \"Market not active\");\r\n        \r\n        // Verify option exists\r\n        bool optionExists = false;\r\n        for (uint256 i = 0; i < market.options.length; i++) {\r\n            if (keccak256(bytes(market.options[i])) == keccak256(bytes(option))) {\r\n                optionExists = true;\r\n                break;\r\n            }\r\n        }\r\n        require(optionExists, \"Invalid option\");\r\n        \r\n        market.liquidity[option] += amount;\r\n        market.totalLiquidity += amount;\r\n        \r\n        emit LiquidityAdded(marketId, option, amount);\r\n    }\r\n    \r\n    /**\r\n     * @dev Resolve a market\r\n     */\r\n    function resolveMarket(uint256 marketId, string memory winningOption) external onlyDeployer validMarket(marketId) {\r\n        Market storage market = markets[marketId];\r\n        require(market.status != MarketStatus.Resolved, \"Already resolved\");\r\n        \r\n        // Verify option exists\r\n        bool optionExists = false;\r\n        for (uint256 i = 0; i < market.options.length; i++) {\r\n            if (keccak256(bytes(market.options[i])) == keccak256(bytes(winningOption))) {\r\n                optionExists = true;\r\n                break;\r\n            }\r\n        }\r\n        require(optionExists, \"Invalid winning option\");\r\n        \r\n        market.status = MarketStatus.Resolved;\r\n        market.resolved = true;\r\n        market.winningOption = winningOption;\r\n        market.resolvedAt = block.timestamp;\r\n        \r\n        emit MarketResolved(marketId, winningOption);\r\n    }\r\n    \r\n    /**\r\n     * @dev Set fees (in basis points)\r\n     */\r\n    function setFees(\r\n        uint256 _platformFee,\r\n        uint256 _boostJackpotFee,\r\n        uint256 _marketPlatformFee,\r\n        uint256 _freeJackpotFee\r\n    ) external onlySuperAdmin {\r\n        require(_platformFee <= 10000 && _boostJackpotFee <= 10000 && \r\n                _marketPlatformFee <= 10000 && _freeJackpotFee <= 10000, \"Fees cannot exceed 100%\");\r\n        \r\n        platformFee = _platformFee;\r\n        boostJackpotFee = _boostJackpotFee;\r\n        marketPlatformFee = _marketPlatformFee;\r\n        freeJackpotFee = _freeJackpotFee;\r\n        \r\n        emit FeesUpdated(_platformFee, _boostJackpotFee, _marketPlatformFee, _freeJackpotFee);\r\n    }\r\n    \r\n    /**\r\n     * @dev Get current fees\r\n     */\r\n    function getFees() external view returns (\r\n        uint256 _platformFee,\r\n        uint256 _boostJackpotFee,\r\n        uint256 _marketPlatformFee,\r\n        uint256 _freeJackpotFee\r\n    ) {\r\n        return (platformFee, boostJackpotFee, marketPlatformFee, freeJackpotFee);\r\n    }\r\n    \r\n    /**\r\n     * @dev Get options for a market (so frontend can validate outcome before staking)\r\n     */\r\n    function getMarketOptions(uint256 marketId) external view validMarket(marketId) returns (string[] memory) {\r\n        return markets[marketId].options;\r\n    }\r\n    \r\n    /**\r\n     * @dev Stake ETH for boost prediction\r\n     */\r\n    function stakeBoost(uint256 marketId, string memory outcome) external payable validMarket(marketId) {\r\n        require(msg.value > 0, \"Amount must be greater than 0\");\r\n        Market storage market = markets[marketId];\r\n        require(market.status == MarketStatus.Upcoming || market.status == MarketStatus.Active, \"Market not active\");\r\n        \r\n        // Verify option exists\r\n        bool optionExists = false;\r\n        for (uint256 i = 0; i < market.options.length; i++) {\r\n            if (keccak256(bytes(market.options[i])) == keccak256(bytes(outcome))) {\r\n                optionExists = true;\r\n                break;\r\n            }\r\n        }\r\n        require(optionExists, \"Invalid outcome\");\r\n        \r\n        // Calculate fees\r\n        uint256 platformFeeAmount = (msg.value * platformFee) / 10000;\r\n        uint256 boostJackpotFeeAmount = (msg.value * boostJackpotFee) / 10000;\r\n        uint256 netStake = msg.value - platformFeeAmount - boostJackpotFeeAmount;\r\n        \r\n        // Update or create boost prediction\r\n        BoostPrediction storage prediction = boostPredictions[marketId][msg.sender][outcome];\r\n        if (prediction.user == address(0)) {\r\n            // New prediction\r\n            prediction.user = msg.sender;\r\n            prediction.marketId = marketId;\r\n            prediction.outcome = outcome;\r\n            prediction.stakeAmount = netStake;\r\n            prediction.totalStake = netStake;\r\n        } else {\r\n            // Update existing prediction\r\n            prediction.totalStake += netStake;\r\n        }\r\n        \r\n        // Boost stakes fund the claim prediction wins pool\r\n        claimPredictionWinsPool += msg.value;\r\n        \r\n        emit BoostStaked(marketId, msg.sender, outcome, netStake);\r\n    }\r\n    \r\n    /**\r\n     * @dev Add more stake to existing boost prediction\r\n     */\r\n    function addBoostStake(uint256 marketId, string memory outcome) external payable validMarket(marketId) {\r\n        require(msg.value > 0, \"Amount must be greater than 0\");\r\n        Market storage market = markets[marketId];\r\n        require(market.status == MarketStatus.Upcoming || market.status == MarketStatus.Active, \"Market not active\");\r\n        \r\n        BoostPrediction storage prediction = boostPredictions[marketId][msg.sender][outcome];\r\n        require(prediction.user == msg.sender, \"No existing prediction\");\r\n        \r\n        // Calculate fees\r\n        uint256 platformFeeAmount = (msg.value * platformFee) / 10000;\r\n        uint256 boostJackpotFeeAmount = (msg.value * boostJackpotFee) / 10000;\r\n        uint256 netStake = msg.value - platformFeeAmount - boostJackpotFeeAmount;\r\n        \r\n        prediction.totalStake += netStake;\r\n        \r\n        // Additional boost stake funds the claim prediction wins pool\r\n        claimPredictionWinsPool += msg.value;\r\n        \r\n        emit BoostStakeAdded(marketId, msg.sender, netStake);\r\n    }\r\n    \r\n    /**\r\n     * @dev Withdraw stake from boost prediction (only before resolution)\r\n     */\r\n    function withdrawBoostStake(uint256 marketId, string memory outcome, uint256 amount) external validMarket(marketId) nonReentrant {\r\n        Market storage market = markets[marketId];\r\n        require(market.status == MarketStatus.Upcoming || market.status == MarketStatus.Active, \"Market not active\");\r\n        \r\n        BoostPrediction storage prediction = boostPredictions[marketId][msg.sender][outcome];\r\n        require(prediction.user == msg.sender, \"No prediction found\");\r\n        require(prediction.totalStake >= amount, \"Insufficient stake\");\r\n        \r\n        prediction.totalStake -= amount;\r\n        require(claimPredictionWinsPool >= amount, \"Insufficient claim pool\");\r\n        claimPredictionWinsPool -= amount;\r\n        \r\n        // Transfer ETH back to user\r\n        (bool success, ) = payable(msg.sender).call{value: amount}(\"\");\r\n        require(success, \"Transfer failed\");\r\n        \r\n        emit BoostStakeWithdrawn(marketId, msg.sender, amount);\r\n    }\r\n    \r\n    /**\r\n     * @dev Claim boost prediction winnings\r\n     */\r\n    function claimBoost(uint256 marketId, string memory outcome) external validMarket(marketId) nonReentrant {\r\n        Market storage market = markets[marketId];\r\n        require(market.resolved, \"Market not resolved\");\r\n        require(keccak256(bytes(market.winningOption)) == keccak256(bytes(outcome)), \"Not winning outcome\");\r\n        \r\n        BoostPrediction storage prediction = boostPredictions[marketId][msg.sender][outcome];\r\n        require(prediction.user == msg.sender, \"No prediction found\");\r\n        require(!prediction.claimed, \"Already claimed\");\r\n        require(prediction.totalStake > 0, \"No stake to claim\");\r\n        \r\n        // Calculate claimable amount (backend will set this via setClaimableBalance)\r\n        uint256 claimable = claimableBalances[marketId][msg.sender];\r\n        require(claimable > 0, \"No claimable balance\");\r\n        require(claimPredictionWinsPool >= claimable, \"Insufficient claim pool\");\r\n        \r\n        prediction.claimed = true;\r\n        claimableBalances[marketId][msg.sender] = 0;\r\n        claimPredictionWinsPool -= claimable;\r\n        \r\n        // Transfer winnings\r\n        (bool success, ) = payable(msg.sender).call{value: claimable}(\"\");\r\n        require(success, \"Transfer failed\");\r\n        \r\n        emit BoostClaimed(marketId, msg.sender, claimable);\r\n    }\r\n    \r\n    /**\r\n     * @dev Set claimable balance for a user (legacy; prefer setClaimableBoost/setClaimableMarket)\r\n     */\r\n    function setClaimableBalance(uint256 marketId, address user, uint256 amount) external onlyDeployer {\r\n        claimableBalances[marketId][user] = amount;\r\n    }\r\n    \r\n    /**\r\n     * @dev Set claimable boost amount for a user (called after resolution).\r\n     */\r\n    function setClaimableBoost(uint256 marketId, address user, uint256 amount) external onlyDeployer {\r\n        claimableBoost[marketId][user] = amount;\r\n    }\r\n    \r\n    /**\r\n     * @dev Set claimable market amount for a user (called after resolution).\r\n     */\r\n    function setClaimableMarket(uint256 marketId, address user, uint256 amount) external onlyDeployer {\r\n        claimableMarket[marketId][user] = amount;\r\n    }\r\n    \r\n    /**\r\n     * @dev Claim prediction winnings (Boost or Market) for a resolved market.\r\n     * @param marketId Market id\r\n     * @param isBoost true to claim boost winnings, false to claim market winnings. Pays from claimPredictionWinsPool.\r\n     */\r\n    function claimPredictionWins(uint256 marketId, bool isBoost) external validMarket(marketId) nonReentrant {\r\n        Market storage market = markets[marketId];\r\n        require(market.resolved, \"Market not resolved\");\r\n        \r\n        string memory winningOption = market.winningOption;\r\n        uint256 amount;\r\n        \r\n        if (isBoost) {\r\n            amount = claimableBoost[marketId][msg.sender];\r\n            require(amount > 0, \"No claimable balance\");\r\n            BoostPrediction storage boostPred = boostPredictions[marketId][msg.sender][winningOption];\r\n            require(boostPred.user == msg.sender && boostPred.totalStake > 0 && !boostPred.claimed, \"Not a participant\");\r\n            require(claimPredictionWinsPool >= amount, \"Insufficient claim pool\");\r\n            claimableBoost[marketId][msg.sender] = 0;\r\n            boostPred.claimed = true;\r\n        } else {\r\n            amount = claimableMarket[marketId][msg.sender];\r\n            require(amount > 0, \"No claimable balance\");\r\n            MarketPosition storage pos = marketPositions[marketId][msg.sender][winningOption];\r\n            require(pos.user == msg.sender && pos.shares > 0, \"Not a participant\");\r\n            require(claimPredictionWinsPool >= amount, \"Insufficient claim pool\");\r\n            claimableMarket[marketId][msg.sender] = 0;\r\n        }\r\n        \r\n        claimPredictionWinsPool -= amount;\r\n        (bool success, ) = payable(msg.sender).call{value: amount}(\"\");\r\n        require(success, \"Transfer failed\");\r\n        emit PredictionWinsClaimed(marketId, msg.sender, amount);\r\n    }\r\n    \r\n    /**\r\n     * @dev Fund the claim prediction wins pool (deployer only).\r\n     */\r\n    function fundClaimPredictionWinsPool() external payable onlyDeployer {\r\n        require(msg.value > 0, \"Amount must be greater than 0\");\r\n        claimPredictionWinsPool += msg.value;\r\n        emit ClaimPredictionWinsPoolFunded(msg.value);\r\n    }\r\n    \r\n    /**\r\n     * @dev Withdraw from claim prediction wins pool (deployer only).\r\n     */\r\n    function withdrawFromClaimPredictionWinsPool(address payable to, uint256 amount) external onlyDeployer nonReentrant {\r\n        require(to != address(0), \"Invalid recipient\");\r\n        require(to != address(this), \"Cannot send to contract\");\r\n        require(amount > 0, \"Amount must be greater than 0\");\r\n        require(claimPredictionWinsPool >= amount, \"Insufficient pool balance\");\r\n        require(address(this).balance >= amount, \"Insufficient contract balance\");\r\n        claimPredictionWinsPool -= amount;\r\n        (bool success, ) = to.call{value: amount}(\"\");\r\n        require(success, \"Transfer failed\");\r\n        emit ClaimPredictionWinsPoolWithdrawn(to, amount);\r\n    }\r\n    \r\n    /**\r\n     * @dev Buy shares in market (fixed-sum AMM)\r\n     */\r\n    function buyMarketShares(uint256 marketId, string memory outcome) external payable validMarket(marketId) {\r\n        require(msg.value > 0, \"Amount must be greater than 0\");\r\n        Market storage market = markets[marketId];\r\n        require(market.status == MarketStatus.Upcoming || market.status == MarketStatus.Active, \"Market not active\");\r\n        \r\n        // Verify option exists\r\n        bool optionExists = false;\r\n        for (uint256 i = 0; i < market.options.length; i++) {\r\n            if (keccak256(bytes(market.options[i])) == keccak256(bytes(outcome))) {\r\n                optionExists = true;\r\n                break;\r\n            }\r\n        }\r\n        require(optionExists, \"Invalid outcome\");\r\n        \r\n        // Calculate fees\r\n        uint256 platformFeeAmount = (msg.value * marketPlatformFee) / 10000;\r\n        uint256 freeJackpotFeeAmount = (msg.value * freeJackpotFee) / 10000;\r\n        uint256 netAmount = msg.value - platformFeeAmount - freeJackpotFeeAmount;\r\n        \r\n        // Calculate current price (liquidity / total liquidity)\r\n        uint256 currentPrice = market.totalLiquidity > 0 \r\n            ? (market.liquidity[outcome] * 10000) / market.totalLiquidity \r\n            : (10000 / market.options.length); // Equal distribution if no liquidity\r\n        \r\n        // Calculate shares received\r\n        uint256 shares = (netAmount * 10000) / currentPrice;\r\n        \r\n        // Update liquidity (fixed-sum AMM: buying increases selected option's liquidity)\r\n        market.liquidity[outcome] += netAmount;\r\n        market.totalLiquidity += netAmount;\r\n        market.shares[outcome] += shares;\r\n        \r\n        // Update user position\r\n        MarketPosition storage position = marketPositions[marketId][msg.sender][outcome];\r\n        if (position.user == address(0)) {\r\n            position.user = msg.sender;\r\n            position.outcome = outcome;\r\n        }\r\n        position.shares += shares;\r\n        position.totalInvested += netAmount;\r\n        \r\n        // Market buys fund the claim prediction wins pool\r\n        claimPredictionWinsPool += msg.value;\r\n        \r\n        emit MarketBought(marketId, msg.sender, outcome, netAmount, shares);\r\n    }\r\n    \r\n    /**\r\n     * @dev Sell shares in market\r\n     */\r\n    function sellMarketShares(uint256 marketId, string memory outcome, uint256 shares) external validMarket(marketId) nonReentrant {\r\n        Market storage market = markets[marketId];\r\n        require(market.status == MarketStatus.Upcoming || market.status == MarketStatus.Active, \"Market not active\");\r\n        \r\n        MarketPosition storage position = marketPositions[marketId][msg.sender][outcome];\r\n        require(position.user == msg.sender, \"No position found\");\r\n        require(position.shares >= shares, \"Insufficient shares\");\r\n        \r\n        // Calculate current price\r\n        uint256 currentPrice = market.totalLiquidity > 0 \r\n            ? (market.liquidity[outcome] * 10000) / market.totalLiquidity \r\n            : (10000 / market.options.length);\r\n        \r\n        // Calculate payout\r\n        uint256 payout = (shares * currentPrice) / 10000;\r\n        \r\n        // Update liquidity (selling decreases selected option's liquidity)\r\n        market.liquidity[outcome] -= payout;\r\n        market.totalLiquidity -= payout;\r\n        market.shares[outcome] -= shares;\r\n        \r\n        // Update user position\r\n        position.shares -= shares;\r\n        position.totalInvested -= (payout * position.totalInvested) / (position.shares + shares);\r\n        \r\n        // Deduct from claim prediction wins pool when user sells (pool was credited on buy)\r\n        require(claimPredictionWinsPool >= payout, \"Insufficient claim pool\");\r\n        claimPredictionWinsPool -= payout;\r\n        \r\n        // Transfer ETH to user\r\n        (bool success, ) = payable(msg.sender).call{value: payout}(\"\");\r\n        require(success, \"Transfer failed\");\r\n        \r\n        emit MarketSold(marketId, msg.sender, outcome, shares, payout);\r\n    }\r\n    \r\n    /**\r\n     * @dev Claim market winnings after resolution\r\n     */\r\n    function claimMarket(uint256 marketId, string memory outcome) external validMarket(marketId) nonReentrant {\r\n        Market storage market = markets[marketId];\r\n        require(market.resolved, \"Market not resolved\");\r\n        require(keccak256(bytes(market.winningOption)) == keccak256(bytes(outcome)), \"Not winning outcome\");\r\n        \r\n        MarketPosition storage position = marketPositions[marketId][msg.sender][outcome];\r\n        require(position.user == msg.sender, \"No position found\");\r\n        require(position.shares > 0, \"No shares to claim\");\r\n        \r\n        // Calculate claimable amount (backend will set this)\r\n        uint256 claimable = claimableBalances[marketId][msg.sender];\r\n        require(claimable > 0, \"No claimable balance\");\r\n        require(claimPredictionWinsPool >= claimable, \"Insufficient claim pool\");\r\n        \r\n        claimableBalances[marketId][msg.sender] = 0;\r\n        claimPredictionWinsPool -= claimable;\r\n        \r\n        // Transfer winnings\r\n        (bool success, ) = payable(msg.sender).call{value: claimable}(\"\");\r\n        require(success, \"Transfer failed\");\r\n        \r\n        emit MarketClaimed(marketId, msg.sender, outcome, claimable);\r\n    }\r\n    \r\n    /**\r\n     * @dev Get current price for an option (in basis points)\r\n     */\r\n    function getPrice(uint256 marketId, string memory outcome) external view validMarket(marketId) returns (uint256) {\r\n        Market storage market = markets[marketId];\r\n        if (market.totalLiquidity == 0) {\r\n            return (10000 / market.options.length);\r\n        }\r\n        return (market.liquidity[outcome] * 10000) / market.totalLiquidity;\r\n    }\r\n    \r\n    /**\r\n     * @dev Get user's market position\r\n     */\r\n    function getUserPosition(uint256 marketId, address user, string memory outcome) external view validMarket(marketId) returns (uint256 shares, uint256 totalInvested) {\r\n        MarketPosition storage position = marketPositions[marketId][user][outcome];\r\n        return (position.shares, position.totalInvested);\r\n    }\r\n    \r\n    /**\r\n     * @dev Get user's boost prediction\r\n     */\r\n    function getBoostPrediction(uint256 marketId, address user, string memory outcome) external view validMarket(marketId) returns (\r\n        address _user,\r\n        uint256 _totalStake,\r\n        bool _claimed\r\n    ) {\r\n        BoostPrediction storage prediction = boostPredictions[marketId][user][outcome];\r\n        return (prediction.user, prediction.totalStake, prediction.claimed);\r\n    }\r\n    \r\n    /**\r\n     * @dev Fund jackpot pool (deployer only)\r\n     */\r\n    function fundJackpotPool() external payable onlyDeployer {\r\n        require(msg.value > 0, \"Amount must be greater than 0\");\r\n        jackpotPool += msg.value;\r\n        emit JackpotFunded(msg.value);\r\n    }\r\n    \r\n    /**\r\n     * @dev User withdraw from jackpot pool\r\n     */\r\n    function withdrawJackpot(uint256 amount) external nonReentrant {\r\n        require(amount > 0, \"Amount must be greater than 0\");\r\n        require(jackpotPool >= amount, \"Insufficient jackpot pool\");\r\n        require(jackpotBalances[msg.sender] >= amount, \"Insufficient balance\");\r\n        \r\n        jackpotBalances[msg.sender] -= amount;\r\n        jackpotPool -= amount;\r\n        \r\n        (bool success, ) = payable(msg.sender).call{value: amount}(\"\");\r\n        require(success, \"Transfer failed\");\r\n        \r\n        emit JackpotWithdrawn(msg.sender, amount);\r\n    }\r\n    \r\n    /**\r\n     * @dev Set user's jackpot balance (called by backend)\r\n     */\r\n    function setJackpotBalance(address user, uint256 amount) external onlyDeployer {\r\n        jackpotBalances[user] = amount;\r\n    }\r\n    \r\n    /**\r\n     * @dev Withdraw from jackpot pool (deployer only)\r\n     */\r\n    function withdrawFromJackpotPool(address payable to, uint256 amount) external onlyDeployer nonReentrant {\r\n        require(to != address(0), \"Invalid recipient\");\r\n        require(to != address(this), \"Cannot send to contract\");\r\n        require(amount > 0, \"Amount must be greater than 0\");\r\n        require(jackpotPool >= amount, \"Insufficient pool balance\");\r\n        require(address(this).balance >= amount, \"Insufficient contract balance\");\r\n        jackpotPool -= amount;\r\n\r\n        (bool success, ) = to.call{value: amount}(\"\");\r\n        require(success, \"Transfer failed\");\r\n\r\n        emit JackpotPoolWithdrawn(to, amount);\r\n    }\r\n    \r\n    /**\r\n     * @dev Get contract balance\r\n     */\r\n    function getContractBalance() external view returns (uint256) {\r\n        return address(this).balance;\r\n    }\r\n    \r\n    /**\r\n     * @dev Transfer funds from contract (deployer only)\r\n     */\r\n    function transferFunds(address payable to, uint256 amount) external onlyDeployer {\r\n        require(to != address(0), \"Invalid recipient\");\r\n        require(to != address(this), \"Cannot send to contract\");\r\n        require(amount > 0, \"Amount must be greater than 0\");\r\n        require(address(this).balance >= amount, \"Insufficient contract balance\");\r\n\r\n        (bool success, ) = to.call{value: amount}(\"\");\r\n        require(success, \"Transfer failed\");\r\n\r\n        emit FundsTransferred(to, amount);\r\n    }\r\n    \r\n    /**\r\n     * @dev Set superAdmin address\r\n     */\r\n    function setSuperAdmin(address _superAdmin) external onlySuperAdmin {\r\n        require(_superAdmin != address(0), \"Invalid address\");\r\n        superAdmin = _superAdmin;\r\n    }\r\n    \r\n    /**\r\n     * @dev Get jackpot balance for user\r\n     */\r\n    function getJackpotBalance(address user) external view returns (uint256) {\r\n        return jackpotBalances[user];\r\n    }\r\n    \r\n    /**\r\n     * @dev Get claimable balance for user\r\n     */\r\n    function getClaimableBalance(uint256 marketId, address user) external view returns (uint256) {\r\n        return claimableBalances[marketId][user];\r\n    }\r\n    \r\n    // Receive ETH\r\n    receive() external payable {\r\n        // Allow contract to receive ETH\r\n    }\r\n    \r\n    fallback() external payable {\r\n        // Allow contract to receive ETH\r\n    }\r\n}\r\n",
  "sourcePath": "C:\\Users\\Tolu John\\Desktop\\startups\\wergame-platform\\smart-contract\\contracts\\WeRgame.sol",
  "compiler": {
    "name": "solc",
    "version": "0.8.20+commit.a1b79de6.Emscripten.clang"
  },
  "schemaVersion": "3.4.16",
  "updatedAt": "2026-03-11T03:51:34.357Z",
  "devdoc": {
    "details": "Comprehensive smart contract for prediction market platform Handles market creation, trading, boost predictions, and jackpot management",
    "kind": "dev",
    "methods": {
      "addBoostStake(uint256,string)": {
        "details": "Add more stake to existing boost prediction"
      },
      "addLiquidity(uint256,string,uint256)": {
        "details": "Add initial liquidity to a market option"
      },
      "buyMarketShares(uint256,string)": {
        "details": "Buy shares in market (fixed-sum AMM)"
      },
      "claimBoost(uint256,string)": {
        "details": "Claim boost prediction winnings"
      },
      "claimMarket(uint256,string)": {
        "details": "Claim market winnings after resolution"
      },
      "claimPredictionWins(uint256,bool)": {
        "details": "Claim prediction winnings (Boost or Market) for a resolved market.",
        "params": {
          "isBoost": "true to claim boost winnings, false to claim market winnings. Pays from claimPredictionWinsPool.",
          "marketId": "Market id"
        }
      },
      "createMarket(bool,string[])": {
        "details": "Create a new market (match or poll)",
        "params": {
          "isPoll": "true if poll, false if match",
          "options": "array of outcome options"
        }
      },
      "fundClaimPredictionWinsPool()": {
        "details": "Fund the claim prediction wins pool (deployer only)."
      },
      "fundJackpotPool()": {
        "details": "Fund jackpot pool (deployer only)"
      },
      "getBoostPrediction(uint256,address,string)": {
        "details": "Get user's boost prediction"
      },
      "getClaimableBalance(uint256,address)": {
        "details": "Get claimable balance for user"
      },
      "getContractBalance()": {
        "details": "Get contract balance"
      },
      "getFees()": {
        "details": "Get current fees"
      },
      "getJackpotBalance(address)": {
        "details": "Get jackpot balance for user"
      },
      "getMarketOptions(uint256)": {
        "details": "Get options for a market (so frontend can validate outcome before staking)"
      },
      "getPrice(uint256,string)": {
        "details": "Get current price for an option (in basis points)"
      },
      "getUserPosition(uint256,address,string)": {
        "details": "Get user's market position"
      },
      "resolveMarket(uint256,string)": {
        "details": "Resolve a market"
      },
      "sellMarketShares(uint256,string,uint256)": {
        "details": "Sell shares in market"
      },
      "setClaimableBalance(uint256,address,uint256)": {
        "details": "Set claimable balance for a user (legacy; prefer setClaimableBoost/setClaimableMarket)"
      },
      "setClaimableBoost(uint256,address,uint256)": {
        "details": "Set claimable boost amount for a user (called after resolution)."
      },
      "setClaimableMarket(uint256,address,uint256)": {
        "details": "Set claimable market amount for a user (called after resolution)."
      },
      "setFees(uint256,uint256,uint256,uint256)": {
        "details": "Set fees (in basis points)"
      },
      "setJackpotBalance(address,uint256)": {
        "details": "Set user's jackpot balance (called by backend)"
      },
      "setSuperAdmin(address)": {
        "details": "Set superAdmin address"
      },
      "stakeBoost(uint256,string)": {
        "details": "Stake ETH for boost prediction"
      },
      "transferFunds(address,uint256)": {
        "details": "Transfer funds from contract (deployer only)"
      },
      "updateMarketStatus(uint256,uint8)": {
        "details": "Update market status"
      },
      "withdrawBoostStake(uint256,string,uint256)": {
        "details": "Withdraw stake from boost prediction (only before resolution)"
      },
      "withdrawFromClaimPredictionWinsPool(address,uint256)": {
        "details": "Withdraw from claim prediction wins pool (deployer only)."
      },
      "withdrawFromJackpotPool(address,uint256)": {
        "details": "Withdraw from jackpot pool (deployer only)"
      },
      "withdrawJackpot(uint256)": {
        "details": "User withdraw from jackpot pool"
      }
    },
    "stateVariables": {
      "claimPredictionWinsPool": {
        "details": "Pool for paying Boost and Market prediction wins; funded by deployer and by boost stakes"
      }
    },
    "title": "WeRgame",
    "version": 1
  },
  "userdoc": {
    "kind": "user",
    "methods": {},
    "version": 1
  }
}